:020000040800F2
:100000008052002081020008032C0008ED27000820
:10001000012C00081909000825350008000000001F
:10002000000000000000000000000000C101000806
:10003000B90D0008000000001D020008E12D0008B5
:100040009B0200089B0200089B0200089B0200081C
:100050009B0200089B0200089B0200089B0200080C
:100060009B0200089B0200089B0200089B020008FC
:100070009B0200089B020008A90B00089B020008D5
:100080009B0200089B0200089B0200082909000847
:100090001D0900089B0200089B0200089B02000843
:1000A0009B0200089B0200089B0200089B020008BC
:1000B0009B0200089B0200089B0200089B020008AC
:1000C0009B0200089B0200089B0200089B0200089C
:1000D0009B0200080D3500089B0200089B020008E7
:1000E0009B0200089B0200089B0200089B0200087C
:1000F0009B0200089B0200089B0200089B0200086C
:100100009B0200089B0200089B0200089B0200085B
:100110009B0200089B0200089B0200089B0200084B
:100120009B020008B50B0008DD0B00089B020008CD
:100130009B0200089B0200089B020008410900087E
:10014000350900089B0200089B0200089B0200087A
:100150009B0200089B0200089B020008193500085A
:100160009B0200089B0200089B0200089B020008FB
:100170009B0200089B0200089B0200080000000090
:100180009B0200089B0200081D3100089B0200082A
:100190009B0200089B0200089B0200089B020008CB
:1001A00000000000000000009B020008DFF80CD0F7
:1001B00000F0A0FB004800472547000880520020BF
:1001C0002C4B19680868B0E8F04F80F30988BFF33A
:1001D0006F8F4FF0000080F311887047000000001F
:1001E00008480068006880F308884FF0000080F33A
:1001F000148862B661B6BFF34F8FBFF36F8F00DF15
:1002000000BF00BF08ED00E0DFF80C00016841F41A
:1002100070010160704700BF88ED00E0EFF30980D6
:10022000BFF36F8F134B1A681EF0100F08BF20ED3D
:10023000108A20E9F04F106009B44FF0500080F3AD
:100240001188BFF34F8FBFF36F8F05F071F94FF037
:10025000000080F3118809BC19680868B0E8F04F05
:100260001EF0100F08BFB0EC108A80F30988BFF3AE
:100270006F8F70477C000020EFF30580704700000F
:100280000648804706480047FEE7FEE7FEE7FEE730
:10029000FEE7FEE7FEE7FEE7FEE7FEE77D2E00084D
:1002A000AD0100082DE9F05F0546002092469B460F
:1002B00088460646814640241BE02846414647467C
:1002C000224600F031FA53465A46C01A914110D3E3
:1002D00011461846224600F018FA2D1A67EB01085D
:1002E0004F4622460120002100F00FFA17EB0009CB
:1002F0004E41201EA4F10104DFDC484631462A4667
:100300004346BDE8F09F40EA01039B0703D009E0A4
:1003100008C9121F08C0042AFAD203E011F8013BF1
:1003200000F8013B521EF9D27047D2B201E000F84A
:10033000012B491EFBD270470022F6E710B5134689
:100340000A4604461946FFF7F0FF204610BD2DE986
:10035000FE4F804681EA0300C00F0C46009021F05A
:10036000004123F00045B8EB0200A94105D2404608
:10037000214690461C460B46024623F0004010439F
:1003800047D0270DC7F30A00C3F30A510290401A61
:10039000019040286BDAC3F3130040F4801B0098EF
:1003A000924620B10023D2EB030A63EB0B0B0198BA
:1003B0005946C0F14002504600F0A7F906460D46E6
:1003C00050465946019A00F0BFF910EB0800614110
:1003D000002487EA115284EAE7731A4340D0009A56
:1003E00062B3019A012A4FEA075215DC001B61EB48
:1003F00002014FF0004202EA0752CDE90042001C20
:1004000041F5801132462B4600F0F6F903B0BDE805
:10041000F08F40462146F9E7001B61EB0201001C0A
:1004200041F5801300185B412018A2F5001747EB37
:10043000030140EAD570B6196D4111E06D084FEA2D
:10044000360645EAC0754FEA0752001B61EB020110
:10045000001C41F5801149084FEA30000019514154
:1004600032462B4603B0BDE8F04F00F0B6B9009815
:10047000012240000023D0EB020263EBE0730098FE
:1004800021464FEAE074B8EB000061EB0401E9E7B4
:1004900083F000435BE781F0004158E72DE9FE4F10
:1004A00081EA030404F0004421F0004100944FF07D
:1004B000000B23F0004350EA01045ED052EA03042B
:1004C0005BD0C3F30A54C1F30A552C44A4F2F334AD
:1004D0000194A0FB0254C1F3130141F48011C3F352
:1004E000130343F4801301FB024400FB034E840A10
:1004F000970A44EA815447EA8357A4FB07680295A8
:100500008D0A05FB07854FEA932C04FB0C54270545
:10051000029D4FEA065847EA1637B5EB08056EEB21
:10052000070C870E920E47EA811742EA8312A7FB57
:100530000201B6EB0B0164EB00042B0D43EA0C3314
:100540005E1844EB1C50DA465146E7FB0201C5F346
:1005500013044FEA0B3343EA14534FEA0432019C6D
:1005600043EA0603A4F10C040294009CCDE900B414
:1005700000F042F903B0BDE8F08F00200146F9E732
:100580002DE9F04D81EA030404F0004B21F0004511
:1005900014464FF0000A23F0004150EA050220D033
:1005A00054EA01021DD0C5F30A570246C5F31303EE
:1005B000C1F31300C1F30A5640F4801543F48013CD
:1005C000A7EB0608101BD64608F2FD3873EB0500B2
:1005D00002D308F1010801E092185B41B8F1000F65
:1005E00003DA00200146BDE8F08D00204FF48011B1
:1005F000064684460EE0171B73EB050705D3121B56
:1006000063EB050306434CEA010C49084FEA30004E
:1006100092185B4150EA0107EDD152EA030012D073
:1006200082EA040083EA0501084305D0101BAB41B0
:1006300006D20122002306E000224FF0004302E030
:100640006FF0010253101AEB06004CEB085110EB4F
:100650000A0041EB0B01BDE8F04D00F0BEB80EB54D
:10066000C10F80EAE0700844CA07002140F233431A
:100670008DE80E000A460B4600F0BEF803B000BD40
:1006800000F0004230F000400AD0C10D01F5607169
:10069000C0F3160042EA0151C208400711437047F7
:1006A00000200146704701F0004330B421F00041C2
:1006B00050EA010206D00A0DA2F56072C1F31301DF
:1006C000002A02DC30BC00207047440F44EAC10419
:1006D000C100E01830BC00EBC25000F047B830B5A4
:1006E0000B46014600202022012409E021FA02F5F0
:1006F0009D4205D303FA02F5491B04FA02F528448A
:10070000151EA2F10102F1DC30BD202A04DB203AE3
:1007100000FA02F1002070479140C2F1200320FA54
:1007200003F3194390407047202A04DB203A21FA52
:1007300002F00021704721FA02F3D040C2F12002FA
:100740009140084319467047202A06DBCB17203A10
:1007500041FA02F043EAE07306E041FA02F3D040C6
:10076000C2F1200291400843194670470029A8BFF2
:100770007047401C490008BF20F00100704710B4CA
:10078000B0FA80FC00FA0CF050EA010404BF10BC7F
:10079000704749B1CCF1200421FA04F411FA0CF1AC
:1007A00018BF012121430843A3EB0C01CB1D4FEAE5
:1007B00000614FEA102042BF002010BC704700EBE0
:1007C000C35010440029A4BF10BC7047401C49000E
:1007D00008BF20F0010010BC704710B5141E73F163
:1007E000000408DA401C41F1000192185B411A43F1
:1007F00001D120F0010010BD2DE9F04D92469B463D
:1008000011B1B1FA81F202E0B0FA80F220329046E2
:10081000FFF77BFF04460F4640EA0A0041EA0B015E
:1008200053465A46084313D0114653EA010019D0E3
:10083000C8F140025046FFF777FF05460E46504686
:1008400059464246FFF761FF084305D0012004E006
:1008500020463946BDE8F08D0020054346EAE076A3
:100860002C4337430A986305E40AA0EB08000022F2
:10087000FD0A44EA47540A3002D500200146E9E760
:10088000010510196941DDE9084500196941BDE814
:10089000F04DA2E7C1F30A52C1F3130140F2FF3356
:1008A00041F480119A4202DA00200146704740F27A
:1008B00033439A42A2F2334202DC5242FFF734BF82
:1008C000FFF723BF30B5041E71F1000404DB4FF0C5
:1008D0000044404264EB0101141E73F1000405DB87
:1008E0001C464FF00043524263EB0403994208BF99
:1008F000904230BD064C074D06E0E06840F0010331
:1009000094E8070098471034AC42F6D3FFF752FC46
:100910002C5A00084C5A0008FEE70000014800F07D
:1009200032BB0000700C0020014800F02CBB00001E
:10093000700C0020014800F026BB0000980C00203D
:10094000014800F020BB0000980C002070B50C4658
:10095000054663A100F004F918B1204603F0E8FF52
:10096000B6E060A1284600F0FBF818B1204604F07C
:100970001FF8ADE05CA1284600F0F2F818B120465F
:1009800004F034F8A4E059A1284600F0E9F8002862
:10099000E6D157A1284600F0E3F80028E0D155A1A0
:1009A000284600F0DDF80028DAD153A1284600F0EF
:1009B000D7F80028D4D151A1284600F0D1F800285A
:1009C000CED14FA1284600F0CBF80028C8D14DA1C8
:1009D000284600F0C5F800287AD14BA1284600F03F
:1009E000BFF8002874D149A1284600F0B9F80028C2
:1009F0006ED147A1284600F0B3F8002868D145A180
:100A0000284600F0ADF8002862D143A1284600F046
:100A1000A7F800285CD141A1284600F0A1F80028E1
:100A200056D13FA1284600F09BF8002850D13DA1A7
:100A3000284600F095F800284AD13BA1284600F04E
:100A40008FF8002844D139A1284600F089F8002801
:100A50003ED137A1284600F083F8C8BB35A128460F
:100A600000F07EF8A0BB34A1284600F079F878BBEE
:100A700032A1284600F074F850BB31A1284600F09E
:100A80006FF810B103F0EEFD22E02EA1284600F031
:100A900067F8E8B92CA1284600F062F8C0B92BA18C
:100AA000284600F05DF898B929A1284600F058F8CA
:100AB00070B928A1284600F053F848B926A1284665
:100AC00000F04EF820B925A1284600F049F808B1F9
:100AD000002070BD2146284603F066FAF8E70000C2
:100AE0002A3100002A3200002A3300002A34000094
:100AF0002A3500002A3600002A3700002A38000074
:100B00002A39000023310000233200002333000083
:100B1000233400002335000023360000403100005C
:100B200040320000403300004034000040350000F7
:100B300040360000403700004038000040390000D7
:100B4000243100002432000024330000243400004B
:100B50002436000024370000243800002439000027
:100B600030B50C46054602F01FF90346204602F058
:100B70001BF983420AD1002004E0295C225C9142E7
:100B800004D1401C9842F8DB012030BD002030BD6C
:100B90000022835C23B18B54521C642AF9DB00E0F1
:100BA0008B54012070470000014800F09DBD0000FB
:100BB0006C10002008B5064800F096FD0548007846
:100BC00000F0B2F80448006801684068009008BD71
:100BD0002C110020A70A00202C10002010B504487A
:100BE00000F082FDBDE810400249034804F04EBA0F
:100BF000CC100020F4000020E00000200168182341
:100C0000CAB2103AB2FBF3F2054B6FF30901032AA3
:100C10009B5CC36500D9091D8165084670470000CB
:100C2000C459000810B5014600208B698A6A4FF04C
:100C3000C07453B1B3F5005F15D072B1012A0CD066
:100C4000022A0AD0032A09D104E01AB1012A06D0E7
:100C5000022A03D1C96AC90100D5012010BDC96AA1
:100C6000A142FAD010BD002AF7D0012AF2D0022A00
:100C7000F3D0032AF3D010BD30B50468256825F4FD
:100C800080252560046863608368402B036803D077
:100C900099600068C26030BD9A600068C16030BD74
:100CA0002DE9F04781460027012602F07DF8050076
:100CB00034D00024DFF868802DE0621C21464846CD
:100CC00002F07AF817A1FFF74BFF88B122463946A8
:100CD000484602F071F801F0CDFF10EE100AFFF760
:100CE000CFFC08EBC602671CC2E90001761C11E0CC
:100CF000281B01280ED12A463946484602F05CF8E6
:100D000001F0B8FF10EE100AFFF7BAFC08EBC602BC
:100D1000C2E90001641CAC42CFDB3046BDE8F0877D
:100D2000B00500202000000070B52149214B282883
:100D30000A780BD012B19854521C0A7029280BD192
:100D40000024D0B225461C540C700BE0002AF2D1CE
:100D5000282018700120087070BD58194078585527
:100D60006D1CEDB2134802F01FF8401EA842F4DCDF
:100D7000104802F019F818440E4A00F8024C503A94
:100D8000A2F114010B4801F04CFF0A485038FFF75C
:100D900087FF014607486438FFF7D8FD0549002062
:100DA00050390C54401CC0B26428FAD370BD000006
:100DB00000000020E4040020704770470246002035
:100DC000431E115C202904D011B1401C6428F8DBBB
:100DD00018467047F0B590F820500468A468012DBB
:100DE00005D0022D03D0416A41F4802153E014F074
:100DF000406F01D1E5004BD5C4F30164022C03D947
:100E0000416A41F4000146E00125A5401D608D685E
:100E10004FF4C0739DB1CE6835434E6845EAC605B0
:100E2000066803EB0417F5514FF4C275076805EB2C
:100E300004150E697E51097D012905D009E00E884F
:100E4000CD6845EA4655EBE701684E5946F4807691
:100E50004E511179D2F805504FF4C67641EA052576
:100E6000016806EB04168D511178D2F801204FF479
:100E7000C47541EA0221026805EB0415515100686E
:100E800003EB0411425842F0010242500020F0BD31
:100E9000416A41F4001141620120F0BD704730B554
:100EA00090F82040012C05D0022C03D0416A41F477
:100EB00080215DE00468002955D02469A40754D03E
:100EC0004FF4D874056804EB01142D5915F004058E
:100ED000956005682D594ED0ED08556005682C5970
:100EE000C4F34004D4604FF4DA74056804EB0114D1
:100EF0002D5905F00F05156105682D59C5F3072516
:100F0000956105682C59240C54614FF4DC72046817
:100F100002EB0112A4581C700468A458240A5C70E7
:100F20000468A458240C9C700468A258120EDA704D
:100F30004FF4DE72046802EB0112A4581C710468BD
:100F4000A458240A5C710468A458240C9C71046899
:100F5000A258120EDA71006881B1016941F02001D6
:100F60000161002030BDE468A8E7416A41F4001146
:100F70004162012030BD6D0D1560AFE7C16841F0E1
:100F80002001C160EDE72DE9F05F0546006800240F
:100F90004669D0F804908768D0F80CB0D0F810A05B
:100FA000D0F81880F10748D0F90714D001218160EA
:100FB000B80703D5284600F049FB0CE0780702D5B6
:100FC0004FF4006407E0380702D54FF4805402E084
:100FD000284600F03AFBF80516D529684FF48070D2
:100FE0008860B80503D5284600F032FB0CE0780590
:100FF00002D544F4005407E0380502D544F4804497
:1010000002E0284600F023FBF80316D529684FF4C8
:1010100080308860B80303D5284600F01BFB0CE045
:10102000780302D544F4004407E0380302D544F4C1
:10103000803402E0284600F00CFB300707D55FEA59
:10104000CB6004D52968102044F40074C860700790
:101050004FF0080707D55FEA0B7004D52868C76012
:10106000284600F0A9F9B00706D52868C0688007AF
:1010700002D0284600F0A2F9700607D55FEACA60E0
:1010800004D52968102044F480640861B00607D5AF
:101090005FEA0A7004D528680761284600F0D2FA92
:1010A000F00606D528680069800702D0284600F0BF
:1010B000CAFAB00308D55FEAC96005D529681020CF
:1010C0004860284600F0C0FAF00307D55FEA0970CF
:1010D00004D528684760284600F0BDFA300446D59C
:1010E0005FEA497040D5F00504D55FEAC87001D0C9
:1010F00044F00104B00504D55FEA887001D544F0DE
:101100000204700504D55FEA487001D544F0040478
:10111000300529D518F0700F26D008F0700040284F
:1011200015D006DC102809D020280AD0302816D186
:101130000AE050280ED0602811D10EE044F00804D7
:101140000DE044F010040AE044F0200407E044F00D
:10115000400404E044F0800401E044F48074286812
:10116000816921F070018161296804204860002CA8
:1011700005D0686A204368622846FFF78FFEBDE805
:10118000F09F70B5040003D094F8200010B104E083
:10119000012070BD204600F081F82068016821F030
:1011A0000201016000F002FD0546052604E000F0A2
:1011B000FDFC401B0A2811D8206840688007F6D43F
:1011C0002068016841F00101016000F0EFFC054674
:1011D0000BE000F0EBFC401B0A2806D9606A40F4E3
:1011E0000030606284F82060D2E720684068C00761
:1011F000EFD0207E0128206801683DD021F08001D9
:101200000160607E01282068016838D021F040012B
:101210000160A07E01282068016833D021F0200100
:101220000160E07E0128206801682ED041F01001A5
:101230000160207F01282068016829D021F0080181
:101240000160607F01282068016824D021F004013A
:101250000160D4E902010843D4E9041211430843B0
:101260006168491E08432168C8610020606201204E
:1012700084F82000002070BD41F08001C0E741F0FB
:101280004001C5E741F02001CAE721F01001CFE796
:1012900041F00801D4E741F00401D9E7F0B587B087
:1012A000044614216846FFF747F83E4B3E48DFF8F6
:1012B000F0E01968D4F800C03B4A0325022609274C
:1012C00010300024491CF4452AD11960012907D1A6
:1012D000016841F000710160006800F00070059045
:1012E000106840F0080010601068CDE9005600F06A
:1012F0000800CDE9047069462C48CDE9024500F0AC
:1013000069FB00220521132000F0C2FC132000F02D
:10131000B1FC00220521142000F0BAFC14203AE0B0
:10132000DFF88CE0F44538D1D0F800C04CF0806C88
:10133000C0F800C0D0F800C001290CF0806CCDF8D6
:1013400014C0196007D1016841F0007101600068A4
:1013500000F000700590106840F002001060106806
:1013600002AB00F0020005906020CDE9000683E8A2
:10137000B00069460F4800F02DFB002205213F20F8
:1013800000F086FC3F2000F075FC00220521402083
:1013900000F07EFC402000F06DFC07B0F0BD0000C6
:1013A000006400405400002030380240000C02402D
:1013B000006800400004024070470000F0B5054698
:1013C00000689949994C93B0884238D16B4602AA7B
:1013D00000219748FFF763FD029E40F21112A6F22A
:1013E000111004F10C01964271D00EDC9148A6F266
:1013F0000116A1F1080200F10E03072E1FD2DFE84B
:1014000006F02D364767819EBB00F2280CD006DC23
:10141000012876D0F02813D0F128D6D104E0F428A2
:1014200012D0F528D1D113E0B01EC0B2814A20708D
:10143000BDF80210AF3A02EB401049BAC180C4E0D7
:101440007C4869466F3806E07A4869464F3802E0C2
:10145000784869462F3802F031FFB6E073489DF8AE
:101460000020801D017862F307110170ADE0714822
:101470009DF800100F3841709DF8011011709DF813
:10148000021051709DF803100170118841809CE09A
:101490009DF8003013709DF801305370138803805D
:1014A0009DF8023013709DF803305370128842800B
:1014B0009DF804200A709DF805204A709DF80620CA
:1014C0008A709DF80720CA70096841607DE058E085
:1014D0009DF8001011709DF8011051701188018164
:1014E0009DF8021011709DF8031051701188418110
:1014F0009DF8041011709DF80510517011888181BC
:1015000063E04BE09DF8000008709DF80100487012
:101510009DF8020088709DF80300C8700868186084
:101520009DF8040008709DF8050048709DF80600BD
:1015300088709DF80700C8700868586045E09DF8FD
:10154000000008709DF8010048709DF80200887046
:101550009DF80300C870086898609DF80400087042
:101560009DF8050048709DF8060088709DF80700FA
:10157000C8700868D86028E02C499DF80000891CD4
:101580000AE02A499DF80020C91C087862F303008C
:101590009DF8012062F30710087016E023489DF8BB
:1015A0000020103002709DF8012042709DF802204A
:1015B0000A709DF803204A709DF804208A709DF8F7
:1015C0000520CA700968C0F802101B4928688842C3
:1015D00020D110AB09AA00211848FFF760FC099838
:1015E00040F20522A0F20521904208D014DC081D2B
:1015F00005D0012803D0022801D003280AD1099878
:101600000F4A401EC0B26070BDF8421002EB40109D
:1016100049BAC18013B0F0BD0129FBD1084810A917
:10162000A03002F04BFEF5E70064004028000020E7
:10163000700C0020570A002000680040980C002021
:10164000E808002070477047704770477047704740
:1016500070477047704770472DE9F0410446876D29
:1016600000F0A4FA064694F835000025022806D0BA
:101670008020606584F834500120BDE8F081206846
:10168000016821F0160101602068416921F08001A4
:101690004161206C08B9A06C20B12068016821F07C
:1016A000080101602068016821F0010101600BE080
:1016B00000F07CFA801B052806D92020606504F81C
:1016C000345F03206070D8E720680068C007EFD15E
:1016D00094F85C103F208840B86004F8345F012023
:1016E00060700020C9E700002DE9F84304464FF080
:1016F0000009CDF8009063484FF41651A56D0068BD
:10170000B0FBF1F72E6894F85C10082000FA01F1A4
:1017100031420FD021680A6852070BD50A6822F0BF
:1017200004020A6094F85C108840A860606D40F084
:101730000100606594F85C104FF0010808FA01F0B0
:10174000304208D021684969090604D5A860606D57
:1017500040F00200606594F85C100420884030423C
:1017600008D021680968890704D5A860606D40F039
:101770000400606594F85C1010208840304218D056
:1017800021680968090714D5A86020680168490321
:1017900004D50068000308D5A16C07E00168C905FD
:1017A00003D4016821F008010160216C09B12046D1
:1017B000884794F85C1020208840304231D021685E
:1017C0000968C9062DD5A86094F835000528206859
:1017D000016806D0490347D5006800031DD4616C39
:1017E0001CE021F0160101602068416921F08001B0
:1017F0004161206C08B9A06C20B12068016821F01B
:101800000801016094F85C103F208840A86084F8CB
:10181000349084F83580216D1FE0E16B09B12046DA
:101820008847606D00282BD0606DC00714D005205C
:1018300084F835002068016821F0010101600098FA
:10184000401C0090B84203D820680068C007F6D159
:1018500084F8349084F83580E16C002910D001B010
:101860002046BDE8F04308470168C905D5D40168A2
:1018700021F01001016084F8349084F83580CCE7C1
:10188000BDE8F883780000202DE9F041044600F01F
:101890008DF906465CB1002584F83450022084F8A6
:1018A00035002068016821F0010101600DE0012090
:1018B000BDE8F08100F07AF9801B052805D92020C9
:1018C0006065032084F83500F2E720680068C007EF
:1018D000F0D12268116820480140D4E9010318437F
:1018E000D4E903363343184363691843A3691843A3
:1018F000E3691843236A18430843616A042903D142
:10190000D4E90B1319430843106020684069666AE4
:1019100020F0070130460E43012704280CD1A06AAD
:101920000643E06A40B12046FFF77CF920B1402031
:10193000606584F83570BAE7206846612046FFF795
:101940005DF994F85C203F2191408160656584F8E1
:1019500035700020ACE700003F8010F02DE9F04129
:101960000446866D90F83400002501280DD0012032
:1019700084F8340094F835700020012F07D084F8E3
:10198000340002252846BDE8F0810220FBE702274B
:1019900084F8357060652046FFF76EF994F85C10A6
:1019A0003F208840B0602068016841F01601016066
:1019B0002068416941F080014161206C20B12068BC
:1019C000016841F0080101602068016841F00101EF
:1019D0000160D7E72DE9F84FDFF890B100224FF012
:1019E00001084FF0030A4FF00F090BF1040E00BF7E
:1019F0000B6808FA02F42340A3426ED14D68022D11
:101A000001D0122D0ED1D50800EB850CDCF820504A
:101A10005607F70E09FA07F6B5430E69BE402E4386
:101A2000CCF82060066855000F790AFA05FC07F02B
:101A3000030726EA0C06AF40374307604E68012EC5
:101A400005D0022E03D0112E01D0122E0ED18768A0
:101A5000CE6827EA0C07AE403E4386604668A64340
:101A60000C79C4F30014944034434460C4688E6815
:101A700024EA0C04AE402643C6604C68E4006FD5EF
:101A80003B4C256845F480452560246822F0030519
:101A900004F480440094374C2E19D6F80848950772
:101AA0002F0F09FA07F5AC43334DA84201D10025A9
:101AB0002EE0324DA84201D1012529E0304DA84247
:101AC00001D1022524E02F4DA84201D103251FE0BA
:101AD0002D4DA84202D104251AE041E02B4DA84229
:101AE00001D1052514E02A4DA84201D106250FE0B9
:101AF000284DA84201D107250AE0274DA84201D16F
:101B0000082505E0254DA84201D1092500E00A2558
:101B1000BD402543C6F80858DBF800405D464E68D6
:101B20009C43F60300D51C432C60DEF8004075464C
:101B30004E689C43B60300D51C432C600B4D083502
:101B40002C684E689C43F60200D51C432C60074D60
:101B50000C352C684E689C43B60200D51C432C60A3
:101B6000521C102AFFF444AFBDE8F88F003C01403E
:101B700044380240003001400000024000040240AE
:101B800000080240000C0240001002400014024015
:101B900000180240001C02400020024000240240C5
:101BA0000AB1816170470904FBE7000001488068C1
:101BB000704700006C0000200248816802781144E0
:101BC000816070476C0000200B4810B5016841F43B
:101BD00000710160016841F480610160016841F4B5
:101BE00080710160032000F073F80F2000F006F808
:101BF00000F024F8002010BD003C024070B50D4DEF
:101C000004464FF47A712878B1FBF0F00A4909686C
:101C1000B1FBF0F000F05CFB48B9102C07D20022B9
:101C20002146501E00F034F800206C6070BD012089
:101C300070BD00006C000020780000200C4882B0CD
:101C4000016841F480410160006800F48040009028
:101C50000748001F016841F08051016000680022C0
:101C600000F0805000900F21901E02B000F010B8DC
:101C700044380240002809DB00F01F020121914096
:101C80004009800000F1E020C0F80011704700001A
:101C9000F0B40E4B1B680C46C3F30223C3F10705D7
:101CA000042D00D90425191D072901D2002300E0C5
:101CB000DB1E012606FA05F1491E214099409E408F
:101CC000761E16403143F0BC01F03EBC0CED00E046
:101CD000064900F0070208684FF6FF03184040EA83
:101CE0000220034A10430860704700000CED00E03A
:101CF0000000FA052DE9F0470E46050065D0DFF833
:101D00001481D8F80000F7B200F00F00B04207D2FB
:101D100088F80070D8F8000000F00F00B04254D1ED
:101D200028683D4C810712D5400703D5206840F450
:101D3000E05020602878000703D5206840F4604018
:101D400020602068A96820F0F0000843206028780F
:101D5000C0072DD0304968680839012812D0022800
:101D600013D0032811D00968890700292DDA2168CA
:101D700021F0030101432160FFF718FF814641F282
:101D8000883A0EE009688903EFE709688901ECE702
:101D9000FFF70CFFA0EB0901514502D90320BDE874
:101DA000F0872068696800F00C00B0EB810FEFD17C
:101DB000D8F80010404601F00F01B14207D9077072
:101DC000006800F00F00B04201D00120E7E728785A
:101DD000400705D52068E96820F4E05008432060FA
:101DE0002878000706D52068296920F4604040EA79
:101DF000C100206000F036F82168084AC1F30311E1
:101E0000515CC840064908600F20FFF7F7FE00202C
:101E1000C5E70000003C024008380240CC590008E9
:101E2000780000200448054900680968044AC1F3A5
:101E30008221515CC8407047780000200838024079
:101E4000DC5900080448054900680968044AC1F3E0
:101E50004231515CC8407047780000200838024089
:101E6000DC590008154810B5006810F00C02144841
:101E700013D01449042A0FD0082A0ED10F4C241F66
:101E80002268236802F03F025B0207D52068C0F396
:101E90008810A0FB010106E0084610BD2168C1F3CF
:101EA0008811A1FB00010023FEF7FCF92168C1F3B2
:101EB0000141491C4900B0FBF1F010BD0838024057
:101EC0000024F400001BB7002DE9F84F050076D080
:101ED0002878DFF8F8B2BE4CC00749D0DBF8001014
:101EE0005846C1F38101012908D00068C0F3810080
:101EF00002280AD1201D0068400206D52068800310
:101F000036D568680028E2D032E06868B0F5803FD6
:101F100010D0B0F5A02F206810D020F480302060C1
:101F2000206820F4802020606868A0B1FFF73EFEA2
:101F300006460CE0206840F48030F4E740F480204E
:101F40002060F7E7FFF732FE801B642873D8206813
:101F50008003F7D50CE0FFF729FE064605E000BF39
:101F6000FFF724FE801B6428F0D820688003F7D494
:101F70002878DFF8608280074FF000093ED5DBF853
:101F80000010584611F00C0F09D00068C0F3810012
:101F900002280BD18D48001F0068400206D420683B
:101FA000800715D5E868012809D111E0E868B8B1C3
:101FB0000120C8F80000FFF7F9FD064605E002E140
:101FC000FFF7F4FD801B0228C0D820688007F7D5F2
:101FD0002068296920F0F80040EAC10020600DE087
:101FE000C8F80090FFF7E2FD064604E0FFF7DEFDCB
:101FF000801B02281FD820688007F7D428780007A4
:1020000022D5724E744869696C3671B10121016044
:10201000FFF7CCFD074604E0FFF7C8FDC01B022810
:1020200009D830688007F7D50EE0C0F80090FFF7B8
:10203000BDFD074605E083E0FFF7B8FDC01B0228A1
:102040007ED830688007F7D42878400768D5DFF855
:102050007CA100270AF1380ADAF80000C0000BD48E
:10206000DAF8001041F08051CAF80010DAF80000E8
:10207000012700F080500090584E3068C00510D401
:10208000306840F480703060FFF790FD009005E00C
:10209000FFF78CFD0099401A022851D83068C0051E
:1020A000F6D54A4EA868683601280FD00528306852
:1020B00010D020F001003060306820F00400306063
:1020C000A868B8B1FFF772FD00900FE0306840F0EB
:1020D0000100F4E740F004003060F7E7FFF766FD29
:1020E0000099411A41F28830814264D830688007F3
:1020F000F4D50EE0FFF75AFD009007E0FFF756FD1C
:102100000099411A41F28830814254D830688007E2
:10211000F4D42FB1DAF8001021F08051CAF8001081
:10212000A869C0B3DBF80010C1F3810102294AD0CD
:102130000228484607D0C8F86000FFF737FD00E0E6
:1021400039E005463AE04746C8F86000FFF72EFD43
:10215000064604E0FFF72AFD801B02282BD82068E2
:102160008001F7D4D5E907010843A96A1C4A490848
:1021700002EB01416A6A41EA8211084395F82C108A
:1021800040EA01611148001F016001203866FFF735
:102190000DFD054605E014E0FFF708FD401B022891
:1021A00009D820688001F7D50BE000BFFFF7FEFCDF
:1021B000401B022802D90320BDE8F88F2068800167
:1021C000F4D40020F8E70120F6E7000008380240C8
:1021D0000038024000004742800E47420070004035
:1021E0000000FFFF70B5040005D00025A56294F83B
:1021F000510010B106E0012070BD84F85050204617
:1022000000F030F8022084F851002068016821F0C5
:1022100040010160D4E901010843D4E903121143EC
:10222000084361690843218B01F400710843E169A7
:102230000843216A0843A16A084321680860A0692D
:10224000042101EA1040616A08432168486020685F
:10225000C16921F40061C1616565012084F8510004
:10226000002070BD10B586B0044614216846FEF704
:1022700063F814492068884221D11348002102687C
:1022800042F480120260006800F4801005900E484D
:102290001438026842F020020260006800F020005A
:1022A00005904FF4607000900220CDE901010320F9
:1022B00003900520049069460448FFF78BFB06B0A5
:1022C00010BD00000050014044380240001402409C
:1022D00010B5401EB0F1807F01D3012010BD4FF03A
:1022E000E02460610F21601701F02EF90020A06149
:1022F00007202061002010BD10B586B004461421CF
:102300006846FEF719F80E492068884215D10D4835
:102310000021026842F080020260006800F0800044
:102320000590402000900220CDE901010920CDE96F
:10233000031069460448FFF74DFB06B010BD0000CE
:102340000018004030380240001C024070B50446BE
:1023500090F83C000D4601280DD0012684F83C6021
:10236000022084F83D0042B1042A18D0082A2AD05D
:102370000C2A4DD139E0022070BD206800F00CFE1F
:102380002068816941F0080181612068816921F03C
:1023900004018161206881692A69114311E0206884
:1023A00000F02AFE2068816941F4006181612068A3
:1023B000816921F480618161206881692A6941EA2B
:1023C0000221816124E0206800F04CFE2068C16990
:1023D00041F00801C1612068C16921F00401C161B7
:1023E0002068C1692A69114311E0206800F06EFE7F
:1023F0002068C16941F40061C1612068C16921F4AC
:102400008061C1612068C1692A6941EA0221C16114
:1024100084F83D60002084F83C0070BD10B50400D5
:1024200003D094F83D0010B107E0012010BD00205A
:1024300084F83C00204600F00DF8022084F83D00AE
:10244000211D206800F044FD012084F83D0000209B
:1024500010BD000008B500680649884208D106484A
:10246000016841F040010160006800F04000009008
:1024700008BD0000001800404038024010B5044676
:102480000068416994F83920C1F3C011212A0BD1A9
:1024900051B1416921F080014161206B08B1FFF722
:1024A000DBF8204600F096FE2068416994F83A2057
:1024B000C1F38011222A0BD151B1416921F04001B1
:1024C0004161606B08B1FFF7C7F8204600F074FE69
:1024D000002010BD08B5C16B082903D10068016850
:1024E0004068009008BD70B5040004D094F839002D
:1024F000002510B106E0012070BD84F83850204658
:1025000000F022F8242084F839002068C16821F402
:102510000051C160204600F0A3FE2068016921F44B
:10252000904101612068416921F02A0141612068E0
:10253000C16841F40051C160E563202084F839008E
:1025400084F83A00002070BD2DE9F04F87B00546B1
:1025500014216846FDF7F0FE7348724BD5F800C0B1
:10256000002402220126032107154FF008094FF02D
:10257000206A4FF4807B9C4539D16B4B1033D3F8E4
:1025800000C04CF0804CC3F800C01B6803F08043CF
:102590000593036843F0100303600068CDE902610E
:1025A00000F010000590C801CDE90002CDF81090B0
:1025B00069465E48FFF70EFA5E4E5D483060C6E938
:1025C00001A4C6E903477461C6E9064B346230468C
:1025D0007462FFF759F908B1FEF7EFFB6E63002252
:1025E00005215220B563FFF753FB522055E04E4BB7
:1025F000DFF844811433C44554D1D3F800C04CF003
:10260000100CC3F800C01B6803F0100305930368A7
:1026100043F002030360036803F0020305930368B9
:1026200043F0010303600068884600F00100059054
:102630008020CDE900020DF1080B4FF0070A8BE86E
:102640004005914669463D48FFF7C4F94FF40070D4
:10265000CDE900098BE8400569463948FFF7BAF92A
:10266000344E3848603630604FF00060C6E90104EF
:10267000C6E903477461B461F46134623046746240
:10268000FFF702F908B1FEF798FB6E6300220521FF
:102690002520B563FFF7FCFA2520FFF7EBFA07B01A
:1026A000BDE8F08FDFF8A080C445F8D1D3F800C0B2
:1026B0004CF0200CC3F800C01B6803F02003059306
:1026C000036843F0400303600068CDE9026100F055
:1026D000400005904FF48440CDE90002CDF8109001
:1026E00069461A48FFF776F9124E1648C036183870
:1026F0003060C6E901A4C6E903477461C6E9064B28
:10270000346230467462FFF7BFF808B1FEF755FB3C
:102710006E63002205214720B563FFF7B9FA472011
:10272000BBE7000000780040303802400010024053
:10273000586002406C10002000100140000402406C
:1027400000000240406402400014014000180240B2
:10275000F8B5044690F83A0020283CD1C1B3BAB38A
:1027600094F83800012836D0012084F83800A1629E
:10277000A2850025E563222084F83A00636B1748A0
:10278000D863636B16481864636B1648D864606B33
:10279000134605650846666B216802463046091DEA
:1027A000FFF7DCF8206801684168009184F8385030
:1027B000C16841F48071C1602068416941F0010144
:1027C00041612068416941F0400141610020F8BD4C
:1027D000FFE70120FBE70220F9E700007331000862
:1027E000AF3100082931000870477047FEE700004C
:1027F000104810B50E4901600321416000214FF4DB
:1028000000228160C0E903124FF440124261017658
:10281000012242768176C17601774177FEF7B1FCDD
:10282000002803D0BDE81040FEF7C7BA10BD000075
:1028300000640040700C0020104810B50E49016083
:102840000321416000214FF400228160C0E903129E
:102850004FF4401242610176012242768176C176C0
:1028600001774177FEF78DFC002803D0BDE81040CA
:10287000FEF7A3BA10BD000000680040980C0020CD
:10288000154808B5016841F480010160016801F450
:1028900080010091016841F400110160006800228C
:1028A00000F40010009005210E20FFF7F1F90E2032
:1028B000FFF7E0F9002205213920FFF7E9F9392077
:1028C000FFF7D8F9002205213A20FFF7E1F9BDE82A
:1028D00008403A20FFF7CEB93038024010B5A4B016
:1028E0001C221C496846FDF70EFD0021684602F0D7
:1028F000BAF8194C17491C2220601C3107A8FDF7B3
:1029000002FD002107A802F0AEF8124960601C2207
:1029100038310EA8FDF7F7FC00210EA802F0A3F84D
:102920000C49A0601C22543115A8FDF7ECFC0021D5
:1029300015A802F098F80749E0601C2270311CA825
:10294000FDF7E1FC00211CA802F08DF8206124B005
:1029500010BD000038590008580000202DE9F04F44
:1029600087B014216846FDF7E7FC4C480024016855
:1029700041F010010160016801F01001059101684A
:1029800041F002010160016801F002010591016856
:1029900041F040010160016801F0400105910168CA
:1029A00041F008010160016801F00801059101682A
:1029B00041F480710160016801F480710591016842
:1029C00041F001010160016801F001010591016818
:1029D00041F080010160016801F08001059101680A
:1029E00041F0200101600068DFF8B48000F02000B1
:1029F00040F604050590002229464046FFF7D0F82E
:102A0000DFF8A09042F2FE16002231464846FFF75A
:102A1000C7F8DFF894B000223C215846FFF7C0F811
:102A2000DFF888A044F24007002239465046FFF7FD
:102A3000B7F800950125CDE9015469464046039455
:102A4000FEF7C8FF0096CDE9015469464846039455
:102A5000FEF7C0FFCDE90054694615480295FEF720
:102A6000B9FF3C200090CDE90154694658460394D3
:102A7000FEF7B0FF0097CDE9015469465046039434
:102A8000FEF7A8FF4FF4C0508DE831006946584664
:102A9000FEF7A0FF07B0BDE8F08F0000303802401D
:102AA0000010024000180240001C024000140240C6
:102AB00000200240104810B50E4901604FF48271A9
:102AC000416000218160C1604FF400720161C0E982
:102AD00005123022C0E90721416281620A21C162E8
:102AE000FFF780FB002803D0BDE81040FEF765B972
:102AF00010BD000000500140140F002010B588B038
:102B00001C216846FDF718FC10480F490024C0E955
:102B100000148460C46004618461FFF77FFC08B125
:102B2000FEF74BF96020CDE90004029400226946CB
:102B300006480494FFF70AFC08B1FEF73EF9034883
:102B4000FFF7DAFB08B010BD001800406C0F002042
:102B50000C4810B50A4901604FF4E1314160002191
:102B600081600C22C160C0E904128161C161FFF77C
:102B7000BAFC002803D0BDE81040FEF71EB910BD16
:102B800000780040AC0F00200D4810B50B490160E3
:102B90000C49416000214FF480628160C0E903125A
:102BA0000422C0E90521C161FFF79DFC002803D084
:102BB000BDE81040FEF701B910BD00000010014053
:102BC000EC0F0020A08601000C4810B50A490160F6
:102BD0004FF4E1314160002181600C22C160C0E905
:102BE00004128161C161FFF77EFC002803D0BDE8BB
:102BF0001040FEF7E2B810BD001401402C10002078
:102C0000FEE7704701EE901AF8EE611AC0ED031A64
:102C100001EE902AF8EE611AC0ED0A1A80EC030A60
:102C20007047F0B514460E460746FEF7C7F8034650
:102C3000384600F0B9F80146002002E03A5C325410
:102C4000401C9842FADB0025F554581C06E0A0EB26
:102C5000030C3A5CA444401C0CF8012C8842F6DBBF
:102C600065545B1C04D131463846FDF791FF257051
:102C7000F0BD00002DE9F04106462DED088B4FF028
:102C800000089FED438B4446B0EE489AF0EE689AF8
:102C9000305D58B1A0F130010A2903D32E2801D0AC
:102CA0002D2803D1641CE4B20A2CF1D3002504E0E2
:102CB000705D2E2803D06D1CEDB2A542F8D300271D
:102CC0009FED35AB15E0F05D2D2818D03038FDF7BD
:102CD000C6FC41EC1B0B53EC1A2B51EC190BFDF706
:102CE000DDFB53EC1B2BFDF732FB41EC190B7F1C7A
:102CF000FFB2AF42E7D37F1CFDB22F4618E04FF082
:102D00000108F4E7705D30380A2813D2FDF7A7FCFC
:102D100041EC1B0B53EC1A2B51EC180BFDF7BEFBCF
:102D200053EC1B2BFDF713FB41EC180B6D1CEDB2A4
:102D3000A542E7D300259FED1AABE41B0AE000BFD4
:102D400053EC1A2B51EC180BFDF7A8FB41EC180BB8
:102D50006D1CEDB2AC42F3DC53EC182B51EC190BAB
:102D6000FDF7F5FA41EC100BB8F1000F05D051EC6E
:102D7000100B81F0004141EC100B51EC100BFDF7F2
:102D800092FCBDEC088B00EE100ABDE8F08100005B
:102D900000000000000000000000000000002440CF
:102DA0009A9999999999B93F014600200A5C401C6B
:102DB000002AFBD1401E704770B50B46074C04E05B
:102DC000E618C55C761A5B1C35709342F8DB002070
:102DD0002244511A0870014870BD000048050020C7
:102DE00010B5FEF7E9FE02F0C5FC012803D0BDE8EE
:102DF000104002F051BC10BD30B593B03021684690
:102E0000FDF79AFA14210CA8FDF796FA1948002547
:102E1000016841F080510160006800F0805011901D
:102E20001548016841F4404101600068022400F443
:102E30004040119001200090000401908001CDE9F4
:102E4000064006200890A820CDE9090404200B9034
:102E50006846FFF739F80CA90F2081E831004FF4DC
:102E6000A0500F90E002109005210CA8FEF742FF41
:102E700013B030BD40380240007000401048016877
:102E800041F4700101600F48016841F001010160E7
:102E90000C4A00210832116002680B4B1A40026094
:102EA000031D0A4A1A60026822F480220260054863
:102EB0000C300160024958068039086070470000F4
:102EC00088ED00E000380240FFFFF6FE10300024DD
:102ED000F0B50268254C264D264E274F274B4FF064
:102EE000804CA04209D0604507D0A84205D0B0422E
:102EF00003D0B84201D0984204D122F0700E4A6843
:102F000042EA0E02A0421BD0604519D0A84217D059
:102F1000B04215D0B84213D0984211D0184DA842F3
:102F20000ED0184DA8420BD0174DA84208D0174D0F
:102F3000A84205D0164DA84202D0164DA84203D192
:102F400022F44075CA682A434D6922F080022A4360
:102F500002608A68C2620A688262A04201D0984216
:102F600001D10969016301214161F0BD0000014007
:102F70000004004000080040000C00400004014034
:102F8000004001400044014000480140001800405A
:102F9000001C004000200040F0B5026A22F001024F
:102FA0000262036A42688469124E24F073050C6859
:102FB0002C4323F002058B682B430D4DA84201D012
:102FC000B04205D123F00807CB683B4323F004034C
:102FD000A84201D0B04205D14D6922F44072154398
:102FE0008A692A4342608461496841630362F0BD93
:102FF0000000014000040140F0B5026A22F0100216
:103000000262026A436884690D6824F4E64444EA73
:1030100005248D6822F0200242EA05120F4D104E61
:10302000A84201D0B04206D1CF6822F0800242EA25
:10303000071222F04002A84201D0B04207D14D69E8
:1030400023F4406343EA85038D6943EA85034360C3
:103050008461496881630262F0BD000000000140A4
:1030600000040140F0B5026A22F480720262026A32
:103070004368C46922F4007224F073050C68124E90
:103080002C438D6842EA05220E4DA84201D0B04281
:1030900006D1CF6822F4006242EA072222F480625D
:1030A000A84201D0B04207D14D6923F4405343EA0E
:1030B00005138D6943EA05134360C4614968C16320
:1030C0000262F0BD000001400004014030B5026A18
:1030D00022F480520262046A4268C3690D6823F4D4
:1030E000E64343EA05238D6824F4005444EA05349A
:1030F000084DA84202D0084DA84204D14D6922F4DF
:10310000804242EA85124260C361496801640462F8
:1031100030BD00000000014000040140014800F003
:1031200063B80000AC0F002070B5846B2068406964
:1031300094F83910C0F3C0100025212904D118B12A
:10314000E584204600F046F82068406994F83A107B
:10315000C0F38010222904D118B1E585204600F083
:103160002BF8E06B40F01000E0632046FFF7B2F967
:1031700070BD10B50146806B09680968C90513D494
:103180000021C1850168CA6822F48072CA600168A2
:103190004A6922F001024A6101684A6922F040024C
:1031A0004A61202180F83A10FFF71EFB10BD10B5D0
:1031B000806BFFF71AFB10BD0168CA6822F4907299
:1031C000CA6001684A6922F001024A61202180F840
:1031D0003A1070470168CA6822F0C002CA60202114
:1031E00080F839107047000038B504460068164969
:1031F000884210D1154800680168C943C9060AD43D
:103200000168406800901148FFF738F91222104910
:103210000E48FFF79DFA0F492068884212D10E48E8
:1032200000680168C943C9060CD401684068009071
:103230000948FFF723F9BDE838400122074906484D
:10324000FFF786BA38BD000000100140EC0F0020E7
:10325000F4000020001401402C100020750A00200A
:103260002DE9F041044600680169E26821F440510B
:10327000114301612169A068E26908436169114352
:1032800022680843D16849F20C6399430143D16035
:1032900020684169A26921F4407111434161E269EA
:1032A0006425B2F5004F9748974922684FF03208DD
:1032B0003FD08A4201D082427CD1FEF7C3FD00EBB1
:1032C000C00101EB001061688900B0FBF1F6FEF768
:1032D000B9FD00EBC00101EB001061688900B0FB93
:1032E000F1F0B0FBF5F06FF01801484306EB8001F8
:1032F00008EB0110B0FBF5F000F0F006FEF7A2FDC0
:1033000000EBC00101EB001061688900B0FBF1F037
:10331000B0FBF5F006EB0016FEF794FD00EBC001E4
:1033200001EB001061688900B0FBF1F7FEF78AFD40
:10333000D2E08A4201D082423DD1FEF783FD00EB0C
:10334000C00101EB001061684900B0FBF1F0B0FB77
:10335000F5F00601FEF776FD00EBC00101EB001071
:1033600061684900B0FBF1F7FEF76CFD00EBC001AE
:1033700001EB001061684900B0FBF1F0B0FBF5F023
:103380006FF01801484307EB800108EBC100B0FB68
:10339000F5F000F0F80006EB4006FEF753FD00EBF9
:1033A000C00101EB001061684900B0FBF1F7FEF7C6
:1033B00049FD3CE055E0FEF735FD00EBC00101EBB7
:1033C000001061684900B0FBF1F0B0FBF5F00601B8
:1033D000FEF728FD00EBC00101EB00106168490019
:1033E000B0FBF1F7FEF71EFD00EBC00101EB001092
:1033F00061684900B0FBF1F0B0FBF5F06FF0180127
:10340000484307EB800108EBC100B0FBF5F000F08A
:10341000F80006EB4006FEF705FD00EBC00101EBEE
:10342000001061684900B0FBF1F7FEF7FBFC00EB10
:10343000C00101EB001061684900B0FBF1F0B0FB86
:10344000F5F06FF01801484307EB800108EBC1006D
:10345000B0FBF5F000F00700216830448860BDE85B
:10346000F081FEF7DFFC00EBC00101EB00106168AA
:103470008900B0FBF1F6FEF7D5FC00EBC00101EBD3
:10348000001061688900B0FBF1F0B0FBF5F06FF05F
:103490001801484306EB800108EB0110B0FBF5F082
:1034A00000F0F006FEF7BEFC00EBC00101EB0010DF
:1034B00061688900B0FBF1F0B0FBF5F006EB001697
:1034C000FEF7B0FC00EBC00101EB00106168890061
:1034D000B0FBF1F7FEF7A6FC00EBC00101EB00101A
:1034E00061688900B0FBF1F0B0FBF5F06FF01801F6
:1034F000484307EB800108EB0110B0FBF5F000F04A
:103500000F00A9E700140140001001400148FFF737
:103510006BBE0000EC0F00200148FFF765BE000005
:103520002C100020FEE700000FB4054B10B503A9D6
:10353000044A029800F0DAF810BC5DF814FB0000B1
:10354000ED430008DC0000200907090E002804DB19
:1035500000F1E02080F80014704700F00F0000F147
:10356000E02080F8141D704702E008C8121F08C14F
:10357000002AFAD170477047002001E001C1121FF4
:10358000002AFBD1704700002DE9FF5FDDE9022032
:10359000010DDDF838B0024318D044F61050A1F206
:1035A000FF3141430D140F98012820D0A5EB0B00EB
:1035B000401C5FEA000A4FF00004474EDFF81C9100
:1035C000A046504616D5CAF1000728E00F980124FE
:1035D00043A2012808D0002100980F9BC0E90021D8
:1035E000C0E90243BDE8FF9F6FEA0B01F4E7CBF1AE
:1035F0000000DEE7074612E0F80707D02246334610
:1036000040464946FCF74AFF8046894622463346F3
:1036100010461946FCF742FF04460E467F10002F65
:10362000EAD1DDE90201BAF1000F42464B4602DA67
:10363000FCF734FF01E0FCF7A3FF04460E4600222E
:10364000284BFDF73FF903D84FF0FF30014607E064
:103650000022254B20463146FCF779FEFDF71AF98A
:10366000102409E0002C0ADB0A220023FCF71AFED2
:10367000019B30321A55641E50EA0102F2D1641CDB
:10368000019AC4F1110314440F9A012A03D00122B4
:1036900008430DD10AE0084304D000204FF0110B7D
:1036A0000F9080E7A3EB0B056D1E0DE05B4504DD7D
:1036B0004FF0000205F1010504E003DA4FF00002CB
:1036C000A5F10105002AECD000980F99C0E902315C
:1036D000C0E9004586E70000000024400000F03FFC
:1036E000300000000000F0430000E03F2DE9FF4FF4
:1036F00095B09B468946064600250FE2252877D1DE
:1037000000242746F84A0121059400E0044316F8F6
:10371000013F203B01FA03F01042F7D130782A280C
:1037200011D06FF02F033078A0F13002092A16D89B
:10373000059A44F0020402EB820203EB42021044B9
:10374000761C0590EFE759F8042B0592002A03DA5E
:10375000504244F40054059044F00204761C307842
:103760002E2816D116F8010F44F004042A280DD093
:103770006FF02F023078A0F13003092B09D807EB46
:10378000870302EB4303C718761CF3E759F8047B61
:10379000761C30786C280FD006DC4C2817D06828AF
:1037A0000DD06A2814D104E0742810D07A280FD1E3
:1037B0000DE044F400140AE044F4801401E044F401
:1037C00040147278824202D104F58014761C761C73
:1037D000307866280BD013DC582877D009DC002815
:1037E00075D04528F6D04628F4D047281AD19DE157
:1037F00018E0632835D0642879D0652812D195E186
:10380000702873D008DC6728F1D069286FD06E2843
:103810000DD06F2806D1B5E073282CD0752875D04F
:10382000782874D05A46179990476D1C75E1C4F3F7
:103830000250022809D003280DD0D9F8001004281E
:103840000DD00D6009F1040967E1D9F80010EA17FD
:10385000C1E90052F6E7D9F800100D80F2E70D70CB
:10386000F0E719F8041B8DF8001000208DF8010016
:10387000EA46012003E059F804AB4FF0FF3061073E
:103880004FF0000102D40DE008F101018846B94271
:103890000FDA8045F8DB1AF808100029F4D108E0A7
:1038A00008F1010188468142FADB1AF80810002964
:1038B000F6D105985B46A0EB080721463846179AD3
:1038C00000F094FA284400EB080507E04DE029E1F8
:1038D0000DE01AF8010B5A4617999047B8F1010804
:1038E000F7D25B4621463846179A13E142E00A2296
:1038F0000092C4F302524FF0000A022A08D059F88D
:1039000004CB032A4FEAEC710AD00DE029E02AE04B
:1039100009F1070121F00702F2E802C1914609E02E
:103920000FFA8CFC4FEAEC71042A03D14FFA8CFC9D
:103930004FEAEC71002907DA0A460021DCF1000C9D
:1039400061EB02012D2202E0220504D52B228DF825
:103950000420012203E0E20701D02022F7E790468D
:1039600059E00A2102E010220DE010214FF0000A78
:1039700000910BE010224FF0000A44F004040827E5
:10398000009203E008224FF0000A0092C4F30252B2
:10399000022A05D059F804CB0021032A08D009E0F7
:1039A00009F1070121F00702F2E802C1914605E0A2
:1039B0001FFA8CFC042A01D10CF0FF0C4FF0000818
:1039C000220728D5702806D0009B83F0100353EA05
:1039D0000A0305D00EE040228DF80420012208E001
:1039E0005CEA010206D030228DF804208DF8050033
:1039F00002229046009B83F0080353EA0A030AD18F
:103A00005CEA010201D1620705D530228DF804205D
:103A10004FF001087F1E582804D034A003900EA850
:103A200002900DE036A0F9E753466046009AFCF795
:103A300039FC84460398825C0298401E0290027012
:103A40005CEA0100F0D1029806A9081A00F1200AE8
:103A5000600702D524F4803400E00127574502DDD9
:103A6000A7EB0A0000E0002000EB0A010090059897
:103A70004144401A0590E00306D45B462146179A5C
:103A8000059800F0B3F90544002706E001A85A465E
:103A9000C05D179990476D1C7F1C4745F6DBE0031E
:103AA0000CD55B462146179A059800F09FF905440E
:103AB00004E030205A46179990476D1C0099481E23
:103AC00000900029F5DC08E0029802995A46007837
:103AD000491C0291179990476D1CBAF10001AAF197
:103AE000010AF1DC65E100000928010030313233C0
:103AF000343536373839616263646566000000002A
:103B00003031323334353637383941424344454613
:103B10000000000000F058F90544761C30780028B9
:103B20007FF4ECAD19B02846BDE8F08F620700D4F1
:103B3000062709F1070222F0070CFCE80223E14600
:103B400003F000485FEA080C02D00FF2702C0DE081
:103B50005FEA045C02D50FF2682C07E05FEAC47CE0
:103B600002D00FF2602C01E0AFF2700C4FF0FF3882
:103B700023F00043CDF850C065280CD006DC452862
:103B800009D046281DD047283DD13DE0662818D0F1
:103B900067287ED138E00021112F01DB112000E0E1
:103BA000781CCDE9000106A90EA8FFF7EDFCDDE9C0
:103BB0000F010E9A03910021009207F1010A04916E
:103BC0004DE04FF000400097CDE9011006A90EA886
:103BD000FFF7DAFCDDE90F0203920E9B1199002238
:103BE000DDF80CA00093049211B9791C00EB010AD6
:103BF000B7EB0A0004D4C0F1FF3007F1010A0490CA
:103C0000AAEB0700019044E0012F00DA0127002110
:103C1000112F01DD112000E03846CDE9000106A991
:103C20000EA8FFF7B1FCDDE90F010E9A0391002108
:103C300004910092BA4621070CD40399514500DA49
:103C40008A46BAF1010F05DD009AAAF10101515C23
:103C5000302908D0B84202DA10F1040F06DA012147
:103C6000CDE9011015E0AAF10101E9E7002805DC22
:103C7000049901440491AAEB000102E0411C514562
:103C800000DD8A460499401A401C01904FF0004024
:103C90000290200704D40198504501DBCDF8048040
:103CA00000208DF84F0002980DF14F07B0F1004F42
:103CB00025D02B200E9002984FF0020800280CDA35
:103CC000404202902D200E9007E00A210298FCF756
:103CD00006FD3031029007F8011DB8F10001A8F18E
:103CE0000108F2DC02980028EFD1791E0E980870C6
:103CF000307800F0200040F0450007F8020D12A8CF
:103D0000C01B00F107081498007800B1012000EBF7
:103D10000A01019801EBE07105984144401A401EE8
:103D20000590E00306D45B462146179A059800F0FB
:103D30005DF805441498007818B15A4617999047D1
:103D40006D1CE00324D55B462146179A059800F0C8
:103D50004DF805441CE00498002807DBDDE9030169
:103D6000884203DD0098405C179901E017993020E4
:103D70005A469047049805F10105401C04900198AB
:103D8000401E019004D12E205A46179990476D1C71
:103D9000BAF10001AAF1010ADDDC05E017F8010B18
:103DA0005A46179990476D1CB8F10001A8F1010817
:103DB000F4DC5B462146179A0598ABE62D0000001F
:103DC0002B000000200000002DE9F04104460025F2
:103DD0001E461746880404D405E039462020B04723
:103DE0006D1C641EF9D52846BDE8F0812DE9F0412F
:103DF000044600251E469046C80301D5302700E042
:103E00002027880404D505E041463846B0476D1C9C
:103E1000641EF9D52846BDE8F08100001E4810B5A3
:103E200090ED050A90F83720B0F91C10BDEEC00ADD
:103E300010EE100A00B200F0BFF918491648B1F9A7
:103E40000220D0ED040A00EE102AB8EEC01A9FED51
:103E5000140A41EE000AC0ED000AB1F9002000EE9C
:103E6000902AF8EEE00A60EE800AC0ED010AB1F98E
:103E7000041000EE901AF8EEE00A20EE800ADFED62
:103E8000090A20EE201A80ED021A90EC020A2A306C
:103E9000BDE8104000F068BCF40A0020E0000020FB
:103EA00085EB41419A99993F2DED028B82B0DFF865
:103EB000E8803A4EDFF8E89001F06AFC019001F0EA
:103EC000EFF9FFF7ABFF002408EB441009EB4407C0
:103ED000B0F9060000EE100AB7F92A00F8EEC00AA1
:103EE00000EE100A04EB840000EBC40006EB800532
:103EF000B8EEC00A284600F0E1FD95ED050A641C05
:103F0000062CBDEEC00A10EE100AF883DCDB99F82F
:103F100036004D4600BB9FED238A0024474643F6FA
:103F2000982A41F2707B00BF07EB44102021FCF778
:103F300003FAB0EE480A04EB840000EBC40006EB81
:103F40008000B0EE401AF0EE400A52465946FEF7A5
:103F500059FE641C062CE7DBB5F924000090B5F986
:103F60002230B5F92020B5F91E104FF4007001F091
:103F7000FDF8002000900346B5F92820B5F9261079
:103F800040F2FF1001F0F2F801F0AAF9052101A8B2
:103F900000F051FD90E70000E8080020DC0200205E
:103FA000F40A0020000000002DE9F0472DED028BFF
:103FB00084B082466CA1FCF7D3FD00284ED16BA1E2
:103FC0005046FCF7CDFD0028F8D169A15046FCF71A
:103FD000C7FD0028F2D167A15046FCF7C1FD0028BB
:103FE000ECD165A15046FCF7BBFDDFF890819FED59
:103FF000648BD0B1D8F80400FCF742FB53EC182BCB
:10400000FCF7A5F9FCF74FFB8146C8F80400D8F887
:104010001400FCF735FB06460F46D8F81000FCF7F5
:104020002FFB04460D4648460DE057A15046FCF7CD
:1040300097FDA0B1D8F81000FCF722FB53EC182B29
:10404000FCF785F950E0FCF71BFB8DE8F00041EC34
:10405000100B4EA053EC102BFFF766FA7DE050A139
:104060005046FCF77DFD40B1D8F81400FCF708FB82
:1040700053EC182BFCF76BF950E04AA15046FCF7C3
:104080006FFD20B3D8F80400FCF7FAFA53EC182BB4
:10409000FCF7FEF9FCF707FB8146C8F80400D8F8E6
:1040A0001400FCF7EDFA06460F46D8F81000FCF7AE
:1040B000E7FA04460D464846FCF7E2FA8DE8F000C0
:1040C00041EC100B31A053EC102BFFF72DFA36A169
:1040D0005046FCF745FDA0B1D8F81000FCF7D0FA27
:1040E00053EC182BFCF7D4F9FCF7DDFA0446C8F8BA
:1040F0001000D8F81400FCF7C3FA06460F46204615
:1041000016E02AA15046FCF72BFDC0B1D8F81400E8
:10411000FCF7B6FA53EC182BFCF7BAF9FCF7C3FA24
:10412000C8F81400FCF7ACFA06460F46D8F81000A1
:10413000FCF7A6FA04460D46D8F8040083E71CA154
:104140005046FCF70DFD002808D09FED1A0A88EDB7
:10415000010A88ED040A88ED050A002004B0BDECD0
:10416000028BBDE8F08700006100000062000000E3
:1041700063000000640000007500000000000020E3
:104180009A9999999999A93F69000000503D25662F
:104190002020493D25662020443D25660D0A00006B
:1041A0006F0000006A0000006B0000006C0000005F
:1041B0007000000000000000164800212AB1012A0A
:1041C00014D0022A0CD1418309E0428B521C92B2D6
:1041D0004283037E2BB9A02A03D3418301210176B8
:1041E0007047B2F5A07FFBD3418370470A49437EF5
:1041F0004FF0824291ED2B0AB0EEC00A10EE101A79
:104200001BB19142F1DC002102E09142EDDC012181
:1042100041767047F40A00200801002000F09AF867
:10422000FCE70000204E08B50122D1023046FDF720
:10423000B7FC0122DFF87480970339464046FDF74A
:10424000AFFC00F004FCBA461B4FB346184D4FF0CC
:104250000009184C184E0837CDF80000FDF7A6FCF1
:104260002968401A6860FDF7A1FC286000F030FB67
:10427000206838B10122D1025846FDF791FC00F0C8
:10428000B7FA06E0A4F8AC90002251464046FDF78C
:1042900087FCB4F8AA003060B4F8AC003860322172
:1042A000684600F0C8FBD9E7001002400014024045
:1042B000480000202C0B00202C0400400388438081
:1042C000827FDFED1B0A4AB10A8852BAD31A0280F4
:1042D000B3F5805F12DDC3685B1E14E001228277B4
:1042E0000022C260098849BA00EE101A8183B8EE34
:1042F000400A80EE201A80ED061A704713F5805FA1
:10430000C36801DA5B1CC36002EB4332838BD21AB1
:1043100000EE102A0261B8EEC00A80EE201A80ED8D
:10432000051A4A8852BAC280498849BA0181704741
:10433000610BB641B4EEE00AF1EE10FA02D2B0EE33
:10434000600A7047B4EEC10AF1EE10FAF9DDB0EE82
:10435000410A70472DE9F0410024A0B200F03CF87A
:10436000E01CC11700EB517121F00701451AA8B2FA
:1043700000F032F8A01CC11700EB517121F00701C9
:10438000461AB0B200F028F8601CC11700EB51715A
:1043900021F00701471AB8B200F01EF8502000F0D3
:1043A00043FBA0B200F00EF8A8B200F00BF8B0B2D8
:1043B00000F008F8B8B200F005F8641C072CCCDD5A
:1043C000BDE8F0814FF48071C14001220148FDF742
:1043D000E7BB0000001802404FF48071C14000228A
:1043E0000148FDF7DDBB00000018024004490A68DF
:1043F0005206FCD5024AC1B2121D1160704700007E
:10440000001401402DE9F843484C494DB4F9060029
:1044100000EE100AB5F90800F8EEC00A00EE100A26
:104420004448B8EEC00A00F049FBB4F9260000EE9B
:10443000100AB5F90800F8EEC00A404200EE100A72
:104440003C48B8EEC00A343000F038FB3A4CB5F9BD
:10445000080094ED050AD4ED060A70EE600A00EE3D
:10446000100A3648B8EEC00A00F028FBB4F906007E
:10447000324D00EE100A3248F8EEC00A95ED050AFA
:10448000804600F01BFB2B480027009790ED120A96
:104490002B4EBDEEC00A343E10EE101A90ED050A08
:1044A0000BB2BDEEC00A10EE100A96ED120A02B26F
:1044B000BDEEC00A10EE100A01B24FF4007000F019
:1044C00079FE95ED390AD5ED460AB4F9260030EEAD
:1044D000200A00EE900A4046F8EEE00A00F0EEFAFC
:1044E00095ED1F0AD5ED2C0AB4F9460030EE200AEE
:1044F00000EE900A06F16800F8EEE00A00F0DEFA3D
:10450000009796ED1F0A0023BDEEC00A10EE100AB8
:1045100096ED120A02B2BDEEC00A10EE100A01B208
:1045200040F2FF1000F046FEBDE8F883A809002025
:10453000640C002014040020E80900200801002079
:104540007402002070B505462DED028B0C46B0F9C3
:104550000A00FCF784F89FED2B1B53EC112BFBF7A3
:104560009DFF41EC180BB5F90600FCF778F89FEDBC
:10457000271B53EC112BFBF791FF53EC182BFBF788
:10458000E6FEFCF790F800EE100AD4ED000A9FED6D
:10459000211A30EE200ADFED200A84ED000AFFF731
:1045A000C9FE84ED000AB5F90C00FCF758F89FED40
:1045B0001B1B53EC112BFBF771FF41EC180BB5F9EA
:1045C0000400FCF74CF89FED171B53EC112BFBF785
:1045D00065FF53EC182BFBF7BAFEFCF764F800EE0E
:1045E000100AD4ED010A9FED111A30EE200ADFED1A
:1045F000100A84ED010AFFF79DFE84ED010ABDEC6F
:10460000028B70BD7B14AE47E17A843FFCA9F1D2E6
:104610004D62603F00C0DF4500C0C14592CB7F487E
:10462000BF7D5D3F4DDBBFB2D2A4443F00007A4561
:104630000000FA442DE9084001F0AAF8009000F0CB
:104640002FFE06490648FFF77DFFFFF7DBFE00F06F
:1046500047FE0521684600F0EEF9EDE7640C002006
:10466000E000002001A0FEF75FBF0000476F310DA2
:104670000A000000EFF30580002800D001207047F9
:104680002DED028B82B0234E234D244C9FED248AC6
:104690004FF0030A01274FF000094FF002084FF0D6
:1046A000070B00BF01F074F8009000F0F9FD307ABC
:1046B00001280AD0022802D0032807D102E085F899
:1046C00000A003E085F8009000E02F70287840B14A
:1046D000012809D0022809D0032807D184F8369090
:1046E00004E084F8368001E084F836B094F83600AF
:1046F000082807D2DFE800F00606060606060604CC
:1047000084ED048A00F0ECFD0521684600F093F981
:10471000C8E70000E000002050000020F40A00205C
:1047200000803B45FDF750FAFEF766FBFEF716F9F1
:10473000FEF7A6F8FEF75CF8FEF77EF8FEF7BAF98A
:10474000FEF7DCF9FEF704FAFEF71EFAFEF73CFA74
:10475000FEF7C4F800F076F9FEE701460020842950
:1047600000D0C81C7047000070EE201A70EE600A7E
:10477000B0EE003A1D4931EE812A70EEC12A41EEB9
:10478000030A41EE431A30EE013A30EE410ABDEE23
:10479000C21AC1ED020AC1ED031A81ED043A81ED9E
:1047A000050AFDEEE00A81EC022A11EE101AB1EEC4
:1047B000621A0180BDEEC11AB1EE400A11EE101A64
:1047C000BDEEC00A418010EE901AF1EE610A8180C0
:1047D000FDEEE00A10EE901AFDEEC30AC18010EE65
:1047E000901A018110EE101A41817047DC0A0020F6
:1047F0002DE9F041334C0025B4F8A800401C80B2EC
:10480000A4F8A8003C2801D9A4F8A85022792E4E7B
:104810002E484FF4C8774FF40061112A50D2DFE8D8
:1048200002F04F394F2E2E2E2E094F4F1B1B1B25EA
:104830004F252500B4F8A820012A02D0326855631C
:1048400034E00022FDF7ACF90DE000BFFDF7A8F958
:10485000A4F8AC50BDE8F081B4F8A820012A27D014
:10486000072A25D022E030684763F3E7B4F8A82090
:10487000012A1DD0072A1BD00D2A19D016E0B4F842
:10488000A820012A14D0072A12D00D2A10D0132AEA
:104890000ED00BE0B4F8A820012A09D0072A07D0CF
:1048A0000D2A05D0132A03D0192A01D00122CDE701
:1048B0000022FDF775F934F8AA0F40086080D2E7AE
:1048C0000022C3E72C0B00206C0F002000100240D8
:1048D0002DE9F0414FF00008464601254746134CAC
:1048E000FDF764F904EBC501CA689388C01A80B269
:1048F00050800A7A72B1CA68128890420AD901209F
:104900004872887A761C404505DD08312160804672
:10491000257100E04F726D1CEDB2102DE0D9002E14
:1049200001D127602771BDE8F08100002C0B002029
:104930002DE9FF41174D95ED020B51EC100BFBF7E4
:10494000B2FE154E8046706095ED040B51EC100BD5
:10495000FBF7A9FEB06095ED060B044651EC100B79
:10496000FBF7A1FEF060FBF78BFE06460F462046E4
:10497000FBF786FE04460D464046FBF781FE8DE8B8
:10498000F00041EC100B05A053EC102BFEF7CCFD12
:10499000BDE8FF81B005002000000020504F3A25FF
:1049A0006620494F3A256620444F3A25660D0A0095
:1049B00070B50C4C94ED020B51EC100BFBF773FE31
:1049C000094D286194ED040B51EC100BFBF76BFEC5
:1049D000686194ED060B51EC100BFBF764FEA861C7
:1049E00070BD0000B00500200000002070B50C4C28
:1049F00094ED020B51EC100BFBF755FE094DE861ED
:104A000094ED040B51EC100BFBF74DFE286294ED76
:104A1000060B51EC100BFBF746FE686270BD000000
:104A2000B00500200000002010B500B9012000F002
:104A3000D5FC002010BD10B501B9012100F0F4FC37
:104A4000002010BD10B500F035FD002010BD10B5E0
:104A5000FFF710FE18B1BDE8104000F09FBEBDE8A2
:104A6000104000F095BE7FB50D4604464169B0F98F
:104A7000080081B1A16971B1FFF76FFED4E9051299
:104A80008DE80700D4E900102B46226900F047FEAC
:104A9000039004B070BDFFF760FE03A9CDE90001EB
:104AA000208A2B4682B2D4E9001000F00BFE0128C8
:104AB00001D00020EDE70398EBE7000010B50446B5
:104AC0002DED0A8B30EE608A30EE600A80ED048AAC
:104AD00080ED078A90ED0B9AD0ED089AF0EEC08A2F
:104AE000B5EEC09AF1EE10FA06D1B0EE480A39EEF2
:104AF000800A84ED080A39E0B0EEC90AF4EEC08AF3
:104B0000F1EE10FA32D2B0EE480A10EE100AFBF7BE
:104B1000B7FD41EC1B0B19EE100AFBF7B1FD41ECA0
:104B20001A0BB0EE680A10EE100AFBF7A9FD41EC73
:104B30001C0B19EE100AFBF7A3FD53EC1C2BFBF723
:104B4000A7FC53EC1A2BFBF71BFD53EC1B2BFBF7BD
:104B5000A5FC41EC1A0B19EE900AFBF791FD53EC02
:104B60001A2BFBF7F4FBFBF79EFD206294ED030A82
:104B7000B5EEC00AF1EE10FA0FD0D4ED080AF4EE4B
:104B8000C00AF1EE10FA06DCB1EE400AF4EEC00AFB
:104B9000F1EE10FA01D284ED080AD4ED060AB0EE67
:104BA000480A30EE600A84ED090AD4ED0C0AF0EEF2
:104BB000E00AF4EEE08AF1EE10FA0CD210EE100AE0
:104BC000FBF75EFD9FED1D1B53EC112BFBF766FC05
:104BD000FBF769FD6062B0EE480A84ED060A94EDC9
:104BE000000A94ED081A60EE080A94ED010A40EEFE
:104BF000010A94ED020A94ED091A40EE010AC4ED8F
:104C0000050A94ED0A0AB5EEC00AF1EE10FA11D0C9
:104C1000F4EEC00AF1EE10FA01DD84ED050AD4EDE0
:104C2000050AB1EE400AF4EEC00AF1EE10FA01D224
:104C300084ED050ABDEC0A8B10BD00009A99999984
:104C40009999B93F2DE9F041184C0F460546666920
:104C50002068001D00F0D2FA38B9206890F82C10B6
:104C600001208840A1698143A161681C07D137B147
:104C70002168BDE8F0410E48091D00F004BB206822
:104C80003544B5424560216805D2A068BDE8F041D1
:104C9000091D00F0E0BA6068091D00F0DCFA206B25
:104CA000854200D22563BDE8F08100007C00002031
:104CB000681200202DE9F041054600F0F1FA2E4C73
:104CC0002069401C206120682C4F10B1E06940B37E
:104CD0002DE025602069012829D1002606EB8600F9
:104CE00007EB800000F0A9FA761C072EF6D32348C4
:104CF0008C3000F0A2FA2148A03000F09EFA1F4844
:104D0000B43000F09AFA1D48C83000F096FA1B48FB
:104D1000DC3000F092FA19488C3060601430A060EA
:104D200005E02068E96AC06A884200D82560E06A28
:104D3000401CE062E96A0120A26988401043A0613A
:104D400001EB810007EB8000291D00F09CFA00F0C8
:104D5000C7FAE06900280CD02068E96AC06A884276
:104D600007D207494FF080500860BFF34F8FBFF361
:104D70006F8FBDE8F08100007C0000208C110020C6
:104D800004ED00E010B5044690F8510058B1012838
:104D90000CD002280FD0502080F31188BFF34F8F22
:104DA000BFF36F8FFEE7206B00F0AEFA2046BDE840
:104DB000104000F0A9BA10BD10484FF470514207DE
:104DC00006D0C01D0D4920F00700411AC1F57051F1
:104DD0000B4A00230144C2E900030839103A21F0CC
:104DE000070111604B600B600B1AC0E90013936060
:104DF0004FF000405360D060704700007C120020EC
:104E0000C8000020144E154CA6F1C8074FF080587A
:104E1000DFF84C9012E000BF00F042FAF068C5687D
:104E2000281D00F0EBF92069401E2061E068401E5B
:104E3000E06000F055FA2846FFF7A4FFE06800287C
:104E4000EAD138680128F9D9C9F80080BFF34F8F3B
:104E5000BFF36F8FF2E70000541200207C000020A7
:104E600004ED00E02DE9F0479A46DDE9098481462A
:104E70006FF00303206B03EB82021044089D20F0C7
:104E80000706700707D0502080F31188BFF34F8FBB
:104E9000BFF36F8FFEE723180A5C83F834200A5CA7
:104EA00012B1401C1028F6D3002784F84370072D58
:104EB00000D30625E562C4E91157201D00F0C8F9AA
:104EC00004F1180000F0C4F92461C5F10700646220
:104ED000A061E76484F8507052464946304600F0BD
:104EE000BFF82060B8F1000F01D0C8F80040BDE85D
:104EF000F087000030B5114900E011460A6882428F
:104F0000FBD34B685C18844203D140681844486066
:104F1000084643681C18944209D1084C103C246888
:104F2000A24209D052681A4442600A6812680260BC
:104F3000814200D0086030BD0460F9E7C80000205D
:104F400006484168096829B14168C968C968496863
:104F5000016370474FF0FF31FAE700007C0000204A
:104F600008484068401C4FF0500080F3118804D07E
:104F7000BFF34F8FBFF36F8FFEE7BFF34F8FBFF3CA
:104F80006F8FFEE7D00000202DE9F0410546002795
:104F900000F0C6FA314E306808B9FFF70DFFF0682F
:104FA00005424BD1C5B3083568070ED005F00700A0
:104FB000C0F108000544680707D0502080F311882D
:104FC000BFF34F8FBFF36F8FFEE72DB3706885423D
:104FD00034D82248103001460C6801E020460C46C7
:104FE0006168A94202D221680029F7D131688C4258
:104FF00024D007682168016060680837411B1029C8
:105000000FD96019420708D0502080F31188BFF3F0
:105010004F8FBFF36F8FFEE710E041606560FFF7D1
:1050200069FF61687068401A7060B268904200D28F
:10503000B060F06801430020C4E9000100F01AFCF0
:10504000780707D0502080F31188BFF34F8FBFF34C
:105050006F8FFEE73846BDE8F0810000B800002001
:1050600010B5031F4FF080741C601B1F21F001015D
:105070001960191F044B0B6014390A60091F6FF087
:10508000020244380A6010BD614F000878B50A7BFF
:10509000022A62D24A7B022A5FD20A88C2F30A023B
:1050A000A2F5806202804B788C78DB0843EA4413D7
:1050B000C3F30A05B5F5806545808B78CC784FEA57
:1050C000931343EA84030C7943EA8423C3F30A0469
:1050D000A4F5806484800B794E794FEA530343EA48
:1050E000C613C3F30A03A3F58063C3804E794FEA66
:1050F000961606724E79C6F30116467201D42E46F4
:1051000000E06E420A2E00DC00254580002C01DB09
:10511000254600E065420A2D00DC00248480002B37
:1051200001DB1C4600E05C420A2C00DC0023C3804B
:10513000002A01DB134600E053420A2B00DC002268
:105140000280CA8842810A8982814A89C2810A7B97
:1051500002744A7B4274C98941820348006801682D
:105160004068009078BD0000EC0F002030B40E4C79
:10517000029D20600020A060E060082020610B48B4
:105180000C0A04704170110A8170C270190A017111
:105190004371290A8171C571024630BC012302495D
:1051A0000348FBF717BE0000D00800203E00002097
:1051B000980C002030B40E4C029D20600020A060AE
:1051C000E060082020610B480C0A04704170110A4D
:1051D0008170C270190A01714371290A8171C57108
:1051E000024630BC012302490348FBF7F3BD00002F
:1051F000D00800203E000020700C0020D0E90132D1
:1052000001699A60D0E901235A604A68824201D15B
:1052100082684A60002202610868401E08600868CF
:1052200070470000034B036003F1540008608020C6
:1052300010607047C00C0020704700F108014FF06B
:10524000FF32C0E90112C1600161002101607047B5
:1052500000210161704730B50B685A1C02D000F183
:10526000080202E0026904E02246546825689D4273
:10527000FAD953684B6099608A605160086101688F
:10528000491C016030BD42684A6093688B60936836
:105290005960916008610168491C01607047000015
:1052A000502080F31188BFF34F8FBFF36F8F0A49EF
:1052B0004868401C486001280CD10848006810F07C
:1052C000FF0F07D0502080F31188BFF34F8FBFF33B
:1052D0006F8FFEE770470000D000002004ED00E073
:1052E0000849486828B1401E486001D180F3118800
:1052F0007047502080F31188BFF34F8FBFF36F8F3B
:10530000FEE70000D000002070B5002827D0144D23
:10531000A0F108046168E868014207D1502080F3D9
:105320001188BFF34F8FBFF36F8FFEE722683AB14A
:10533000502080F31188BFF34F8FBFF36F8FFEE7CC
:105340008143616000F0ECF8606869680844686057
:105350002046FFF7CFFDBDE8704000F08BBA70BD6E
:10536000B80000204FF0E020002101618161054973
:105370004FF47A720968B1FBF2F1491E41610721CD
:10538000016170477800002010B5FAF775FF1149E8
:1053900010280ED300F1E02090F8F0030A78904234
:1053A00007D2502080F31188BFF34F8FBFF36F8F68
:1053B000FEE709480068896800F4E060884207D980
:1053C000502080F31188BFF34F8FBFF36F8FFEE73C
:1053D00010BD0000D00000200CED00E010B5020070
:1053E00014D00F48806B38B1502080F31188BFF380
:1053F0004F8FBFF36F8FFEE700F092F80021104649
:10540000FFF720FC00F036FA002807D105494FF0DD
:1054100080500860BFF34F8FBFF36F8F10BD000047
:105420007C00002004ED00E070B50D4604000BD0B8
:1054300095B11E4A906BB8B1502080F31188BFF32C
:105440004F8FBFF36F8FFEE7502080F31188BFF3BB
:105450004F8FBFF36F8FFEE7502080F31188BFF3AB
:105460004F8FBFF36F8FFEE700F05AF85269236841
:105470005919934204D98B420AD9914202D807E0C4
:105480008B42FAD9881A21600021FFF7DBFB00E08C
:10549000216000F0EFF9002807D105494FF0805056
:1054A0000860BFF34F8FBFF36F8F70BD7C0000208B
:1054B00004ED00E010B586B00024039405AA04A909
:1054C00003A80494FFF7AEFEDDE903010094CDE9E3
:1054D000011000230EA11048059A00F020F90F4991
:1054E0000028486311D0502080F31188BFF34F8FFC
:1054F000BFF36F8F4FF0FF3008630120C8614C612C
:1055000006B0BDE8104000F04DB806B010BD000078
:1055100049444C4500000000054E00087C00002076
:105520000248816B491C8163704700007C000020A9
:1055300010B51A4CA06B10B10120606210BD0020A4
:105540006062206821680068096B884204D821687D
:1055500020683431FFF770FEA0691149B0FA80F07D
:10556000C0F11F0000EB800051F820206AB101EB70
:10557000800000F10802416849684160914201D110
:1055800049684160C868206010BD502080F31188D0
:10559000BFF34F8FBFF36F8FFEE700007C0000204A
:1055A0008C1100201CB537480168374A914207D159
:1055B000502080F31188BFF34F8FBFF36F8FFEE74A
:1055C00000683149491E884207D1502080F3118874
:1055D000BFF34F8FBFF36F8FFEE72C490878019020
:1055E000FF20087008788DF800009DF800009DF8F5
:1055F000002000F0F000904207D0502080F3118886
:10560000BFF34F8FBFF36F8FFEE79DF80000204B75
:1056100000F0500018700720986005E09DF8002009
:1056200052008DF80020401E9DF800201206F5D48F
:105630009860032807D0502080F31188BFF34F8F64
:10564000BFF36F8FFEE74FF44070986001980870C9
:105650000C482030016841F470010160016841F09C
:1056600070410160FFF77EFE00205860FAF7CCFD24
:105670000848016841F040410160FAF7B1FD00209F
:105680001CBD000000ED00E071C20F4100E400E02D
:10569000D000002034EF00E010B5502080F31188D6
:1056A000BFF34F8FBFF36F8F00F080F818B104493C
:1056B0004FF080500860002080F3118810BD00007A
:1056C00004ED00E02DE9FF5F8346DDE90E87994692
:1056D00016468A469000FFF757FC05001CD0542060
:1056E000FFF752FC040014D00020256384F8510019
:1056F000CDE90240CDE900874B4632465146584637
:10570000FFF7B0FB2046FFF7D5FA012004B0BDE853
:10571000F09F2846FFF7F8FD4FF0FF30F6E7F0B5B1
:1057200085B0DDE90B640A9DA6B1DCB15427009772
:105730002663022684F85160002604AFCDE90246B4
:10574000CDE90057FFF78EFB2046FFF7B3FA049828
:1057500005B0F0BD502080F31188BFF34F8FBFF329
:105760006F8FFEE7502080F31188BFF34F8FBFF398
:105770006F8FFEE70548C16919B1806B18B1002031
:105780007047012070470220704700007C00002015
:1057900001484069704700007C00002010B5FFF709
:1057A000F3FD0148406910BD7C0000202DE9F04167
:1057B0002E4C0027A06B40B1206A401C2062606A1A
:1057C00000B101273846BDE8F0816669761C666144
:1057D00013D16068006838B1502080F31188BFF39E
:1057E0004F8FBFF36F8FFEE76068A1686160A060B4
:1057F000A06A401CA062FFF7A3FB206BDFF870805B
:10580000864209D36068006880B16068C068C56876
:10581000686886420DD220632068C06A00EB800170
:1058200058F821000128CAD90127C8E74FF0FF30F6
:10583000F1E7281DFFF7E2FCA86A18B105F118008E
:10584000FFF7DCFCE86A0121A26981401143A161F4
:1058500000EB800108EB8100291DFFF714FDE86AC9
:105860002168C96A8842CDD30127CBE77C0000209C
:105870008C1100202DE9F0472C4D00242746A86B01
:1058800038B1FFF70DFDA86B401EA863A86B40B1AF
:1058900046E0502080F31188BFF34F8FBFF36F8F26
:1058A000FEE72969224E0120D1B3A6F1B409804652
:1058B0003068E8B1F068C46804F11800FFF79EFC96
:1058C000201DFFF79BFCE06AAA6908FA00F111436A
:1058D000A96100EB800109EB8100211DFFF7D3FCDA
:1058E000E06A2968C96A8842E2D3C5F82480DFE704
:1058F0000CB1FFF725FB2C6A44B14646FFF756FF73
:1059000000B16E62641EF9D100202862686A38B165
:105910000849012738070860BFF34F8FBFF36F8F27
:10592000FFF7DEFC3846BDE8F08700007C00002071
:105930004012002004ED00E0F05900081D4200086C
:10594000FDFF00000000000000010000000000005A
:10595000000000001C5A0008A93E0008FDFF0000DE
:105960000000000000010000000000000000000036
:10597000FC59000835460008FDFF0000000000004B
:105980000001000000000000000000000C5A0008A8
:1059900081460008FDFF000000000000000100003B
:1059A0000000000000000000E45900082542000843
:1059B000FDFF00000000000080000000000000006B
:1059C000000000000006101600061016000000007F
:1059D000000000000102030406070809000000009F
:1059E0000102030444455445435448524541440090
:1059F00044454255475448524541440047494D4269
:105A0000414C544852454144000000004B45524E21
:105A1000414C544852454144000000004348415322
:105A20005349535448524541440000004C5A000821
:105A300000000020E0000000683500082C5B000832
:105A4000E0000020A05100007835000800000000B0
:105A50000000000000000000000000000000000046
:105A60000000000000000000000000000000000036
:105A70000000000000000000000000000000000026
:105A80000000000000000000000000000000000016
:105A90000000000000000000000000000000000006
:105AA00000000000000000000000000000000000F6
:105AB00000000000000000000100000010000000D5
:105AC000000000000024F4000000000000000000BE
:105AD00000000000000000000000000000000000C6
