:020000040800F2
:10000000B847002081020008071E0008951A000862
:10001000051E0008B1030008852500080000000047
:10002000000000000000000000000000C101000806
:1000300079040008000000001D0200085D1E000891
:100040009B0200089B0200089B0200089B0200081C
:100050009B0200089B0200089B0200089B0200080C
:100060009B0200089B0200089B0200089B020008FC
:100070009B0200089B0200089B0200089B020008EC
:10008000E50300089B0200089B020008C10300086A
:10009000B50300089B0200089B0200089B020008B1
:1000A0009B0200089B0200089B0200089B020008BC
:1000B0009B0200089B0200089B0200089B020008AC
:1000C0009B0200089B0200089B0200089B0200089C
:1000D0009B0200086D250008792500089B02000896
:1000E0009B0200089B0200089B0200089B0200087C
:1000F0009B0200089B0200089B0200089B0200086C
:100100009B0200089B0200089B0200089B0200085B
:100110009B0200089B0200089B0200089B0200084B
:100120009B0200089B020008F10300089B020008E4
:100130009B0200089B0200089B020008D9030008EC
:10014000CD0300089B0200089B0200089B020008E8
:100150009B0200089B0200089B0200089B0200080B
:100160009B0200089B0200089B0200089B020008FB
:100170009B0200089B0200089B0200080000000090
:100180009B0200089B0200089B0200089B020008DB
:100190009B0200089B0200089B0200089B020008CB
:1001A00000000000000000009B020008DFF80CD0F7
:1001B00000F0ECF80048004735260008B84700205A
:1001C0002C4B19680868B0E8F04F80F30988BFF33A
:1001D0006F8F4FF0000080F311887047000000001F
:1001E00008480068006880F308884FF0000080F33A
:1001F000148862B661B6BFF34F8FBFF36F8F00DF15
:1002000000BF00BF08ED00E0DFF80C00016841F41A
:1002100070010160704700BF88ED00E0EFF30980D6
:10022000BFF36F8F134B1A681EF0100F08BF20ED3D
:10023000108A20E9F04F106009B44FF0500080F3AD
:100240001188BFF34F8FBFF36F8F02F097FD4FF010
:10025000000080F3118809BC19680868B0E8F04F05
:100260001EF0100F08BFB0EC108A80F30988BFF3AE
:100270006F8F704724000020EFF305807047000067
:100280000648804706480047FEE7FEE7FEE7FEE730
:10029000FEE7FEE7FEE7FEE7FEE7FEE7F91E0008E1
:1002A000AD0100082DE9F05F0546002092469B460F
:1002B00088460646814640241BE02846414647467C
:1002C000224600F053F853465A46C01A914110D3C3
:1002D00011461846224600F03AF82D1A67EB01083D
:1002E0004F4622460120002100F031F817EB0009AB
:1002F0004E41201EA4F10104DFDC484631462A4667
:100300004346BDE8F09F40EA01039B0703D009E0A4
:1003100008C9121F08C0042AFAD203E011F8013BF1
:1003200000F8013B521EF9D27047D2B201E000F84A
:10033000012B491EFBD270470022F6E710B5134689
:100340000A4604461946FFF7F0FF204610BD202A52
:1003500004DB203A00FA02F1002070479140C2F11C
:10036000200320FA03F3194390407047202A04DB4E
:10037000203A21FA02F00021704721FA02F3D0401E
:10038000C2F120029140084319467047064C074DC0
:1003900006E0E06840F0010394E807009847103455
:1003A000AC42F6D3FFF706FFB0310008D0310008A9
:1003B000FEE70000014800F0D6B800004C02002023
:1003C000014800F0D0B800004C020020014800F0C5
:1003D000CAB8000074020020014800F0C4B8000050
:1003E00074020020014800F043BB000068060020B2
:1003F000014800F03DBB00000806002001681823FA
:10040000CAB2103AB2FBF3F2054B6FF30901032AAB
:100410009B5CC36500D9091D8165084670470000D3
:100420008431000810B5014600208B698A6A4FF0BC
:10043000C07453B1B3F5005F15D072B1012A0CD06E
:10044000022A0AD0032A09D104E01AB1012A06D0EF
:10045000022A03D1C96AC90100D5012010BDC96AA9
:10046000A142FAD010BD002AF7D0012AF2D0022A08
:10047000F3D0032AF3D010BD70477047704730B5F2
:1004800090F82040012C05D0022C03D0416A41F4A1
:1004900080215DE00468002955D02469A40754D068
:1004A0004FF4D874056804EB01142D5915F00405B8
:1004B000956005682D594ED0ED08556005682C599A
:1004C000C4F34004D4604FF4DA74056804EB0114FB
:1004D0002D5905F00F05156105682D59C5F3072540
:1004E000956105682C59240C54614FF4DC72046842
:1004F00002EB0112A4581C700468A458240A5C7012
:100500000468A458240C9C700468A258120EDA7077
:100510004FF4DE72046802EB0112A4581C710468E7
:10052000A458240A5C710468A458240C9C710468C3
:10053000A258120EDA71006881B1016941F0200100
:100540000161002030BDE468A8E7416A41F4001170
:100550004162012030BD6D0D1560AFE7C16841F00B
:100560002001C160EDE72DE9F05F05460068002439
:100570004669D0F804908768D0F80CB0D0F810A085
:10058000D0F81880F10748D0F90714D00121816014
:10059000B80703D5284600F053FA0CE0780702D5D7
:1005A0004FF4006407E0380702D54FF4805402E0AE
:1005B000284600F044FAF80516D529684FF48070F3
:1005C0008860B80503D5284600F03CFA0CE07805B1
:1005D00002D544F4005407E0380502D544F48044C1
:1005E00002E0284600F02DFAF80316D529684FF4EA
:1005F00080308860B80303D5284600F025FA0CE067
:10060000780302D544F4004407E0380302D544F4EB
:10061000803402E0284600F016FA300707D55FEA7A
:10062000CB6004D52968102044F40074C8607007BA
:100630004FF0080707D55FEA0B7004D52868C7603C
:10064000284600F0A9F9B00706D52868C0688007D9
:1006500002D0284600F0A2F9700607D55FEACA600A
:1006600004D52968102044F480640861B00607D5D9
:100670005FEA0A7004D528680761284600F0DCF9B3
:10068000F00606D528680069800702D0284600F0E9
:10069000D4F9B00308D55FEAC96005D529681020F0
:1006A0004860284600F0CAF9F00307D55FEA0970F0
:1006B00004D528684760284600F0C7F9300446D5BD
:1006C0005FEA497040D5F00504D55FEAC87001D0F3
:1006D00044F00104B00504D55FEA887001D544F008
:1006E0000204700504D55FEA487001D544F00404A3
:1006F000300529D518F0700F26D008F0700040287A
:1007000015D006DC102809D020280AD0302816D1B0
:100710000AE050280ED0602811D10EE044F0080401
:100720000DE044F010040AE044F0200407E044F037
:10073000400404E044F0800401E044F4807428683C
:10074000816921F070018161296804204860002CD2
:1007500005D0686A204368622846FFF78FFEBDE82F
:10076000F09F70B5040003D094F8200010B104E0AD
:10077000012070BD204600F081F82068016821F05A
:100780000201016000F0A6FB0546052604E000F02A
:10079000A1FB401B0A2811D8206840688007F6D4C6
:1007A0002068016841F00101016000F093FB0546FB
:1007B0000BE000F08FFB401B0A2806D9606A40F46A
:1007C0000030606284F82060D2E720684068C0078B
:1007D000EFD0207E0128206801683DD021F0800103
:1007E0000160607E01282068016838D021F0400156
:1007F0000160A07E01282068016833D021F020012B
:100800000160E07E0128206801682ED041F01001CF
:100810000160207F01282068016829D021F00801AB
:100820000160607F01282068016824D021F0040164
:100830000160D4E902010843D4E9041211430843DA
:100840006168491E08432168C86100206062012078
:1008500084F82000002070BD41F08001C0E741F025
:100860004001C5E741F02001CAE721F01001CFE7C0
:1008700041F00801D4E741F00401D9E7F0B587B0B1
:10088000044614216846FFF757FD3E4B3E48DFF80B
:10089000F0E01968D4F800C03B4A03250226092776
:1008A00010300024491CF4452AD11960012907D1D0
:1008B000016841F000710160006800F0007005906F
:1008C000106840F0080010601068CDE9005600F094
:1008D0000800CDE9047069462C48CDE9024500F0D6
:1008E00001FA00220521132000F066FB132000F01E
:1008F00055FB00220521142000F05EFB14203AE095
:10090000DFF88CE0F44538D1D0F800C04CF0806CB2
:10091000C0F800C0D0F800C001290CF0806CCDF800
:1009200014C0196007D1016841F0007101600068CE
:1009300000F000700590106840F002001060106830
:1009400002AB00F0020005906020CDE9000683E8CC
:10095000B00069460F4800F0C5F9002205213F208C
:1009600000F02AFB3F2000F019FB00220521402067
:1009700000F022FB402000F011FB07B0F0BD0000AA
:10098000006400400C00002030380240000C02409F
:1009900000680040000402407047000010B50446A3
:1009A00000681E4992B0884205D110AB09AA002107
:1009B0001B48FFF764FD1B49206888421BD107AB29
:1009C0006A4600211848FFF75AFD0098174CA0F21C
:1009D000012006280FD2DFE800F003030303031011
:1009E0001349C0B20870BDF81E1000EBC00004EB44
:1009F000C00049BAC18012B010BD07A90D4801F06E
:100A0000E1FDD4F88C010A28F5D2401CC4F88C0111
:100A100094ED5F0A84ED610AEDE700000064004098
:100A20004C02002000680040740200209C0000205E
:100A30000000002004020020704770477047704794
:100A400070477047704770477047704790F835108F
:100A5000022903D08021416501207047052180F8DB
:100A600035100068016821F0010101600020704725
:100A70002DE9F84304464FF00009CDF80090634893
:100A80004FF41651A56D0068B0FBF1F72E6894F88D
:100A90005C10082000FA01F131420FD021680A6889
:100AA00052070BD50A6822F004020A6094F85C1021
:100AB0008840A860606D40F00100606594F85C10AB
:100AC0004FF0010808FA01F0304208D02168496966
:100AD000090604D5A860606D40F00200606594F8D6
:100AE0005C1004208840304208D0216809688907DA
:100AF00004D5A860606D40F00400606594F85C1057
:100B000010208840304218D021680968090714D5A0
:100B1000A86020680168490304D50068000308D56F
:100B2000A16C07E00168C90503D4016821F0080140
:100B30000160216C09B12046884794F85C102020A0
:100B40008840304231D021680968C9062DD5A86097
:100B500094F8350005282068016806D0490347D578
:100B6000006800031DD4616C1CE021F016010160D7
:100B70002068416921F080014161206C08B9A06CB6
:100B800020B12068016821F00801016094F85C1030
:100B90003F208840A86084F8349084F83580216D27
:100BA0001FE0E16B09B120468847606D00282BD01B
:100BB000606DC00714D0052084F8350020680168F6
:100BC00021F0010101600098401C0090B84203D858
:100BD00020680068C007F6D184F8349084F8358026
:100BE000E16C002910D001B02046BDE8F043084771
:100BF0000168C905D5D4016821F01001016084F8AD
:100C0000349084F83580CCE7BDE8F88320000020DC
:100C10002DE9F041044600F05DF906465CB100257F
:100C200084F83450022084F835002068016821F0EF
:100C3000010101600DE00120BDE8F08100F04AF9FA
:100C4000801B052805D920206065032084F8350025
:100C5000F2E720680068C007F0D1226811682048D8
:100C60000140D4E901031843D4E903363343184360
:100C700063691843A3691843E3691843236A184357
:100C80000843616A042903D1D4E90B1319430843CB
:100C9000106020684069666A20F0070130460E4304
:100CA000012704280CD1A06A0643E06A40B120461F
:100CB000FFF7B8FB20B14020606584F83570BAE7D3
:100CC000206846612046FFF799FB94F85C203F219D
:100CD00091408160656584F835700020ACE70000C4
:100CE0003F8010F02DE9F84FDFF890B100224FF06F
:100CF00001084FF0030A4FF00F090BF1040E00BF7B
:100D00000B6808FA02F42340A3426ED14D68022D0D
:100D100001D0122D0ED1D50800EB850CDCF8205047
:100D20005607F70E09FA07F6B5430E69BE402E4383
:100D3000CCF82060066855000F790AFA05FC07F028
:100D4000030726EA0C06AF40374307604E68012EC2
:100D500005D0022E03D0112E01D0122E0ED187689D
:100D6000CE6827EA0C07AE403E4386604668A6433D
:100D70000C79C4F30014944034434460C4688E6812
:100D800024EA0C04AE402643C6604C68E4006FD5EC
:100D90003B4C256845F480452560246822F0030516
:100DA00004F480440094374C2E19D6F8084895076F
:100DB0002F0F09FA07F5AC43334DA84201D10025A6
:100DC0002EE0324DA84201D1012529E0304DA84244
:100DD00001D1022524E02F4DA84201D103251FE0B7
:100DE0002D4DA84202D104251AE041E02B4DA84226
:100DF00001D1052514E02A4DA84201D106250FE0B6
:100E0000284DA84201D107250AE0274DA84201D16B
:100E1000082505E0254DA84201D1092500E00A2555
:100E2000BD402543C6F80858DBF800405D464E68D3
:100E30009C43F60300D51C432C60DEF80040754649
:100E40004E689C43B60300D51C432C600B4D0835FF
:100E50002C684E689C43F60200D51C432C60074D5D
:100E60000C352C684E689C43B60200D51C432C60A0
:100E7000521C102AFFF444AFBDE8F88F003C01403B
:100E800044380240003001400000024000040240AB
:100E900000080240000C0240001002400014024012
:100EA00000180240001C02400020024000240240C2
:100EB0000069084000D001207047426931EA02020F
:100EC00000D10904816170470AB18161704709044A
:100ED000FBE7000001488068704700001400002014
:100EE0000248816802781144816070471400002034
:100EF0000B4810B5016841F400710160016841F4CC
:100F000080610160016841F480710160032000F09C
:100F100073F80F2000F006F800F024F8002010BD50
:100F2000003C024070B50D4D04464FF47A712878AC
:100F3000B1FBF0F00A490968B1FBF0F000F05CFB8E
:100F400048B9102C07D200222146501E00F034F878
:100F500000206C6070BD012070BD000014000020F6
:100F6000200000200C4882B0016841F480410160FB
:100F7000006800F4804000900748001F016841F0BD
:100F8000805101600068002200F0805000900F2125
:100F9000901E02B000F010B844380240002809DB6F
:100FA00000F01F02012191404009800000F1E02083
:100FB000C0F8001170470000F0B40E4B1B680C46DF
:100FC000C3F30223C3F10705042D00D90425191D1D
:100FD000072901D2002300E0DB1E012606FA05F1F5
:100FE000491E214099409E40761E16403143F0BC78
:100FF00001F0C9BA0CED00E0064900F007020868EC
:101000004FF6FF03184040EA0220034A10430860ED
:10101000704700000CED00E00000FA052DE9F047F4
:101020000E46050065D0DFF81481D8F80000F7B24D
:1010300000F00F00B04207D288F80070D8F8000026
:1010400000F00F00B04254D128683D4C810712D502
:10105000400703D5206840F4E0502060287800075E
:1010600003D5206840F4604020602068A96820F023
:10107000F000084320602878C0072DD03049686808
:101080000839012812D0022813D0032811D009688A
:10109000890700292DDA216821F00301014321602D
:1010A000FFF718FF814641F2883A0EE0096889038C
:1010B000EFE709688901ECE7FFF70CFFA0EB0901F6
:1010C000514502D90320BDE8F0872068696800F027
:1010D0000C00B0EB810FEFD1D8F80010404601F0C2
:1010E0000F01B14207D90770006800F00F00B0424D
:1010F00001D00120E7E72878400705D52068E96896
:1011000020F4E050084320602878000706D52068C6
:10111000296920F4604040EAC100206000F036F800
:101120002168084AC1F30311515CC84006490860B0
:101130000F20FFF7F7FE0020C5E70000003C02404B
:10114000083802408C31000820000020044805497E
:1011500000680968044AC1F38221515CC8407047A5
:1011600020000020083802409C310008044805494E
:1011700000680968044AC1F34231515CC8407047B5
:1011800020000020083802409C310008154810B5A6
:10119000006810F00C02144813D01449042A0FD030
:1011A000082A0ED10F4C241F2268236802F03F0248
:1011B0005B0207D52068C0F38810A0FB010106E0A0
:1011C000084610BD2168C1F38811A1FB000100236E
:1011D000FFF768F82168C1F30141491C4900B0FBE1
:1011E000F1F010BD083802400024F400001BB700E5
:1011F0002DE9F84F050076D02878DFF8F8B2BE4C1C
:10120000C00749D0DBF800105846C1F3810101291D
:1012100008D00068C0F3810002280AD1201D0068B0
:10122000400206D52068800336D568680028E2D0E1
:1012300032E06868B0F5803F10D0B0F5A02F20688C
:1012400010D020F480302060206820F480202060BE
:101250006868A0B1FFF73EFE06460CE0206840F447
:101260008030F4E740F480202060F7E7FFF732FE9B
:10127000801B642873D820688003F7D50CE0FFF743
:1012800029FE064605E000BFFFF724FE801B642808
:10129000F0D820688003F7D42878DFF860828007D0
:1012A0004FF000093ED5DBF80010584611F00C0F46
:1012B00009D00068C0F3810002280BD18D48001FBF
:1012C0000068400206D42068800715D5E868012828
:1012D00009D111E0E868B8B10120C8F80000FFF7B3
:1012E000F9FD064605E002E1FFF7F4FD801B022848
:1012F000C0D820688007F7D52068296920F0F80059
:1013000040EAC10020600DE0C8F80090FFF7E2FD60
:10131000064604E0FFF7DEFD801B02281FD8206888
:101320008007F7D42878000722D5724E744869697F
:101330006C3671B101210160FFF7CCFD074604E076
:10134000FFF7C8FDC01B022809D830688007F7D511
:101350000EE0C0F80090FFF7BDFD074605E083E012
:10136000FFF7B8FDC01B02287ED830688007F7D48D
:101370002878400768D5DFF87CA100270AF1380AF1
:10138000DAF80000C0000BD4DAF8001041F0805108
:10139000CAF80010DAF80000012700F08050009031
:1013A000584E3068C00510D4306840F4807030600A
:1013B000FFF790FD009005E0FFF78CFD0099401AC3
:1013C000022851D83068C005F6D54A4EA86868365C
:1013D00001280FD00528306810D020F001003060BF
:1013E000306820F004003060A868B8B1FFF772FDE3
:1013F00000900FE0306840F00100F4E740F0040096
:101400003060F7E7FFF766FD0099411A41F2883036
:10141000814264D830688007F4D50EE0FFF75AFDAA
:10142000009007E0FFF756FD0099411A41F288301D
:10143000814254D830688007F4D42FB1DAF8001014
:1014400021F08051CAF80010A869C0B3DBF8001081
:10145000C1F3810102294AD00228484607D0C8F8C2
:101460006000FFF737FD00E039E005463AE0474607
:10147000C8F86000FFF72EFD064604E0FFF72AFDDE
:10148000801B02282BD820688001F7D4D5E90701FA
:101490000843A96A1C4A490802EB01416A6A41EA09
:1014A0008211084395F82C1040EA01611148001F91
:1014B000016001203866FFF70DFD054605E014E0E8
:1014C000FFF708FD401B022809D820688001F7D5E6
:1014D0000BE000BFFFF7FEFC401B022802D90320EF
:1014E000BDE8F88F20688001F4D40020F8E70120DF
:1014F000F6E700000838024000380240000047428A
:10150000800E4742007000400000FFFF70B50400ED
:1015100005D00025A56294F8510010B106E0012025
:1015200070BD84F85050204600F030F8022084F856
:1015300051002068016821F040010160D4E90101F7
:101540000843D4E903121143084361690843218B1E
:1015500001F400710843E1690843216A0843A16A64
:10156000084321680860A069042101EA1040616A0B
:101570000843216848602068C16921F40061C161A5
:101580006565012084F85100002070BD10B586B05B
:10159000044614216846FEF7CFFE144920688842AD
:1015A00021D113480021026842F4801202600068D1
:1015B00000F4801005900E481438026842F02002B2
:1015C0000260006800F0200005904FF46070009009
:1015D0000220CDE901010320039005200490694613
:1015E0000448FFF77FFB06B010BD0000005001402B
:1015F000443802400014024010B5401EB0F1807F14
:1016000001D3012010BD4FF0E02460610F2160176D
:1016100000F0B9FF0020A06107202061002010BD6C
:1016200010B586B0044614216846FEF785FE0E49C3
:101630002068884215D10D480021026842F08002DE
:101640000260006800F080000590402000900220B9
:10165000CDE901010920CDE9031069460448FFF7EF
:1016600041FB06B010BD00000018004030380240B9
:10167000001C024070B5044690F83C000D4601285D
:101680000DD0012684F83C60022084F83D0042B170
:10169000042A18D0082A2AD00C2A4DD139E0022079
:1016A00070BD206800F0B6FC2068816941F0080137
:1016B00081612068816921F004018161206881696C
:1016C0002A69114311E0206800F0D4FC2068816988
:1016D00041F4006181612068816921F48061816148
:1016E000206881692A6941EA0221816124E0206839
:1016F00000F0F6FC2068C16941F00801C161206872
:10170000C16921F00401C1612068C1692A691143DE
:1017100011E0206800F018FD2068C16941F4006103
:10172000C1612068C16921F48061C1612068C1691B
:101730002A6941EA0221C16184F83D60002084F8F1
:101740003C0070BD10B5040003D094F83D0010B10A
:1017500007E0012010BD002084F83C00204600F086
:101760000DF8022084F83D00211D206800F0EEFBFA
:10177000012084F83D00002010BD000008B500687D
:101780000649884208D10648016841F040010160DD
:10179000006800F04000009008BD00000018004004
:1017A0004038024008B5C16B082903D100680168C0
:1017B0004068009008BD000070B5026804461068DB
:1017C000D168536910F00F0F51D003F0010501F4F7
:1017D000907635435DD0C20705D0CA0503D5E26BCC
:1017E00042F00102E263420705D5DA0703D0E26B5B
:1017F00042F00202E263820705D5DA0703D0E26B0A
:1018000042F00402E263020705D5DA0703D0E26B77
:1018100042F00802E263E26B002A34D0800604D56D
:10182000880602D5204600F0CDFC20684069E16BB7
:10183000C0F3801001F008010143204624D000F0DD
:10184000B3FC2068416949061AD5416921F040017D
:101850004161606BA0B11B490165606BFFF7F6F851
:10186000002810D0606B016DBDE87040084783060A
:101870000FD58B060DD52046BDE8704000F0A2BC08
:101880002046FFF78FFF70BDFFF78CFF0020E0635D
:1018900070BD030606D50B0604D52046BDE8704092
:1018A00000F032BE4006F3D54806F1D5D168204697
:1018B00021F04001D160202184F8391000F0E9F8CE
:1018C00070BD00009921000870B5040004D094F8A0
:1018D0003900002510B106E0012070BD84F83850B1
:1018E000204600F023F8242084F839002068C168DD
:1018F00021F40051C160204600F0B0FC206801696D
:1019000021F4904101612068416921F02A0141617F
:101910002068C16841F40051C160E563202084F86B
:10192000390084F83A00002070BD00002DE9F04F26
:1019300087B0064614216846FEF7FEFCDFF82CC18E
:10194000316800244A4802250127032207234FF06B
:10195000006A4FF4806B614546D145491431D1F896
:1019600000C04CF0100CC1F800C0096801F0100173
:101970000591016841F002010160016801F0020176
:101980000591016841F0010101600068904600F096
:1019900001000590802099468DE8A10369463548ED
:1019A000FFF7A0F928028DE8A10369463248FFF746
:1019B00099F9334D31482860C5E901A4C5E9034BC5
:1019C0006C61AC61EC612C6228466C62FFF720F917
:1019D00008B1FEF752FD7563002205212520AE6394
:1019E000FFF7EAFA25203CE0DFF898C061453AD1DC
:1019F0001F491031D1F800C04CF4003CC1F800C0C0
:101A0000096801F400310591016841F008010160A5
:101A10000068694600F00800059060208DE8A1008C
:101A20001948CDE90323FFF75DF9154D17486035D7
:101A30002860C5E901A4C5E9034B80156C61C5E9BF
:101A400006402C6228466C62FFF7E2F808B1FEF708
:101A500014FD7563002205212620AE63FFF7ACFA62
:101A60002620FFF79BFA07B0BDE8F08F0010014079
:101A7000303802400004024000000240406402404E
:101A80000806002000440040000C0240886002402C
:101A900070477047FEE70000104810B50E4901601E
:101AA0000321416000214FF400228160C0E903124C
:101AB0004FF4401242610176012242768176C1766E
:101AC00001774177FEF74DFE002803D0BDE81040B6
:101AD000FEF7D3BC10BD0000006400404C020020A3
:101AE000104810B50E4901600321416000214FF4F8
:101AF00000228160C0E903124FF440124261017676
:101B0000012242768176C17601774177FEF729FE80
:101B1000002803D0BDE81040FEF7AFBC10BD0000A8
:101B20000068004074020020114808B5016841F4C3
:101B300080010160016801F480010091016841F4B5
:101B4000001101600068002200F4001000900521DF
:101B50001020FFF731FA1020FFF720FA00220521AC
:101B60003A20FFF729FABDE808403A20FFF716BAF5
:101B70003038024000B587B01C2206496846FEF79F
:101B8000C2FB0021684600F080FD0349086007B0F1
:101B900000BD000068310008100000202DE9F04F62
:101BA00087B014216846FEF7C7FB4B480024016844
:101BB00041F002010160016801F002010591016834
:101BC00041F008010160016801F008010591016818
:101BD00041F480710160016801F480710591016830
:101BE00041F001010160016801F001010591016806
:101BF00041F080010160016801F0800105910168F8
:101C000041F040010160016801F040010591016867
:101C100041F020010160016801F020010591016897
:101C200041F0100101600068DFF8B0A000F0100082
:101C3000059000223C215046FFF746F9DFF8A090BE
:101C40004FF4FF76002231464846FFF73DF9DFF8B2
:101C500094B044F24007002239465846FFF734F961
:101C60004FF40068002241461F48FFF72DF9012577
:101C7000CDE9005469461D480295FFF733F83C2032
:101C80000090CDE90154694650460394FFF72AF8C5
:101C90000096CDE90154694648460394FFF722F8BF
:101CA0000097CDE90154694658460394FFF71AF8A6
:101CB0004FF4C0508DE8310069465046FFF712F8E6
:101CC000CDF80080CDE90154694607480394FFF739
:101CD00009F807B0BDE8F08F30380240001C024020
:101CE0000018024000140240001002400020024090
:101CF000104810B50E4901604FF482714160002117
:101D00008160C1604FF400720161C0E905123022A8
:101D1000C0E90721416281620A21C162FFF7F6FB37
:101D2000002803D0BDE81040FEF7A7BB10BD00009F
:101D300000500140F004002010B588B01C21684616
:101D4000FEF7FAFA10480F490024C0E90014846035
:101D5000C46004618461FFF7F5FC08B1FEF78DFBF8
:101D60006020CDE9000402940022694606480494EC
:101D7000FFF780FC08B1FEF780FB0348FFF750FC3B
:101D800008B010BD00180040480500200D4810B5EF
:101D90000B4901600C49416000214FF48062816071
:101DA000C0E903120422C0E90521C161FFF78CFDDF
:101DB000002803D0BDE81040FEF75FBB10BD000057
:101DC0000010014088050020A08601000C4810B5D5
:101DD0000A4901604FF4E1314160002181600C2229
:101DE000C160C0E904128161C161FFF76DFD002887
:101DF00003D0BDE81040FEF740BB10BD00440040DA
:101E0000C8050020FEE77047114D124F124C4FF4E9
:101E100080464FF4807801212846FFF749F898B9A9
:101E200031463846FFF749F841462046FFF745F866
:101E300080212046FFF741F840212046FFF73DF87A
:101E400020212046FFF739F8642000F012FCE2E779
:101E500000200240001402400018024010B5FFF7B5
:101E60003FF801F0ADF8012803D0BDE8104001F0C3
:101E700039B810BD30B593B030216846FEF75CFA32
:101E800014210CA8FEF758FA19480025016841F002
:101E900080510160006800F0805011901548016881
:101EA00041F4404101600068022400F44040119078
:101EB00001200090000401908001CDE90640062039
:101EC0000890A820CDE9090404200B906846FFF78C
:101ED0008FF90CA90F2081E831004FF4A0500F902A
:101EE000E002109005210CA8FFF798F813B030BD60
:101EF00040380240007000401048016841F4700111
:101F000001600F48016841F0010101600C4A0021A5
:101F10000832116002680B4B1A400260031D0A4A26
:101F20001A60026822F48022026005480C300160C9
:101F300002495806803908607047000088ED00E0CB
:101F400000380240FFFFF6FE10300024F0B50268B2
:101F5000254C264D264E274F274B4FF0804CA04254
:101F600009D0604507D0A84205D0B04203D0B8429E
:101F700001D0984204D122F0700E4A6842EA0E0263
:101F8000A0421BD0604519D0A84217D0B04215D04E
:101F9000B84213D0984211D0184DA8420ED0184D17
:101FA000A8420BD0174DA84208D0174DA84205D023
:101FB000164DA84202D0164DA84203D122F4407516
:101FC000CA682A434D6922F080022A4302608A6867
:101FD000C2620A688262A04201D0984201D10969B6
:101FE000016301214161F0BD000001400004004097
:101FF00000080040000C0040000401400040014087
:10200000004401400048014000180040001C00400E
:1020100000200040F0B5026A22F001020262036A69
:1020200042688469124E24F073050C682C4323F037
:1020300002058B682B430D4DA84201D0B04205D15B
:1020400023F00807CB683B4323F00403A84201D0E8
:10205000B04205D14D6922F4407215438A692A4382
:1020600042608461496841630362F0BD0000014041
:1020700000040140F0B5026A22F010020262026A16
:10208000436884690D6824F4E64444EA05248D68B5
:1020900022F0200242EA05120F4D104EA84201D054
:1020A000B04206D1CF6822F0800242EA071222F045
:1020B0004002A84201D0B04207D14D6923F44063E9
:1020C00043EA85038D6943EA850343608461496877
:1020D00081630262F0BD0000000001400004014085
:1020E000F0B5026A22F480720262026A4368C4692F
:1020F00022F4007224F073050C68124E2C438D6894
:1021000042EA05220E4DA84201D0B04206D1CF6866
:1021100022F4006242EA072222F48062A84201D03F
:10212000B04207D14D6923F4405343EA05138D694A
:1021300043EA05134360C4614968C1630262F0BDAC
:10214000000001400004014030B5026A22F48052D0
:102150000262046A4268C3690D6823F4E64343EAF5
:1021600005238D6824F4005444EA0534084DA84240
:1021700002D0084DA84204D14D6922F4804242EABF
:1021800085124260C36149680164046230BD000089
:10219000000001400004014010B5806B0021C185A2
:1021A000C184FFF7FFFA10BD0168CA6822F490727B
:1021B000CA6001684A6922F001024A61202180F860
:1021C0003A10704710B590F83A10222901D0022039
:1021D00010BD8168B1F5805F11D0016900290168E7
:1021E0001FD0496801F07F03816A4A1C82620B702C
:1021F000C18D491E0904090CC18518D02BE0026964
:10220000816A002A0268526805D0D2B20A80816AC7
:10221000491C8162ECE7C2F308020A80816A891CCA
:10222000F7E74A68816A4B1C83620A70E0E701683D
:10223000CA6822F02002CA600168CA6822F480726B
:10224000CA6001684A6922F001024A61202180F8CF
:102250003A10FFF71DFC002010BD00002DE9F041F1
:10226000044600680169E26821F4405111430161AC
:102270002169A068E2690843616911432268084343
:10228000D16849F20C6399430143D16020684169E8
:10229000A26921F4407111434161E2696425B2F5FC
:1022A000004F9748974922684FF032083FD08A4242
:1022B00001D082427CD1FEF759FF00EBC00101EB57
:1022C000001061688900B0FBF1F6FEF74FFF00EBEC
:1022D000C00101EB001061688900B0FBF1F0B0FBB8
:1022E000F5F06FF01801484306EB800108EB011090
:1022F000B0FBF5F000F0F006FEF738FF00EBC00190
:1023000001EB001061688900B0FBF1F0B0FBF5F063
:1023100006EB0016FEF72AFF00EBC00101EB0010F0
:1023200061688900B0FBF1F7FEF720FFD2E08A4236
:1023300001D082423DD1FEF719FF00EBC00101EB55
:10234000001061684900B0FBF1F0B0FBF5F0060148
:10235000FEF70CFF00EBC00101EB001061684900C3
:10236000B0FBF1F7FEF702FF00EBC00101EB00103C
:1023700061684900B0FBF1F0B0FBF5F06FF01801B7
:10238000484307EB800108EBC100B0FBF5F000F01B
:10239000F80006EB4006FEF7E9FE00EBC00101EB9A
:1023A000001061684900B0FBF1F7FEF7DFFE3CE08A
:1023B00055E0FEF7CBFE00EBC00101EB00106168B9
:1023C0004900B0FBF1F0B0FBF5F00601FEF7BEFEF0
:1023D00000EBC00101EB001061684900B0FBF1F7B0
:1023E000FEF7B4FE00EBC00101EB0010616849008C
:1023F000B0FBF1F0B0FBF5F06FF01801484307EBCC
:10240000800108EBC100B0FBF5F000F0F80006EB2E
:102410004006FEF79BFE00EBC00101EB0010616877
:102420004900B0FBF1F7FEF791FE00EBC00101EBB4
:10243000001061684900B0FBF1F0B0FBF5F06FF0FF
:102440001801484307EB800108EBC100B0FBF5F031
:1024500000F00700216830448860BDE8F081FEF795
:1024600075FE00EBC00101EB001061688900B0FB54
:10247000F1F6FEF76BFE00EBC00101EB00106168A6
:102480008900B0FBF1F0B0FBF5F06FF018014843A4
:1024900006EB800108EB0110B0FBF5F000F0F00650
:1024A000FEF754FE00EBC00101EB001061688900EB
:1024B000B0FBF1F0B0FBF5F006EB0016FEF746FEC0
:1024C00000EBC00101EB001061688900B0FBF1F77F
:1024D000FEF73CFE00EBC00101EB001061688900D3
:1024E000B0FBF1F0B0FBF5F06FF01801484307EBDB
:1024F000800108EB0110B0FBF5F000F00F00A9E738
:10250000001401400010014090F83910212901D039
:10251000022070478168B1F5805F016A0BD04A1CC8
:102520000262026809785160C18C491E0904090CD5
:10253000C1840ED017E009880268C1F30801516018
:1025400001690029016A02D0491C0162ECE7891C7B
:10255000FBE70168CA6822F08002CA600068C168AF
:1025600041F04001C1600020704700000148FFF7C2
:1025700023B90000880500200148FFF71DB90000BD
:10258000C8050020FEE70907090E002804DB00F15A
:10259000E02080F80014704700F00F0000F1E02008
:1025A00080F8141D704702E008C8121F08C1002AF5
:1025B000FAD170477047002001E001C1121F002AC4
:1025C000FBD1704710B5028842800B885CBA04804A
:1025D000A21AC368B2F5805F04DD5B1EA2F500524B
:1025E000C36006E012F5805F03DA5B1C02F500525F
:1025F000C360826204EB4332038C9FED0C1AD21A43
:1026000000EE102A0261F8EEC00A80EE810ADFEDCA
:10261000080A80ED050A80EE201A80ED061A4A8825
:1026200052BAC280498849BA018110BD610BB641D6
:1026300000001042FEF75CFCFFF71CFCFFF7AEFA4F
:10264000FFF772FAFFF728FAFFF74AFAFFF750FB95
:10265000FFF772FBFFF79AFBFFF7B8FBFFF78AFA69
:1026600000F00EF8FEE701460020842900D0C81CC7
:10267000704710B500B9012000F01CFB002010BD10
:1026800010B500F03DFB002010BD7FB50D4604469F
:102690004169B0F9080081B1A16971B1FFF7E3FFA9
:1026A000D4E905128DE80700D4E900102B46226911
:1026B00000F05BFC039004B070BDFFF7D4FF03A9EA
:1026C000CDE90001208A2B4682B2D4E9001000F047
:1026D0001FFC012801D00020EDE70398EBE7000084
:1026E0002DE9F041184C0F46054666692068001D2B
:1026F00000F01AFA38B9206890F82C1001208840B0
:10270000A1698143A161681C07D137B12168BDE887
:10271000F0410E48091D00F04CBA20683544B5421E
:102720004560216805D2A068BDE8F041091D00F0B0
:1027300028BA6068091D00F024FA206B854200D297
:102740002563BDE8F081000024000020A4070020DC
:102750002DE9F041054600F039FA2E4C2069401C65
:10276000206120682C4F10B1E06940B32DE0256056
:102770002069012829D1002606EB860007EB80009E
:1027800000F0F1F9761C072EF6D323488C3000F0C8
:10279000EAF92148A03000F0E6F91F48B43000F013
:1027A000E2F91D48C83000F0DEF91B48DC3000F0CB
:1027B000DAF919488C3060601430A06005E02068B8
:1027C000E96AC06A884200D82560E06A401CE0627D
:1027D000E96A0120A26988401043A06101EB8100F1
:1027E00007EB8000291D00F0E4F900F00FFAE06922
:1027F00000280CD02068E96AC06A884207D20749DD
:102800004FF080500860BFF34F8FBFF36F8FBDE86C
:10281000F081000024000020C806002004ED00E044
:1028200010B5044690F8510058B101280CD0022888
:102830000FD0502080F31188BFF34F8FBFF36F8FFD
:10284000FEE7206B00F0F6F92046BDE8104000F0EE
:10285000F1B910BD10484FF47051420706D0C01DA9
:102860000D4920F00700411AC1F570510B4A0023B1
:102870000144C2E900030839103A21F00701116050
:102880004B600B600B1AC0E9001393604FF00040DF
:102890005360D06070470000B8070020700000202F
:1028A000144E154CA6F1C8074FF08058DFF84C9035
:1028B00012E000BF00F08AF9F068C568281D00F03A
:1028C00033F92069401E2061E068401EE06000F09E
:1028D0009DF92846FFF7A4FFE0680028EAD1386890
:1028E0000128F9D9C9F80080BFF34F8FBFF36F8F6C
:1028F000F2E70000900700202400002004ED00E033
:102900002DE9F0479A46DDE9098481466FF003031B
:10291000206B03EB82021044089D20F0070670072D
:1029200007D0502080F31188BFF34F8FBFF36F8F14
:10293000FEE723180A5C83F834200A5C12B1401CBD
:102940001028F6D3002784F84370072D00D30625FE
:10295000E562C4E91157201D00F010F904F11800D8
:1029600000F00CF92461C5F107006462A061E7641E
:1029700084F8507052464946304600F0BFF8206057
:10298000B8F1000F01D0C8F80040BDE8F0870000A2
:1029900030B5114900E011460A688242FBD34B680A
:1029A0005C18844203D14068184448600846436874
:1029B0001C18944209D1084C103C2468A24209D04A
:1029C00052681A4442600A6812680260814200D06C
:1029D000086030BD0460F9E77000002006484168D7
:1029E000096829B14168C968C968496801637047C5
:1029F0004FF0FF31FAE7000024000020084840684B
:102A0000401C4FF0500080F3118804D0BFF34F8F6B
:102A1000BFF36F8FFEE7BFF34F8FBFF36F8FFEE7FC
:102A2000780000202DE9F0410546002700F09EF9CE
:102A3000314E306808B9FFF70DFFF06805424BD101
:102A4000C5B3083568070ED005F00700C0F10800CF
:102A50000544680707D0502080F31188BFF34F8FDB
:102A6000BFF36F8FFEE72DB37068854234D82248DC
:102A7000103001460C6801E020460C466168A9420E
:102A800002D221680029F7D131688C4224D007682E
:102A90002168016060680837411B10290FD960194F
:102AA000420708D0502080F31188BFF34F8FBFF347
:102AB0006F8FFEE710E041606560FFF769FF6168B6
:102AC0007068401A7060B268904200D2B060F068DE
:102AD00001430020C4E9000100F0E4FA780707D0C0
:102AE000502080F31188BFF34F8FBFF36F8FFEE745
:102AF0003846BDE8F08100006000002010B5031FDB
:102B00004FF080741C601B1F21F001011960191F18
:102B1000044B0B6014390A60091F6FF0020244383D
:102B20000A6010BDFD290008D0E9013201699A60F0
:102B3000D0E901235A604A68824201D182684A6022
:102B4000002202610868401E0860086870470000A3
:102B5000034B036003F1540008608020106070474D
:102B60009C020020704700F108014FF0FF32C0E9DD
:102B70000112C16001610021016070470021016103
:102B8000704730B50B685A1C02D000F1080202E011
:102B9000026904E02246546825689D42FAD95368C8
:102BA0004B6099608A60516008610168491C01604E
:102BB00030BD42684A6093688B6093685960916049
:102BC00008610168491C016070470000502080F3D3
:102BD0001188BFF34F8FBFF36F8F0A494868401CBD
:102BE000486001280CD10848006810F0FF0F07D09A
:102BF000502080F31188BFF34F8FBFF36F8FFEE734
:102C0000704700007800002004ED00E008494868A3
:102C100028B1401E486001D180F3118870475020D0
:102C200080F31188BFF34F8FBFF36F8FFEE7000073
:102C30007800002070B5002827D0144DA0F10804BA
:102C40006168E868014207D1502080F31188BFF322
:102C50004F8FBFF36F8FFEE722683AB1502080F3A9
:102C60001188BFF34F8FBFF36F8FFEE78143616021
:102C700000F07CF860686968084468602046FFF7E7
:102C800087FEBDE8704000F00DBA70BD6000002006
:102C90004FF0E02000210161816105494FF47A7213
:102CA0000968B1FBF2F1491E4161072101617047DA
:102CB0002000002010B5020014D00F48806B38B1FE
:102CC000502080F31188BFF34F8FBFF36F8FFEE763
:102CD00000F04CF800211046FFF702FD00F0E2F989
:102CE000002807D105494FF080500860BFF34F8F8F
:102CF000BFF36F8F10BD00002400002004ED00E042
:102D000010B586B00024039405AA04A903A804946E
:102D1000FFF71EFFDDE903010094CDE90110002358
:102D20000EA11048059A00F020F90F4900284863C9
:102D300011D0502080F31188BFF34F8FBFF36F8FF6
:102D40004FF0FF3008630120C8614C6106B0BDE858
:102D5000104000F04DB806B010BD000049444C458D
:102D600000000000A1280008240000200248816B18
:102D7000491C8163704700002400002010B51A4CE4
:102D8000A06B10B10120606210BD0020606220685D
:102D900021680068096B884204D8216820683431B2
:102DA000FFF7E0FEA0691149B0FA80F0C0F11F0002
:102DB00000EB800051F820206AB101EB800000F1A7
:102DC0000802416849684160914201D14968416007
:102DD000C868206010BD502080F31188BFF34F8F6A
:102DE000BFF36F8FFEE7000024000020C80600201C
:102DF0001CB537480168374A914207D1502080F30B
:102E00001188BFF34F8FBFF36F8FFEE70068314922
:102E1000491E884207D1502080F31188BFF34F8F9D
:102E2000BFF36F8FFEE72C4908780190FF200870F0
:102E300008788DF800009DF800009DF8002000F053
:102E4000F000904207D0502080F31188BFF34F8FDD
:102E5000BFF36F8FFEE79DF80000204B00F050009D
:102E600018700720986005E09DF8002052008DF84A
:102E70000020401E9DF800201206F5D4986003281B
:102E800007D0502080F31188BFF34F8FBFF36F8FAF
:102E9000FEE74FF440709860019808700C482030AD
:102EA000016841F470010160016841F07041016006
:102EB000FFF7EEFE00205860FDF7A6F9084801680C
:102EC00041F040410160FDF78BF900201CBD00007E
:102ED00000ED00E071C20F4100E400E07800002046
:102EE00034EF00E010B5502080F31188BFF34F8F0E
:102EF000BFF36F8F00F072F818B104494FF08050A3
:102F00000860002080F3118810BD000004ED00E08F
:102F10002DE9FF5F8346DDE90E87994616468A460E
:102F20009000FFF77FFD05001CD05420FFF77AFDCD
:102F3000040014D00020256384F85100CDE902403C
:102F4000CDE900874B46324651465846FFF7D8FC3C
:102F50002046FFF7FDFB012004B0BDE8F09F2846A6
:102F6000FFF768FE4FF0FF30F6E7F0B585B0DDE91A
:102F70000B640A9DA6B1DCB1542700972663022694
:102F800084F85160002604AFCDE90246CDE9005730
:102F9000FFF7B6FC2046FFF7DBFB049805B0F0BD59
:102FA000502080F31188BFF34F8FBFF36F8FFEE780
:102FB000502080F31188BFF34F8FBFF36F8FFEE770
:102FC0000548C16919B1806B18B100207047012014
:102FD0007047022070470000240000202DE9F041D6
:102FE0002E4C0027A06B40B1206A401C2062606A12
:102FF00000B101273846BDE8F0816669761C66613C
:1030000013D16068006838B1502080F31188BFF395
:103010004F8FBFF36F8FFEE76068A1686160A060AB
:10302000A06A401CA062FFF7D9FC206BDFF870801B
:10303000864209D36068006880B16068C068C5686E
:10304000686886420DD220632068C06A00EB800168
:1030500058F821000128CAD90127C8E74FF0FF30EE
:10306000F1E7281DFFF760FDA86A18B105F1180007
:10307000FFF75AFDE86A0121A26981401143A1616D
:1030800000EB800108EB8100291DFFF792FDE86A43
:103090002168C96A8842CDD30127CBE724000020EC
:1030A000C80600202DE9F0472C4D00242746A86BC8
:1030B00038B1FFF78BFDA86B401EA863A86B40B129
:1030C00046E0502080F31188BFF34F8FBFF36F8F1E
:1030D000FEE72969224E0120D1B3A6F1B40980464A
:1030E0003068E8B1F068C46804F11800FFF71CFD0F
:1030F000201DFFF719FDE06AAA6908FA00F11143E3
:10310000A96100EB800109EB8100211DFFF751FD52
:10311000E06A2968C96A8842E2D3C5F82480DFE7FB
:103120000CB1FFF75BFC2C6A44B14646FFF756FF33
:1031300000B16E62641EF9D100202862686A38B15D
:103140000849012738070860BFF34F8FBFF36F8F1F
:10315000FFF75CFD3846BDE8F08700002400002042
:103160007C07002004ED00E0A4310008091E0008DF
:10317000FDFF000000000000000100000000000052
:1031800000000000000610160006101600000000E7
:103190000000000001020304060708090000000007
:1031A0000102030464656661756C745461736B009D
:1031B000D03100080000002084000000A62500088F
:1031C000543200088400002034470000B62500086F
:1031D00000000000000000000000000000000000EF
:1031E00000000000010000001000000000000000CE
:1031F0000024F400000000000000000000000000B7
:1032000000000000000000000000000000000000BE
:1032100000000000000000000000000000000000AE
:10322000000000000000000000000000000000009E
:10323000000000000000000000000000000000008E
:10324000000000000000000000000000AAAAAAAAD6
:04325000000000007A
:04000005080001AD41
:00000001FF
