:020000040800F2
:10000000285D002081020008774100085938000867
:1000100075410008CD0B0008A14C0008000000004D
:10002000000000000000000000000000C101000806
:10003000A1100008000000001D0200084D44000847
:100040009B0200089B0200089B0200089B0200081C
:100050009B0200089B0200089B0200089B0200080C
:100060009B0200089B0200089B0200089B020008FC
:100070009B0200089B020008850E00089B020008F6
:100080009B020008AD0E00089B020008DD0B000873
:10009000D10B00089B0200089B0200089B0200088D
:1000A0009B0200089B0200089B0200089B020008BC
:1000B0009B0200089B0200089B0200089B020008AC
:1000C0009B0200089B0200089B0200089B0200089C
:1000D0009B020008ED4B00089B0200089B020008F1
:1000E0009B0200089B0200089B0200089B0200087C
:1000F0009B0200089B0200089B0200089B0200086C
:100100009B0200089B0200089B0200089B0200085B
:100110009B0200089B0200089B0200089B0200084B
:10012000B90E00089B020008C50E00089B020008DB
:100130009B0200089B0200089B020008F50B0008C8
:10014000E90B00089B0200089B0200089B020008C4
:100150009B0200089B0200089B0200089B0200080B
:100160009B0200089B0200089B0200089B020008FB
:100170009B0200089B0200089B0200080000000090
:100180009B0200089B020008ED4700089B02000844
:100190009B0200089B0200089B0200089B020008CB
:1001A00000000000000000009B020008DFF80CD0F7
:1001B00000F0A0FB00480047C1750008285D002042
:1001C0002C4B19680868B0E8F04F80F30988BFF33A
:1001D0006F8F4FF0000080F311887047000000001F
:1001E00008480068006880F308884FF0000080F33A
:1001F000148862B661B6BFF34F8FBFF36F8F00DF15
:1002000000BF00BF08ED00E0DFF80C00016841F41A
:1002100070010160704700BF88ED00E0EFF30980D6
:10022000BFF36F8F134B1A681EF0100F08BF20ED3D
:10023000108A20E9F04F106009B44FF0500080F3AD
:100240001188BFF34F8FBFF36F8F08F0D9FA4FF0CB
:10025000000080F3118809BC19680868B0E8F04F05
:100260001EF0100F08BFB0EC108A80F30988BFF3AE
:100270006F8F704704010020EFF305807047000086
:100280000648804706480047FEE7FEE7FEE7FEE730
:10029000FEE7FEE7FEE7FEE7FEE7FEE7F1440008C3
:1002A000AD0100082DE9F05F0546002092469B460F
:1002B00088460646814640241BE02846414647467C
:1002C000224600F031FA53465A46C01A914110D3E3
:1002D00011461846224600F018FA2D1A67EB01085D
:1002E0004F4622460120002100F00FFA17EB0009CB
:1002F0004E41201EA4F10104DFDC484631462A4667
:100300004346BDE8F09F40EA01039B0703D009E0A4
:1003100008C9121F08C0042AFAD203E011F8013BF1
:1003200000F8013B521EF9D27047D2B201E000F84A
:10033000012B491EFBD270470022F6E710B5134689
:100340000A4604461946FFF7F0FF204610BD2DE986
:10035000FE4F804681EA0300C00F0C46009021F05A
:10036000004123F00045B8EB0200A94105D2404608
:10037000214690461C460B46024623F0004010439F
:1003800047D0270DC7F30A00C3F30A510290401A61
:10039000019040286BDAC3F3130040F4801B0098EF
:1003A000924620B10023D2EB030A63EB0B0B0198BA
:1003B0005946C0F14002504600F0A7F906460D46E6
:1003C00050465946019A00F0BFF910EB0800614110
:1003D000002487EA115284EAE7731A4340D0009A56
:1003E00062B3019A012A4FEA075215DC001B61EB48
:1003F00002014FF0004202EA0752CDE90042001C20
:1004000041F5801132462B4600F0F6F903B0BDE805
:10041000F08F40462146F9E7001B61EB0201001C0A
:1004200041F5801300185B412018A2F5001747EB37
:10043000030140EAD570B6196D4111E06D084FEA2D
:10044000360645EAC0754FEA0752001B61EB020110
:10045000001C41F5801149084FEA30000019514154
:1004600032462B4603B0BDE8F04F00F0B6B9009815
:10047000012240000023D0EB020263EBE0730098FE
:1004800021464FEAE074B8EB000061EB0401E9E7B4
:1004900083F000435BE781F0004158E72DE9FE4F10
:1004A00081EA030404F0004421F0004100944FF07D
:1004B000000B23F0004350EA01045ED052EA03042B
:1004C0005BD0C3F30A54C1F30A552C44A4F2F334AD
:1004D0000194A0FB0254C1F3130141F48011C3F352
:1004E000130343F4801301FB024400FB034E840A10
:1004F000970A44EA815447EA8357A4FB07680295A8
:100500008D0A05FB07854FEA932C04FB0C54270545
:10051000029D4FEA065847EA1637B5EB08056EEB21
:10052000070C870E920E47EA811742EA8312A7FB57
:100530000201B6EB0B0164EB00042B0D43EA0C3314
:100540005E1844EB1C50DA465146E7FB0201C5F346
:1005500013044FEA0B3343EA14534FEA0432019C6D
:1005600043EA0603A4F10C040294009CCDE900B414
:1005700000F042F903B0BDE8F08F00200146F9E732
:100580002DE9F04D81EA030404F0004B21F0004511
:1005900014464FF0000A23F0004150EA050220D033
:1005A00054EA01021DD0C5F30A570246C5F31303EE
:1005B000C1F31300C1F30A5640F4801543F48013CD
:1005C000A7EB0608101BD64608F2FD3873EB0500B2
:1005D00002D308F1010801E092185B41B8F1000F65
:1005E00003DA00200146BDE8F08D00204FF48011B1
:1005F000064684460EE0171B73EB050705D3121B56
:1006000063EB050306434CEA010C49084FEA30004E
:1006100092185B4150EA0107EDD152EA030012D073
:1006200082EA040083EA0501084305D0101BAB41B0
:1006300006D20122002306E000224FF0004302E030
:100640006FF0010253101AEB06004CEB085110EB4F
:100650000A0041EB0B01BDE8F04D00F0BEB80EB54D
:10066000C10F80EAE0700844CA07002140F233431A
:100670008DE80E000A460B4600F0BEF803B000BD40
:1006800000F0004230F000400AD0C10D01F5607169
:10069000C0F3160042EA0151C208400711437047F7
:1006A00000200146704701F0004330B421F00041C2
:1006B00050EA010206D00A0DA2F56072C1F31301DF
:1006C000002A02DC30BC00207047440F44EAC10419
:1006D000C100E01830BC00EBC25000F047B830B5A4
:1006E0000B46014600202022012409E021FA02F5F0
:1006F0009D4205D303FA02F5491B04FA02F528448A
:10070000151EA2F10102F1DC30BD202A04DB203AE3
:1007100000FA02F1002070479140C2F1200320FA54
:1007200003F3194390407047202A04DB203A21FA52
:1007300002F00021704721FA02F3D040C2F12002FA
:100740009140084319467047202A06DBCB17203A10
:1007500041FA02F043EAE07306E041FA02F3D040C6
:10076000C2F1200291400843194670470029A8BFF2
:100770007047401C490008BF20F00100704710B4CA
:10078000B0FA80FC00FA0CF050EA010404BF10BC7F
:10079000704749B1CCF1200421FA04F411FA0CF1AC
:1007A00018BF012121430843A3EB0C01CB1D4FEAE5
:1007B00000614FEA102042BF002010BC704700EBE0
:1007C000C35010440029A4BF10BC7047401C49000E
:1007D00008BF20F0010010BC704710B5141E73F163
:1007E000000408DA401C41F1000192185B411A43F1
:1007F00001D120F0010010BD2DE9F04D92469B463D
:1008000011B1B1FA81F202E0B0FA80F220329046E2
:10081000FFF77BFF04460F4640EA0A0041EA0B015E
:1008200053465A46084313D0114653EA010019D0E3
:10083000C8F140025046FFF777FF05460E46504686
:1008400059464246FFF761FF084305D0012004E006
:1008500020463946BDE8F08D0020054346EAE076A3
:100860002C4337430A986305E40AA0EB08000022F2
:10087000FD0A44EA47540A3002D500200146E9E760
:10088000010510196941DDE9084500196941BDE814
:10089000F04DA2E7C1F30A52C1F3130140F2FF3356
:1008A00041F480119A4202DA00200146704740F27A
:1008B00033439A42A2F2334202DC5242FFF734BF82
:1008C000FFF723BF30B5041E71F1000404DB4FF0C5
:1008D0000044404264EB0101141E73F1000405DB87
:1008E0001C464FF00043524263EB0403994208BF99
:1008F000904230BD064C074D06E0E06840F0010331
:1009000094E8070098471034AC42F6D3FFF752FC46
:100910004C8E00086C8E00082DE9F04D00231A461D
:100920001B1A8A4103DB00200146BDE8F08DC1F3AC
:100930000A52C1F3130141F480154FF0000BD107A7
:1009400002D100186D41521E0027044640F2FF11EB
:10095000384601EB620A3E468046024600204FF4CC
:100960008011FFF7E1FEC2197141BB1846EB01008F
:10097000B4EB030C75EB000C04D3E41A65EB000533
:1009800017460E46241908F101006D4180463428AF
:10099000E3DDF91946EB0600091BA84103D24FF02D
:1009A000FF32134601E0002213461BEB070046EB23
:1009B0000A51BDE8F04DFFF710BF30B58C1810F8A4
:1009C000012B12F00F0301D110F8013B120906D1DF
:1009D00010F8012B03E010F8015B01F8015B5B1ECE
:1009E000F9D101E001F8013B521EFBD1A142E6D34F
:1009F000002030BD10B50146806B026C12F0500F24
:100A000005D0026CD20626D500F036FC10BD016C74
:100A100041F40071016401688A6812F0405F17D1E7
:100A2000027EAAB9CA6A12F4700F02D08A6852050F
:100A30000ED44A6822F020024A60016C21F48071D1
:100A40000164016CC90403D4016C41F0010101642B
:100A500000F010FC10BD806BC26CBDE81040084671
:100A6000104710B5806B40210164416C41F00401D6
:100A7000416400F001FC10BD10B5806B00F0FBFB81
:100A800010BD0000464910B54A6822F440324A6061
:100A90004A6843681A434A6001684A6822F48072CF
:100AA0004A6001684A68036942EA03224A600168B1
:100AB0004A6822F040724A6001684A6883681A43B3
:100AC0004A6001688A6822F400628A6001688A6864
:100AD000C3681A438A60816A6FF07062D14201680C
:100AE0008A6822F070628A6001688A680CD0836A22
:100AF0001A438A6001688A6822F040528A6001685D
:100B00008A68C36A1A4301E022F040528A60016891
:100B10008A6822F002028A6001688A68037E42EADB
:100B200043028A6090F82010002901684A680FD0BB
:100B300042F400624A6001684A6822F460424A60F6
:100B400001684A68174C436A04EB43331A4301E0D7
:100B500022F400624A600168CA6A22F47002CA6222
:100B60000168CA6A838B104C04EB03531A43CA62B0
:100B700001688A6822F400728A6001688A6890F8C5
:100B8000303042EA43228A6001688A6822F4806237
:100B90008A6001688A68406942EA8020886010BDE6
:100BA0000023014000E0FFFF0000F0FF064910B500
:100BB000322201F1C80000F04DFC0348BDE81040AE
:100BC000C83000F0D1BB000074140020FEE7000024
:100BD000014800F048BE0000E4150020014800F084
:100BE00042BE0000E4150020014800F03CBE0000B9
:100BF0000C160020014800F036BE00000C16002044
:100C000010B505F0B5F9BDE8104005F0CFB900000A
:100C100070B50C46054664A100F006F918B12046EF
:100C200006F0E4FDB9E061A1284600F0FDF818B136
:100C3000204606F02FFEB0E05DA1284600F0F4F853
:100C400018B1204606F07AFEA7E05AA1284600F027
:100C5000EBF818B1204606F0B1FE9EE056A12846FA
:100C600000F0E2F80028DDD154A1284600F0DCF8BD
:100C70000028D7D152A1284600F0D6F80028D1D1BB
:100C800050A1284600F0D0F80028CBD14EA128462C
:100C900000F0CAF80028C5D14CA1284600F0C4F8DD
:100CA00000287AD14AA1284600F0BEF8002874D165
:100CB00048A1284600F0B8F800286ED146A1284681
:100CC00000F0B2F8002868D144A1284600F0ACF842
:100CD000002862D142A1284600F0A6F800285CD185
:100CE00040A1284600F0A0F8002856D13EA1284691
:100CF00000F09AF8002850D13CA1284600F094F862
:100D000000284AD13AA1284600F08EF8002844D1A4
:100D100038A1284600F088F800283ED136A12846A0
:100D200000F082F8C8BB35A1284600F07DF8A0BBD2
:100D300033A1284600F078F878BB32A1284600F0AD
:100D400073F850BB30A1284600F06EF810B106F0E1
:100D500023FA22E02DA1284600F066F8E8B92CA17C
:100D6000284600F061F8C0B92AA1284600F05CF8D6
:100D700098B929A1284600F057F870B927A128464C
:100D800000F052F848B926A1284600F04DF820B9E5
:100D900024A1284600F048F808B1002070BD214683
:100DA000284605F023FBF8E72A3100002A3200002C
:100DB0002A3300002A3400002A3500002A360000B9
:100DC0002A3700002A3800002A39000023310000A9
:100DD00023320000233300002334000023350000B9
:100DE0002336000040310000403200004033000054
:100DF000403400004035000040360000403700001D
:100E00004038000040390000243100002432000046
:100E1000243300002434000024360000243700006E
:100E2000243800002439000030B50C46054603F094
:100E3000F1FA0346204603F0EDFA83420AD100207E
:100E400004E0295C225C914204D1401C9842F8DB0A
:100E5000012030BD002030BD0022835C23B18B54C3
:100E6000521C642AF9DB00E08B540120704700001B
:100E700000B505F0B5FD02490020A1F8AC0000BDA9
:100E80001C12002008B5064801F062F905480078F8
:100E900000F0BEF80448006801684068009008BD92
:100EA000181B00208D110020181A0020014801F0A5
:100EB0004FB90000781B0020014801F049B900003B
:100EC0008415002010B5044801F042F9BDE8104037
:100ED0000249034807F092B9D81B00208001002086
:100EE0006C01002001681823CAB2103AB2FBF3F279
:100EF000054B6FF30901032A9B5CC36500D9091DEB
:100F00008165084670470000E48C000810B5014672
:100F100000208B698A6A4FF0C07453B1B3F5005F4B
:100F200015D072B1012A0CD0022A0AD0032A09D1A5
:100F300004E01AB1012A06D0022A03D1C96AC90104
:100F400000D5012010BDC96AA142FAD010BD002A07
:100F5000F7D0012AF2D0022AF3D0032AF3D010BD31
:100F600030B50468256825F4802525600468636031
:100F70008368402B036803D099600068C26030BD6D
:100F80009A600068C16030BD2DE9F04781460027B6
:100F9000012603F03FFA050034D00024DFF8688012
:100FA0002DE0621C2146484603F03CFA17A1FFF7EA
:100FB0003BFF88B122463946484603F033FA03F036
:100FC0008FF910EE100AFFF75BFB08EBC602671CF7
:100FD000C2E90001761C11E0281B01280ED12A4627
:100FE0003946484603F01EFA03F07AF910EE100A6B
:100FF000FFF746FB08EBC602C2E90001641CAC42E5
:10100000CFDB3046BDE8F087480800202000000014
:1010100070B52149214B28280A780BD012B1985479
:10102000521C0A7029280BD10024D0B225461C542A
:101030000C700BE0002AF2D12820187001200870F3
:1010400070BD5819407858556D1CEDB2134803F027
:10105000E1F9401EA842F4DC104803F0DBF9184423
:101060000E4A00F8024C503AA2F114010B4803F06A
:101070000FF90A485038FFF787FF014607486438E0
:10108000FFF7C6FD0549002050390C54401CC0B282
:101090006428FAD370BD0000140000207C070020F3
:1010A0007047704702460020431E115C202904D07F
:1010B00011B1401C6428F8DB1846704710B50024B5
:1010C000A0B205F05DFD641C072CF9DD00224FF491
:1010D00000510B4801F0B6FA0122D102094801F093
:1010E000B1FA01229103084801F0ACFA06F096FC2F
:1010F00007F0C0FBBDE810400021044802F080B9B1
:10110000001802400010024000140240D8190020CC
:1011100078B50024009490F83C20012A19D00122CF
:1011200080F83C200A6807230568092A13D9EE686D
:101130000A3A02EB420293409E43EE600B788A68C3
:101140000A3B03EB43039A400368DD682A43DA60F5
:1011500010E0022078BD2E6902EB420293409E43CC
:101160002E610B788A6803EB43039A4003681D697C
:101170002A431A614A681F23072A13D205686E6B37
:10118000521E02EB820293409E436E630A8893B222
:101190000A79521E02EB820293400268556B2B4380
:1011A000536327E005680D2A12D22E6BD21F02EB83
:1011B000820293409E432E630B790A88DB1F92B212
:1011C00003EB83039A4003681D6B2A431A6311E003
:1011D000EE6A0D3A02EB820293409E43EE620B7977
:1011E0000A880D3B92B203EB83039A400368DD6AE1
:1011F0002A43DA621B4B0568194A9D420AD10D68E1
:10120000122D07D1556825F400055560556845F441
:101210008005556005689D421DD1134D0B68AB429A
:1012200001D0112B17D1536823F480035360536806
:1012300043F4000353600968A9420CD10B490C4ADE
:101240000968B1FBF2F101EB8101490000E0491EA0
:1012500000910029FBD180F83C40002078BD0000BF
:101260000023014000200140120000100001002076
:1012700040420F0070477047704770B504004FF050
:10128000000503D0206C002610B107E0012070BDDE
:10129000204600F01DF8666484F83C60206CC006AF
:1012A00010D4206C20F4885040F0020020642046C6
:1012B000FFF7E8FB6664206C20F0020040F00100BC
:1012C000206400E0012584F83C60284670BD0000E1
:1012D00070B586B0064614216846FFF72DF81D4903
:1012E0003068884233D11C480025016841F4807180
:1012F0000160006800F48070059017481438016898
:1013000041F0010101600068694600F001000590AC
:10131000402000900320CDE90105104801F0A0F81D
:10132000104C0F48C4E900050015A560C4E903503E
:10133000800060618000C4E9060525622046656280
:1013400000F0D6FF08B1FFF7ACFEB463A66306B0A9
:1013500070BD0000002001404438024000000240FF
:10136000106402408415002018B50021009190F807
:101370003C20012A07D0012280F83C2002689368B3
:10138000DB0702D011E0022018BD936843F001038F
:1013900093602A4A2A4B1268B2FBF3F202EB420234
:1013A00000E0521E0092002AFBD102689368DB071E
:1013B00041D0036C40F20164A34343F4807303649F
:1013C00053685B0505D5036C23F4005343F4805345
:1013D0000364036CDB0404D5436C23F0060343640D
:1013E00000E0416480F83C1016496FF0220313605E
:1013F00049680068CA06144906D088421BD1816832
:1014000011F0405F13D016E08842F8D00F4A9042A6
:1014100003D1D1F80423D206F1D00D4A90420AD16B
:10142000D1F8041301F01F011029E8D303E081680B
:1014300041F080418160002018BD000000010020C3
:1014400040420F00002301400020014000210140E4
:1014500000220140F8B50E4600210446009190F8A4
:101460003C00012807D0012084F83C0020688368F4
:10147000DB0702D011E00220F8BD836843F00103CE
:1014800083603748374B0068B0FBF3F000EB400057
:1014900000E0401E00900028FBD120688368DB0735
:1014A0005CD0236C40F20165AB4343F4807323644A
:1014B0004068400505D5206C20F4005040F4805071
:1014C0002064206CC00404D5606C20F006006064C9
:1014D00000E0616484F83C10A16B2448224DC8638D
:1014E000A16B23480864A16B2248C86421686FF08F
:1014F000220008602068416841F0806141602068F6
:10150000816841F4807181602168134632464C3114
:10151000A06B00F057FF68681749C006206806D026
:1015200088421BD1816811F0405F13D016E08842D9
:10153000F8D0124A904203D1D1F80423D206F1D058
:101540000F4A90420AD1D1F8041301F01F0110296B
:10155000E8D303E0816841F0804181600020F8BD5C
:101560000001002040420F0000230140F50900085F
:10157000790A0008630A00080020014000210140A8
:101580000022014090F82020012A07D0022A05D02D
:10159000416A41F48021416201207047006842693C
:1015A0000A43426100207047F0B590F8205004686B
:1015B000A468012D05D0022D03D0416A41F4802199
:1015C00053E014F0406F01D1E5004BD5C4F3016442
:1015D000022C03D9416A41F4000146E00125A540EF
:1015E0001D608D684FF4C0739DB1CE6835434E6861
:1015F00045EAC605066803EB0417F5514FF4C275BA
:10160000076805EB04150E697E51097D012905D097
:1016100009E00E88CD6845EA4655EBE701684E596A
:1016200046F480764E511179D2F805504FF4C676C3
:1016300041EA0525016806EB04168D511178D2F8B0
:1016400001204FF4C47541EA0221026805EB04153C
:101650005151006803EB0411425842F0010242501C
:101660000020F0BD416A41F4001141620120F0BD4B
:1016700010B590F82020012A07D0022A05D0416A2F
:1016800041F480214162012010BD3B48D0F8002286
:1016900042F00102C0F80022D0F8002222F47C526D
:1016A000C0F80022D0F800224B6A42EA0322C0F8B8
:1016B00000220A7D02F01F0301229A40D0F81C325A
:1016C0009343C0F81C32CB69B3B9D0F80C329343C2
:1016D000C0F80C328C894B6864F31F434C6900EBF3
:1016E000C404C4F840320C890B6864F31F434C698E
:1016F00000EBC404C4F84432CB69012B16D1D0F8F6
:101700000C321343C0F80C320C884B6864F31F434F
:101710004C6900EBC404C4F840320C89CB6864F314
:101720001F434C6900EBC404C4F844328B69002B9E
:10173000D0F804320ED01343C0F804320B69002BEA
:10174000D0F8143208D01343C0F81432096A0129C2
:1017500004D008E09343EFE79343F5E7D0F81C1279
:101760001143C0F81C12D0F8001221F00101C0F89A
:101770000012002010BD000000640040704730B52A
:1017800090F82040012C05D0022C03D0416A41F48E
:1017900080215DE00468002955D02469A40754D055
:1017A0004FF4D874056804EB01142D5915F00405A5
:1017B000956005682D594ED0ED08556005682C5987
:1017C000C4F34004D4604FF4DA74056804EB0114E8
:1017D0002D5905F00F05156105682D59C5F307252D
:1017E000956105682C59240C54614FF4DC7204682F
:1017F00002EB0112A4581C700468A458240A5C70FF
:101800000468A458240C9C700468A258120EDA7064
:101810004FF4DE72046802EB0112A4581C710468D4
:10182000A458240A5C710468A458240C9C710468B0
:10183000A258120EDA71006881B1016941F02001ED
:101840000161002030BDE468A8E7416A41F400115D
:101850004162012030BD6D0D1560AFE7C16841F0F8
:101860002001C160EDE72DE9F05F05460068002426
:101870004669D0F804908768D0F80CB0D0F810A072
:10188000D0F81880F10748D0F90714D00121816001
:10189000B80703D5284600F00EFC0CE0780702D507
:1018A0004FF4006407E0380702D54FF4805402E09B
:1018B000284600F0FFFBF80516D529684FF4807024
:1018C0008860B80503D5284600F0F7FB0CE07805E2
:1018D00002D544F4005407E0380502D544F48044AE
:1018E00002E0284600F0E8FBF80316D529684FF41B
:1018F00080308860B80303D5284600F0E0FB0CE098
:10190000780302D544F4004407E0380302D544F4D8
:10191000803402E0284600F0D1FB300707D55FEAAB
:10192000CB6004D52968102044F40074C8607007A7
:101930004FF0080707D55FEA0B7004D52868C76029
:10194000284600F0A9F9B00706D52868C0688007C6
:1019500002D0284600F0A2F9700607D55FEACA60F7
:1019600004D52968102044F480640861B00607D5C6
:101970005FEA0A7004D528680761284600F06AFB10
:10198000F00606D528680069800702D0284600F0D6
:1019900062FBB00308D55FEAC96005D5296810204D
:1019A0004860284600F058FBF00307D55FEA09704D
:1019B00004D528684760284600F082FB300446D5ED
:1019C0005FEA497040D5F00504D55FEAC87001D0E0
:1019D00044F00104B00504D55FEA887001D544F0F5
:1019E0000204700504D55FEA487001D544F0040490
:1019F000300529D518F0700F26D008F07000402867
:101A000015D006DC102809D020280AD0302816D19D
:101A10000AE050280ED0602811D10EE044F00804EE
:101A20000DE044F010040AE044F0200407E044F024
:101A3000400404E044F0800401E044F48074286829
:101A4000816921F070018161296804204860002CBF
:101A500005D0686A204368622846FFF78FFEBDE81C
:101A6000F09F70B5040003D094F8200010B104E09A
:101A7000012070BD204600F081F82068016821F047
:101A80000201016000F0E4FD0546052604E000F0D7
:101A9000DFFD401B0A2811D8206840688007F6D473
:101AA0002068016841F00101016000F0D1FD0546A8
:101AB0000BE000F0CDFD401B0A2806D9606A40F417
:101AC0000030606284F82060D2E720684068C00778
:101AD000EFD0207E0128206801683DD021F08001F0
:101AE0000160607E01282068016838D021F0400143
:101AF0000160A07E01282068016833D021F0200118
:101B00000160E07E0128206801682ED041F01001BC
:101B10000160207F01282068016829D021F0080198
:101B20000160607F01282068016824D021F0040151
:101B30000160D4E902010843D4E9041211430843C7
:101B40006168491E08432168C86100206062012065
:101B500084F82000002070BD41F08001C0E741F012
:101B60004001C5E741F02001CAE721F01001CFE7AD
:101B700041F00801D4E741F00401D9E7F0B587B09E
:101B8000044614216846FEF7D7FB3E4B3E48DFF87B
:101B9000F0E01968D4F800C03B4A03250226092763
:101BA00010300024491CF4452AD11960012907D1BD
:101BB000016841F000710160006800F0007005905C
:101BC000106840F0080010601068CDE9005600F081
:101BD0000800CDE9047069462C48CDE9024500F0C3
:101BE0003FFC00220621132000F0D4FD132000F05A
:101BF000C3FD00220621142000F0CCFD14203BE0A0
:101C0000DFF88CE0F44539D1D0F800C04CF0806C9E
:101C1000C0F800C0D0F800C001290CF0806CCDF8ED
:101C200014C0196007D1016841F0007101600068BB
:101C300000F000700590106840F00200106010681D
:101C400002AB00F0020005904FF44050CDE90006D1
:101C500083E8B00069460F4800F002FC002206212C
:101C60003F2000F097FD3F2000F086FD0022062176
:101C7000402000F08FFD402000F07EFD07B0F0BD59
:101C800000640040D400002030380240000C0240C4
:101C9000006800400004024070470000F0B50646AE
:101CA0000068E349E34DE44C93B088424DD16B4664
:101CB00002AA0021E148FFF762FD029B40F20122E7
:101CC000281DA3F20121934231D01CDC40F2051CF7
:101CD000DB4AA3F2051700F1080163457ED009DC59
:101CE0003B1D7CD0012B7BD00E3A022B79D0032BED
:101CF000DCD1D9E0012F75D0022F74D00C2F73D016
:101D00000D2FD3D13BE105296FD008DC01291DD06F
:101D100002292AD0032977D00429C7D181E00629D6
:101D200032D0072930D0B1F5887FBFD13EE0C4481A
:101D3000002269463D3804F089FE0F2004F0CCFEF5
:101D4000B4F85C00401CA4F85C002FE1BC48002201
:101D500069461D3804F07AFE102004F0BDFEB4F888
:101D60006200401CA4F8620020E1B54800226946E8
:101D70005D3804F06BFE0E2004F0AEFEB4F85600A1
:101D8000401CA4F8560011E1D81FC0B2AC4A28701C
:101D9000BDF80210FD3A02EB401049BAC18009209B
:101DA00004F09AFEA08A401CA082FFE09DF800107B
:101DB00001709DF801104170B0F9001000EE101A8A
:101DC000A049B8EEC00A81ED020A9DF80220027017
:101DD0009DF803204270B0F9000008E083E038E08D
:101DE00040E050E09CE0B8E0BCE026E00CE000EE13
:101DF000100AB8EEC00A81ED030A9DF8040048718C
:101E0000208F401C2087D1E08D4801226946BD38D3
:101E100004F01CFE0B2004F05FFE6088401C608014
:101E2000C4E0874869469D3804F0BEFB062004F0F4
:101E300053FEE089401CE081B8E0814869467D3866
:101E400004F0B2FB052004F047FE2089401C2081ED
:101E5000ACE078489DF80020801D017862F30711FE
:101E60000170A3E076499DF800201D394A709DF865
:101E7000012002709DF8022042709DF803200A7034
:101E80000088488092E09DF8003003709DF8013092
:101E90004370038813809DF8023003709DF803306F
:101EA0004370008850802CE09DF8001001709DF870
:101EB00001104170018811819DF8021001709DF898
:101EC00003104170018851819DF8041001709DF844
:101ED0000510417000889081032004F0FDFD208CE6
:101EE000401C208462E09DF8000008709DF801000D
:101EF00048709DF8020088709DF80300C87008685B
:101F000010609DF8040008709DF8050048709DF869
:101F1000060088709DF80700C8700868506045E0AA
:101F20009DF8000008709DF8010048709DF80200BF
:101F300088709DF80300C870086890609DF80400E0
:101F400008709DF8050048709DF8060088709DF89F
:101F50000700C8700868D06028E036499DF8000086
:101F6000891C0AE033499DF80020C91C087862F3F7
:101F700003009DF8012062F30710087016E02D4859
:101F80009DF80020103002709DF8012042709DF8ED
:101F900002200A709DF803204A709DF804208A7080
:101FA0009DF80520CA700968C0F8021026493068FB
:101FB000884228D110AB09AA00212448FFF7DFFB93
:101FC0000998A0F2012008281DD2DFE800F0040FD4
:101FD0001E1E1E1E1E1E002210A91D4804F036FDE6
:101FE0000C2004F079FD34F84A0F0AE0184800226A
:101FF00010A9203004F02AFD0D2004F06DFD34F806
:10200000500F401C208013B0F0BD0998104AC01E2C
:10201000C0B26870BDF84210C03A02EB401049BA35
:10202000C1800A2004F058FD608B401C6083EAE701
:102030000064004038000020CC120020E41500208D
:102040007D11002028140020006800400C1600209C
:1020500040100020704770477047000070B504467C
:1020600090F82000012804D0606A40F400206062EB
:1020700018E0022084F820002068016821F00101A6
:10208000016000F0E5FA05460EE000BF00F0E0FA5E
:10209000401B0A2808D9606A40F4003060620520BD
:1020A00084F82000012070BD20684068C007EDD191
:1020B000606270BD704770477047704770477047E7
:1020C00070472DE9F0410446876D00F0C1FA0646DD
:1020D00094F835000025022806D08020606584F839
:1020E00034500120BDE8F0812068016821F016011C
:1020F00001602068416921F080014161206C08B9CC
:10210000A06C20B12068016821F0080101602068FE
:10211000016821F0010101600BE000F099FA801BD9
:10212000052806D92020606504F8345F032060701C
:10213000D8E720680068C007EFD194F85C103F2012
:102140008840B86004F8345F012060700020C9E75F
:102150002DE9F84304464FF00009CDF8009063489C
:102160004FF41651A56D0068B0FBF1F72E6894F896
:102170005C10082000FA01F131420FD021680A6892
:1021800052070BD50A6822F004020A6094F85C102A
:102190008840A860606D40F00100606594F85C10B4
:1021A0004FF0010808FA01F0304208D0216849696F
:1021B000090604D5A860606D40F00200606594F8DF
:1021C0005C1004208840304208D0216809688907E3
:1021D00004D5A860606D40F00400606594F85C1060
:1021E00010208840304218D021680968090714D5AA
:1021F000A86020680168490304D50068000308D579
:10220000A16C07E00168C90503D4016821F0080149
:102210000160216C09B12046884794F85C102020A9
:102220008840304231D021680968C9062DD5A860A0
:1022300094F8350005282068016806D0490347D581
:10224000006800031DD4616C1CE021F016010160E0
:102250002068416921F080014161206C08B9A06CBF
:1022600020B12068016821F00801016094F85C1039
:102270003F208840A86084F8349084F83580216D30
:102280001FE0E16B09B120468847606D00282BD024
:10229000606DC00714D0052084F8350020680168FF
:1022A00021F0010101600098401C0090B84203D861
:1022B00020680068C007F6D184F8349084F835802F
:1022C000E16C002910D001B02046BDE8F04308477A
:1022D0000168C905D5D4016821F01001016084F8B6
:1022E000349084F83580CCE7BDE8F8830001002005
:1022F0002DE9F041044600F0ABF906465CB100253B
:1023000084F83450022084F835002068016821F0F8
:10231000010101600DE00120BDE8F08100F098F9B5
:10232000801B052805D920206065032084F835002E
:10233000F2E720680068C007F0D1226811682048E1
:102340000140D4E901031843D4E903363343184369
:1023500063691843A3691843E3691843236A184360
:102360000843616A042903D1D4E90B1319430843D4
:10237000106020684069666A20F0070130460E430D
:10238000012704280CD1A06A0643E06A40B1204628
:10239000FEF7BCFD20B14020606584F83570BAE7D7
:1023A000206846612046FEF79DFD94F85C203F21A1
:1023B00091408160656584F835700020ACE70000CD
:1023C0003F8010F02DE9F0410446866D90F834000E
:1023D000002501280DD0012084F8340094F83570D0
:1023E0000020012F07D084F8340002252846BDE8DC
:1023F000F0810220FBE7022784F8357060652046F3
:10240000FEF7AEFD94F85C103F208840B060206875
:10241000016841F0160101602068416941F08001C6
:102420004161206C20B12068016841F00801016021
:102430002068016841F001010160D7E770B50446EA
:1024400000F006F90546601C02D0044800780444F8
:1024500000F0FEF8401BA042FAD370BDF40000204B
:102460002DE9F84FDFF890B100224FF001084FF04E
:10247000030A4FF00F090BF1040E00BF0B6808FAB6
:1024800002F42340A3426ED14D68022D01D0122DDB
:102490000ED1D50800EB850CDCF820505607F70E5E
:1024A00009FA07F6B5430E69BE402E43CCF820600A
:1024B000066855000F790AFA05FC07F0030726EABB
:1024C0000C06AF40374307604E68012E05D0022E40
:1024D00003D0112E01D0122E0ED18768CE6827EAC4
:1024E0000C07AE403E4386604668A6430C79C4F3B1
:1024F0000014944034434460C4688E6824EA0C0499
:10250000AE402643C6604C68E4006FD53B4C25685E
:1025100045F480452560246822F0030504F48044D6
:102520000094374C2E19D6F8084895072F0F09FA52
:1025300007F5AC43334DA84201D100252EE0324DC2
:10254000A84201D1012529E0304DA84201D1022540
:1025500024E02F4DA84201D103251FE02D4DA842B4
:1025600002D104251AE041E02B4DA84201D10525F6
:1025700014E02A4DA84201D106250FE0284DA842BB
:1025800001D107250AE0274DA84201D1082505E021
:10259000254DA84201D1092500E00A25BD4025436B
:1025A000C6F80858DBF800405D464E689C43F603C9
:1025B00000D51C432C60DEF8004075464E689C43F5
:1025C000B60300D51C432C600B4D08352C684E68B3
:1025D0009C43F60200D51C432C60074D0C352C683B
:1025E0004E689C43B60200D51C432C60521C102A36
:1025F000FFF444AFBDE8F88F003C0140443802408E
:102600000030014000000240000402400008024087
:10261000000C02400010024000140240001802406A
:10262000001C0240002002400024024000690840D3
:1026300000D001207047426931EA020200D109044A
:10264000816170470AB1816170470904FBE70000AE
:102650000148806870470000F400002070B5040055
:1026600011D021684CF6CC400860216845F25550E5
:102670000860D4E9000141602168A0688860FFF724
:10268000E7FF054609E0012070BD00BFFFF7E0FF4E
:10269000401B302801D9032070BD2068C068002885
:1026A000F4D121684AF6AA200860002070BD0068B5
:1026B0004AF6AA21016000207047000002488168A4
:1026C0000278114481607047F40000200B4810B577
:1026D000016841F400710160016841F480610160AA
:1026E000016841F480710160032000F073F80F204D
:1026F00000F006F800F024F8002010BD003C024075
:1027000070B50D4D04464FF47A712878B1FBF0F0A6
:102710000A490968B1FBF0F000F02BFD48B9102C14
:1027200007D200222146501E00F034F800206C60D1
:1027300070BD012070BD0000F400002000010020E9
:102740000C4882B0016841F480410160006800F4E7
:10275000804000900748001F016841F080510160EF
:102760000068002200F0805000900F21901E02B0FF
:1027700000F010B844380240002809DB00F01F02C6
:10278000012191404009800000F1E020C0F80011D3
:1027900070470000F0B40E4B1B680C46C3F30223D5
:1027A000C3F10705042D00D90425191D072901D2FD
:1027B000002300E0DB1E012606FA05F1491E214038
:1027C00099409E40761E16403143F0BC02F092BA0A
:1027D0000CED00E0064900F0070208684FF6FF0321
:1027E000184040EA0220034A104308607047000086
:1027F0000CED00E00000FA052DE9F0470E4605005B
:1028000065D0DFF81481D8F80000F7B200F00F00AF
:10281000B04207D288F80070D8F8000000F00F002E
:10282000B04254D128683D4C810712D5400703D5EA
:10283000206840F4E05020602878000703D5206825
:1028400040F4604020602068A96820F0F000084350
:1028500020602878C0072DD03049686808390128E1
:1028600012D0022813D0032811D009688907002943
:102870002DDA216821F0030101432160FFF7E8FE12
:10288000814641F2883A0EE009688903EFE709685A
:102890008901ECE7FFF7DCFEA0EB0901514502D905
:1028A0000320BDE8F0872068696800F00C00B0EBF9
:1028B000810FEFD1D8F80010404601F00F01B1426E
:1028C00007D90770006800F00F00B04201D0012066
:1028D000E7E72878400705D52068E96820F4E0504C
:1028E000084320602878000706D52068296920F46D
:1028F000604040EAC100206000F036F82168084AD4
:10290000C1F30311515CC840064908600F20FFF76E
:10291000F7FE0020C5E70000003C024008380240F6
:10292000EC8C000800010020044805490068096893
:10293000044AC1F38221515CC84070470001002065
:1029400008380240FC8C0008044805490068096802
:10295000044AC1F34231515CC84070470001002075
:1029600008380240FC8C0008154810B5006810F0CB
:102970000C02144813D01449042A0FD0082A0ED18F
:102980000F4C241F2268236802F03F025B0207D528
:102990002068C0F38810A0FB010106E0084610BDC6
:1029A0002168C1F38811A1FB00010023FDF77AFC27
:1029B0002168C1F30141491C4900B0FBF1F010BD91
:1029C000083802400024F400001BB7002DE9F84F3E
:1029D000050076D02878DFF8F8B2BE4CC00749D0A1
:1029E000DBF800105846C1F38101012908D00068C6
:1029F000C0F3810002280AD1201D0068400206D5DC
:102A00002068800336D568680028E2D032E0686824
:102A1000B0F5803F10D0B0F5A02F206810D020F482
:102A200080302060206820F4802020606868A0B199
:102A3000FFF70EFE06460CE0206840F48030F4E715
:102A400040F480202060F7E7FFF702FE801B642837
:102A500073D820688003F7D50CE0FFF7F9FD064630
:102A600005E000BFFFF7F4FD801B6428F0D8206864
:102A70008003F7D42878DFF8608280074FF00009E0
:102A80003ED5DBF80010584611F00C0F09D0006855
:102A9000C0F3810002280BD18D48001F006840025E
:102AA00006D42068800715D5E868012809D111E00F
:102AB000E868B8B10120C8F80000FFF7C9FD064674
:102AC00005E002E1FFF7C4FD801B0228C0D82068A2
:102AD0008007F7D52068296920F0F80040EAC10096
:102AE00020600DE0C8F80090FFF7B2FD064604E054
:102AF000FFF7AEFD801B02281FD820688007F7D49F
:102B00002878000722D5724E744869696C3671B115
:102B100001210160FFF79CFD074604E0FFF798FDE7
:102B2000C01B022809D830688007F7D50EE0C0F82E
:102B30000090FFF78DFD074605E083E0FFF788FD75
:102B4000C01B02287ED830688007F7D42878400759
:102B500068D5DFF87CA100270AF1380ADAF800000E
:102B6000C0000BD4DAF8001041F08051CAF8001010
:102B7000DAF80000012700F080500090584E3068CD
:102B8000C00510D4306840F480703060FFF760FDFD
:102B9000009005E0FFF75CFD0099401A022851D82B
:102BA0003068C005F6D54A4EA868683601280FD0AF
:102BB0000528306810D020F001003060306820F027
:102BC00004003060A868B8B1FFF742FD00900FE044
:102BD000306840F00100F4E740F004003060F7E7AF
:102BE000FFF736FD0099411A41F28830814264D8DE
:102BF00030688007F4D50EE0FFF72AFD009007E06B
:102C0000FFF726FD0099411A41F28830814254D8DD
:102C100030688007F4D42FB1DAF8001021F0805129
:102C2000CAF80010A869C0B3DBF80010C1F3810135
:102C300002294AD00228484607D0C8F86000FFF7AA
:102C400007FD00E039E005463AE04746C8F8600075
:102C5000FFF7FEFC064604E0FFF7FAFC801B0228A3
:102C60002BD820688001F7D4D5E907010843A96A69
:102C70001C4A490802EB01416A6A41EA8211084391
:102C800095F82C1040EA01611148001F01600120F5
:102C90003866FFF7DDFC054605E014E0FFF7D8FCD9
:102CA000401B022809D820688001F7D50BE000BF3F
:102CB000FFF7CEFC401B022802D90320BDE8F88FA5
:102CC00020688001F4D40020F8E70120F6E7000036
:102CD000083802400038024000004742800E474258
:102CE000007000400000FFFF70B5040005D0002513
:102CF000A56294F8510010B106E0012070BD84F87F
:102D00005050204600F030F8022084F8510020682E
:102D1000016821F040010160D4E901010843D4E9D0
:102D200003121143084361690843218B01F40071C8
:102D30000843E1690843216A0843A16A08432168FE
:102D40000860A069042101EA1040616A0843216813
:102D500048602068C16921F40061C1616565012096
:102D600084F85100002070BDF0B587B004461421EE
:102D70006846FDF7E1FA2A48284B226800242849D2
:102D800014380225032605279A4227D10A6842F4FF
:102D900080520A60096801F480510591016841F090
:102DA00002010160016801F002010591016841F032
:102DB00001010160006802AA00F0010005900820EE
:102DC000CDE9000582E8D00069461648FFF748FBC8
:102DD0008020CDE900056946134818E0134B9A425C
:102DE0001AD10A6842F480120A60096801F480115D
:102DF0000591016841F0200101600068694600F01A
:102E0000200005904FF46070CDE90005084802AA43
:102E100082E8D000FFF724FB07B0F0BD003001408E
:102E200044380240000402400000024000500140CB
:102E3000001402402DE9F84F044690F85000002796
:102E40001D461646894601280DD04FF0010B84F827
:102E500050B0FFF7FDFB804694F85100BA460128B8
:102E600004D002278EE00220BDE8F88FB9F1000FF0
:102E70007DD0002E7BD0032084F85100C4F854A0EC
:102E8000C4F83090A686E686C4F838A0A4F83CA022
:102E9000A4F83EA0C4F844A0C4F840A0A068B0F5CF
:102EA000004F04D12068016841F48041016020682E
:102EB0000168490603D4016841F040010160E068FF
:102EC000B0F5006F606803D030B3012E24D040E02D
:102ED00008B1012E1CD1206B21680088C86006E073
:102EE00020688168890709D5216B0988C160206B3A
:102EF000801C2063E08E401EE08609E0FFF7A8FBFF
:102F0000A0EB0800A84202D3681C01D031E07DB3D9
:102F1000E08E0028E4D11FE0206B21680078087360
:102F200006E020688168890709D5216B097801735B
:102F3000206B401C2063E08E401EE08609E0FFF716
:102F400087FBA0EB0800A84202D3681C01D010E068
:102F500075B1E08E0028E4D142462946204601F0B2
:102F600021F908B120206065A06820B107E008E0E1
:102F7000FFE7032706E02068C16880680090606D65
:102F800000B1012784F851B084F850A038466BE7AF
:102F90002DE9F84F044690F8500000270A9E1D4680
:102FA00092468B464FF0010901280ED0012084F88B
:102FB0005000FFF74DFB804694F8510061680128EE
:102FC0000CD0B1F5827F07D102E00220BDE8F88F76
:102FD000A16809B9042801D00227C2E0BBF1000FA3
:102FE00027D0BAF1000F24D01DB394F85100042863
:102FF00002D0052084F8510000206065C4F838A094
:10300000E587A587C4F830B0E586A58620646064AE
:1030100020680168490603D4016841F0400101605D
:10302000E068B0F5006F606805D0E8B3012D46D0C8
:103030007FE0012795E008B1012D39D1206B21688F
:103040000088C860206B801C2063E08E401EE086F4
:103050002EE02068816889070FD5E18E69B1B9F14A
:10306000010F0AD1216B0988C160206B801C20638D
:10307000E08E401EE0864FF0000920688168C90795
:103080000CD0E18F51B1C068A16B0880A06B801C8F
:10309000A063E08F401EE0874FF00109FFF7D8FAE8
:1030A000A0EB0800B04200E009E001D3701C50D151
:1030B000E08E0028CDD1E08F0028CAD13FE0206B00
:1030C000216800780873206B401C2063E08E401E4E
:1030D000E0862EE02068816889070FD5E18E69B10E
:1030E000B9F1010F0AD1216B09780173206B401CE3
:1030F0002063E08E401EE0864FF000092068816862
:10310000C9070CD0E18F51B1C068A16B0870A06BEA
:10311000401CA063E08F401EE0874FF00109FFF7DD
:1031200097FAA0EB0800B04202D3701C01D010E067
:103130007EB1E08E0028CDD1E08F0028CAD1424672
:103140003146204601F02EF828B101272020606585
:1031500007E0032705E0A06818B92068C168806807
:103160000090012084F85100002084F85000384677
:103170002CE710B5401EB0F1807F01D3012010BDB7
:103180004FF0E02460610F21601701F0B3FD0020D3
:10319000A06107202061002010BD70B590F83C2090
:1031A000012A19D0012400F83C4F0222427050F845
:1031B0003C3C5A689D6822F070060A6849683243B0
:1031C00025F0800529435A6050F83C2C91604470EA
:1031D00000210170084670BD022070BD10B586B098
:1031E000044614216846FDF7A7F82368234C002203
:1031F00023480221A3420FD1036843F00203036076
:10320000006800F00200059020208DE80700CDE95D
:10321000032169461B4812E01B4CA34213D10368EB
:1032200043F008030360006800F0080005904FF4C5
:1032300030408DE80700CDE9032169461348FFF7C8
:103240000FF906B010BD124CA342FAD1036843F047
:1032500080030360006800F08000059040208DE846
:1032600007000920CDE9032069460A48FFF7F8F86E
:10327000142269460848FDF746F8E2E700040040DA
:10328000303802400004024000080040000C0240B8
:1032900000180040001C02404419002070B504468C
:1032A00090F83C000D4601280DD0012684F83C60C2
:1032B000022084F83D0042B1042A18D0082A2AD0FE
:1032C0000C2A4DD139E0022070BD206801F0ACF924
:1032D0002068816941F0080181612068816921F0DD
:1032E00004018161206881692A69114311E0206825
:1032F00001F0CAF92068816941F4006181612068A8
:10330000816921F480618161206881692A6941EACB
:103310000221816124E0206801F0ECF92068C16994
:1033200041F00801C1612068C16921F00401C16157
:103330002068C1692A69114311E0206801F00EFA82
:103340002068C16941F40061C1612068C16921F44C
:103350008061C1612068C1692A6941EA0221C161B5
:1033600084F83D60002084F83C0070BD10B5040076
:1033700003D094F83D0010B107E0012010BD0020FB
:1033800084F83C00204600F00DF8022084F83D004F
:10339000211D206801F0D6F8012084F83D000020AE
:1033A00010BD000008B5124A01681248914207D1C9
:1033B000016841F002010160006800F0020009E0CC
:1033C0000D4A914208D1016841F004010160006892
:1033D00000F00400009008BD084A9142FBD101684A
:1033E00041F040010160006800F04000F2E7000099
:1033F000000400404038024000080040001800402F
:1034000010B504460068012201F000F90B4920685C
:10341000884202D00A49884203D1416C41F40041FC
:1034200041642068816801F00701062903D0016822
:1034300041F001010160002010BD000000000140CA
:103440000004014010B504460068002201F0DEF8D7
:10345000114841F2111221689310814202D00F48A5
:10346000814209D1086A104206D1086A184203D184
:10347000486C20F4004048642068016A114206D17B
:10348000016A194203D1016821F0010101600120A4
:1034900084F83D00002010BD000001400004014000
:1034A00010B504460068416994F83920C1F3C01191
:1034B000212A0BD151B1416921F080014161206B7A
:1034C00008B1FEF7FEFD204601F0ECF920684169E5
:1034D00094F83A20C1F38011222A0BD151B14169ED
:1034E00021F040014161606B08B1FEF7EAFD204622
:1034F00001F0CAF9002010BD08B5C16B082903D13D
:10350000006801684068009008BD70B5040004D0F0
:1035100094F83900002510B106E0012070BD84F850
:103520003850204600F022F8242084F83900206822
:10353000C16821F40051C160204601F001FA206801
:10354000016921F4904101612068416921F02A015B
:1035500041612068C16841F40051C160E5632020E9
:1035600084F8390084F83A00002070BD2DE9F04F4E
:1035700087B0054614216846FCF7DEFE8448834B7D
:1035800010382A68002482490326DFF808E207156C
:103590004FF002084FF001094FF0080C4FF0206A7D
:1035A0004FF4807B9A4233D10A6842F080420A602D
:1035B000096801F080410591016841F01001016046
:1035C0000068694600F010000590F0018DE80103E5
:1035D000CDE9036C7046FEF743FF704E6E483060D5
:1035E000C6E901A4C6E903477461C6E9064B346223
:1035F00030467462FEF77CFE08B1FDF752FD6E6343
:10360000002205215220B563FFF7C4F852208BE059
:10361000634B9A4230D10A6842F000420A6009685E
:1036200001F000410591016841F01001016000685E
:103630008DE8400300F01000CDE904C06946039610
:103640007046FEF70DFF554E5348603648303060E7
:10365000C6E901A4C6E903477461C6E9064B3462B2
:1036600030467462FEF744FE08B1FDF71AFD6E6342
:10367000B56307B0BDE8F08F4A4BDFF82CB14FF0CF
:10368000070C9A4253D14249091D0A6842F01002C0
:103690000A60096801F010010591016841F002011A
:1036A0000160016801F002010591016841F001012A
:1036B00001600068C24600F0010005908020CDE95D
:1036C000000AB046CDF80890CDE9038C66466946FD
:1036D0003648FEF7C5FE4FF40070CDE9000ACDF87C
:1036E0000890CDE9038669465846FEF7B9FE2B4E91
:1036F0002F48C03630604FF00060C6E90104C6E9CB
:1037000003477461B461F461346230467462FEF759
:10371000EFFD08B1FDF7C5FC6E63002205212520F1
:10372000B563FFF737F82520FFF726F8A1E7214B0F
:103730009A429ED10A6842F400320A60096801F494
:1037400000310591016841F008010160016801F054
:1037500008010591016841F00101016000686446BB
:1037600000F00100059040208DE80103CDE9036CD5
:1037700069461148FEF774FE04208DE80103CDE987
:10378000036469465846FEF76BFE72E70078004016
:10379000403802400010024058600240181B0020D0
:1037A000007C004000100140000002400004024084
:1037B0004064024000440040000C0240F8B504465A
:1037C00090F83A0020283CD1C1B3BAB394F838003D
:1037D000012836D0012084F83800A162A285002596
:1037E000E563222084F83A00636B1748D863636B63
:1037F00016481864636B1648D864606B13460565F9
:103800000846666B216802463046091DFEF7DAFD60
:10381000206801684168009184F83850C16841F41B
:103820008071C1602068416941F0010141612068F7
:10383000416941F0400141610020F8BDFFE70120EE
:10384000FBE70220F9E70000434800087F48000832
:10385000F947000870477047FEE700007FB50E2269
:1038600069463B2000F024F9BDF800009FED1C1ACA
:1038700041BA1A48A0F114040180BDF8021049BAF7
:103880004180BDF8041049BA8180BDF8061049BADC
:1038900000EE101AB8EE400AC0EE010AB3EE050AB7
:1038A00030EE800ABDEEC00A10EE101AC180BDF8DD
:1038B00008104ABA2281BDF80A1049BA6181BDF8E0
:1038C0000C305BBAA38128342589521B028162899E
:1038D000891A4181A189591A81817FBDA6010020E1
:1038E0005CEFA64310B56A4C2DED0A8BB8EE009A3A
:1038F000F0EE008AB7EE00BAD4ED029A94ED038A96
:1039000029EE890A68EE280A20EE290A00EEC80A84
:1039100030EE0B0A10EE100AFCF7B2FE94ED010A2D
:10392000D4ED000A41EC1A0B20EE280A60EEA80A3A
:1039300020EE290A00EE880A10EE100AFCF7A0FE1D
:1039400041EC100BB0EE4A1AF0EE6A1A01F000FDDD
:103950009FED50AB51EC100B53EC1A2BFCF79EFD76
:10396000FCF7A1FE08EE100A4C4984ED098A94ED9B
:10397000080A38EE400A10EE100A884202DDE069BB
:10398000401EE06110EE100A4549884202D9E06904
:10399000401CE06184ED088A2069F0B9E069FCF719
:1039A0005EFE9FED401B53EC112BFCF777FD41ECC5
:1039B0001C0B18EE100AFCF763FE53EC1C2BFCF7F3
:1039C000C6FCFCF770FEA062E06A40F6B831401C0D
:1039D000E062884201DD0120206194ED018A28EE39
:1039E000090A60EE080A94ED020A60EE289A49EE90
:1039F000C00A30EE8B0A10EE100AFCF741FE94ED7F
:103A0000030AD4ED000A41EC1B0B29EE800A60EE9C
:103A1000A80A00EE880A10EE100AFCF731FE41EC0D
:103A2000100BB0EE4B1AF0EE6B1A01F091FC53EC58
:103A30001A2B51EC100BFCF731FDFCF734FEE0665D
:103A400094ED010AD4ED030A94ED021A20EE090A5E
:103A500020EE200AD4ED000A60EEA80A00EE810AEA
:103A600010EE100AFCF70CFE41EC100B01F054F9BB
:103A700053EC1A2B51EC100BFCF710FDFCF713FE66
:103A80000A49A066488E401C4886BDEC0A8B10BDD2
:103A9000600000206666666666A64C400000A5438E
:103AA0000000A5C30000000000807640CC1200207A
:103AB000F8B5134F15460E460446002240213846FD
:103AC000FEF7C0FD0F4944F0800037244871891D7E
:103AD0008A1E08700123491E0B480094FFF758FA0C
:103AE00008492B463246891D07480094FFF750FAD3
:103AF000012240213846FEF7A5FD0020F8BD000058
:103B00000014024000000020EC1800207FB50024C3
:103B100015480094019402941249039401604FF4F3
:103B20008031C0E9011401250461057680F8204048
:103B30000E49C0E90A14C561C46080F8304045618F
:103B4000FDF79BFB08B1FDF7ACFA0620CDE90005B7
:103B5000694602940448FDF7DBFA002801D0FDF71E
:103B6000A0FA7FBD002001403C1500200100000F9D
:103B7000104810B50E4901600321416000214FF447
:103B800000228160C0E903124FF4401242610176C5
:103B9000012242768176C17601774177FDF761FF98
:103BA000002803D0BDE81040FDF77BBA10BD00002F
:103BB00000640040E41500200F4810B50D49016075
:103BC0000321416000214FF400228160C0E903120B
:103BD0004FF440124261017641768176C1760177D9
:103BE0004177FDF73EFF002803D0BDE81040FDF708
:103BF00058BA10BD006800400C160020194808B5DE
:103C0000016841F480010160016801F480010091C4
:103C1000016841F4001101600068002200F4001006
:103C2000009005210E20FEF7B5FD0E20FEF7A4FD45
:103C3000002205211120FEF7ADFD1120FEF79CFDAD
:103C4000002205213820FEF7A5FD3820FEF794FD5F
:103C5000002205213A20FEF79DFDBDE808403A20EC
:103C6000FEF78ABD3038024010B5AAB01C222149A7
:103C70006846FCF748FB0021684603F0ACFF1E4C89
:103C80001C491C2220601C3107A8FCF73CFB0021CA
:103C900007A803F0A0FF174960601C2238310EA866
:103CA000FCF731FB00210EA803F095FF1149A0603D
:103CB0001C22543115A8FCF726FB002115A803F09F
:103CC0008AFF0C49E0601C2270311CA8FCF71BFB2A
:103CD00000211CA803F07FFF064920611C228C31C3
:103CE00023A8FCF710FB002123A803F074FF6061F8
:103CF0002AB010BD3C8C0008D80000202DE9F04F00
:103D000087B014216846FCF717FB5248002401686D
:103D100041F010010160016801F010010591016896
:103D200041F002010160016801F0020105910168A2
:103D300041F040010160016801F040010591016816
:103D400041F001010160016801F001010591016884
:103D500041F008010160016801F008010591016866
:103D600041F480710160016801F48071059101687E
:103D700041F080010160016801F080010591016856
:103D800041F0200101600068DFF8CC9000F02000D5
:103D900040F604050590002229464846FEF752FCED
:103DA000DFF8B8A042F2FE16002231465046FEF778
:103DB00049FCDFF8ACB04FF4C067002239465846E2
:103DC000FEF740FC00223C212648FEF73BFC44F273
:103DD0004008002241462448FEF734FC00950125A6
:103DE000CDE90154694648460394FEF739FB009635
:103DF000CDE90154694650460394FEF731FB009724
:103E0000CDE90154694658460394FEF729FBCDE9F4
:103E10000054694615480295FEF722FB3C200090AD
:103E2000CDE9015469460F480394FEF719FBCDF81C
:103E30000080CDE9015469460B480394FEF710FB5E
:103E4000B8008DE8310069460648FEF709FB07B067
:103E5000BDE8F08F303802400010024000180240E8
:103E600000040240001C02400014024000200240F6
:103E7000094810B5074901600321416040F6FF7110
:103E80008160FEF7EBFB002803D0BDE81040FDF792
:103E900008B910BD0030004088180020104810B547
:103EA0000E4901604FF4827141604FF4004181601E
:103EB0000021C1604FF400720161C0E90512C161C7
:103EC0000162416281620A21C162FEF70DFF002892
:103ED00003D0BDE81040FDF7E4B810BD003001404C
:103EE00094180020104810B50E4901604FF48271FB
:103EF000416000218160C1604FF400720161C0E93E
:103F000005123022C0E90721416281620A21C162A3
:103F1000FEF7EAFE002803D0BDE81040FDF7C1B867
:103F200010BD000000500140EC18002010B588B012
:103F30001C216846FCF700FA124811490024016070
:103F40005321C0E9011410490968C0E903148461D0
:103F5000FFF70CFA08B1FDF7A4F86020CDE90004E2
:103F600002940022694607480494FFF797F908B1C4
:103F7000FDF797F80348FFF731F908B010BD0000CE
:103F800000180040D8190020F000002010B58AB0B9
:103F9000002407941C2168460894FCF7CDF91548C5
:103FA000134901605321C0E90114C46004618461B4
:103FB000FFF7DCF908B1FDF774F8079407A90D487D
:103FC0000894FFF7EAF808B1FDF76BF86020CDE937
:103FD000000402940422694606480494FFF75EF93F
:103FE00008B1FDF75EF80348FFF7F8F80AB010BD16
:103FF000000400405819002010B58AB0002407942E
:104000001C2168460894FCF797F91E481C4901607A
:1040100042F2CF01C0E90114C721C0E90314846151
:10402000FFF7A4F908B1FDF73CF8079407A9154874
:104030000894FFF7B2F808B1FDF733F87020CDE926
:1040400000040294002269460E480494FFF726F902
:1040500008B1FDF726F8042269460A48FFF71EF961
:1040600008B1FDF71EF80C2269460648FFF716F95D
:1040700008B1FDF716F80348FFF7B0F80AB010BD15
:1040800000080040981900200C4810B50A4901604A
:104090004FF4E1314160002181600C22C160C0E930
:1040A00004128161C161FFF730FA002803D0BDE836
:1040B0001040FCF7F6BF10BD00780040181A002031
:1040C0000C4810B50A4901604FF4E131416000210C
:1040D00081600C22C160C0E904128161C161FFF7F7
:1040E00014FA002803D0BDE81040FCF7DABF10BD79
:1040F000007C0040581A00200D4810B50B490160A3
:104100000C49416000214FF480628160C0E90312D4
:104110000422C0E90521C161FFF7F7F9002803D0A7
:10412000BDE81040FCF7BDBF10BD0000001001400D
:10413000981A0020A08601000C4810B50A490160B9
:104140000B494160002181600822C160C0E904126E
:104150008161C161FFF7D9F9002803D0BDE81040A3
:10416000FCF79FBF10BD000000440040D81A00209B
:1041700040420F00FEE7704710B501F0D7FFBDE8E1
:10418000104002F06DBE01EE901AF8EE611AC0ED1B
:10419000031A01EE902AF8EE611AC0ED0A1A80ECBB
:1041A000030A704738B504461248134B0068B0FB49
:1041B000F3F04FF47A73584300906068B0F5827F53
:1041C0000DD10B46009200228021204600F016F807
:1041D00070B1606D40F020006065032038BD00982C
:1041E00030B1401E009020688068C0430006F6D5BC
:1041F000002038BD0001002000366E012DE9F0419D
:104200001D4617460E460446DDF8188008E0681C77
:1042100006D0FEF71DFAA0EB0800A8420BD255B15C
:104220002068806836EA000030D00020B842EED125
:104230000020BDE8F0812068416821F0E001416084
:104240006068B0F5827F0BD1A068B0F5004F02D056
:10425000B0F5806F04D12068016821F04001016051
:10426000A06AB0F5005F09D12068016821F400510F
:1042700001602068016841F400510160012084F868
:104280005100002084F850000320D2E70120CDE740
:10429000F0B514460E460746FCF704FF03463846C1
:1042A00000F0B8F80146002002E03A5C3254401CAD
:1042B0009842FADB0025F554581C06E0A0EB030CED
:1042C0003A5CA444401C0CF8012C8842F6DB65548F
:1042D0005B1C04D131463846FCF7BEFD2570F0BDAD
:1042E0002DE9F04106462DED088B4FF000089FEDBB
:1042F000438B4446B0EE489AF0EE689A305D58B170
:10430000A0F130010A2903D32E2801D02D2803D192
:10431000641CE4B20A2CF1D3002504E0705D2E2861
:1043200003D06D1CEDB2A542F8D300279FED35AB4D
:1043300015E0F05D2D2818D03038FCF790F941ECED
:104340001B0B53EC1A2B51EC190BFCF7A7F853EC91
:104350001B2BFBF7FCFF41EC190B7F1CFFB2AF429C
:10436000E7D37F1CFDB22F4618E04FF00108F4E7B9
:10437000705D30380A2813D2FCF771F941EC1B0B41
:1043800053EC1A2B51EC180BFCF788F853EC1B2B51
:10439000FBF7DDFF41EC180B6D1CEDB2A542E7D336
:1043A00000259FED1AABE41B0AE000BF53EC1A2B6B
:1043B00051EC180BFCF772F841EC180B6D1CEDB2C8
:1043C000AC42F3DC53EC182B51EC190BFBF7BFFF9D
:1043D00041EC100BB8F1000F05D051EC100B81F03F
:1043E000004141EC100B51EC100BFCF75CF9BDECFB
:1043F000088B00EE100ABDE8F0810000000000000C
:104400000000000000000000000024409A999999E3
:104410009999B93F014600200A5C401C002AFBD153
:10442000401E704770B50B46074C04E0E618C55CAB
:10443000761A5B1C35709342F8DB00202244511A37
:104440000870014870BD0000E007002010B5FEF7BD
:1044500035F904F011FB012803D0BDE8104004F049
:104460009DBA10BD30B593B030216846FBF764FFAC
:1044700014210CA8FBF760FF1B480025016841F0E0
:1044800080510160006800F0805011901748016869
:1044900041F4404101600068022400F44040119062
:1044A000092000904FF4803001900120CDE90504EF
:1044B0008005079006200890A820CDE90904042073
:1044C0000B906846FEF782FA0CA90F2081E83100B4
:1044D0004FF4A0500F90E002109005210CA8FEF7B9
:1044E0008BF913B030BD000040380240007000402E
:1044F0001048016841F4700101600F48016841F003
:10450000010101600C4A00210832116002680B4B66
:104510001A400260031D0A4A1A60026822F48022CF
:10452000026005480C300160024958068039086075
:104530007047000088ED00E000380240FFFFF6FE03
:1045400010300024F0B50268254C264D264E274F2A
:10455000274B4FF0804CA04209D0604507D0A842BD
:1045600005D0B04203D0B84201D0984204D122F025
:10457000700E4A6842EA0E02A0421BD0604519D074
:10458000A84217D0B04215D0B84213D0984211D0EB
:10459000184DA8420ED0184DA8420BD0174DA84276
:1045A00008D0174DA84205D0164DA84202D0164D8E
:1045B000A84203D122F44075CA682A434D6922F00B
:1045C00080022A4302608A68C2620A688262A0424C
:1045D00001D0984201D10969016301214161F0BD17
:1045E000000001400004004000080040000C0040B2
:1045F00000040140004001400044014000480140E7
:1046000000180040001C00400020004010B501F0E0
:104610001F030121046A99408C430462016A9A4095
:104620001143016210BD0000F0B5026A22F00102E0
:104630000262036A42688469124E24F073050C68B2
:104640002C4323F002058B682B430D4DA84201D06B
:10465000B04205D123F00807CB683B4323F00403A5
:10466000A84201D0B04205D14D6922F440721543F1
:104670008A692A4342608461496841630362F0BDEC
:104680000000014000040140F0B5026A22F010026F
:104690000262026A436884690D6824F4E64444EACD
:1046A00005248D6822F0200242EA05120F4D104EBB
:1046B000A84201D0B04206D1CF6822F0800242EA7F
:1046C000071222F04002A84201D0B04207D14D6942
:1046D00023F4406343EA85038D6943EA850343601D
:1046E0008461496881630262F0BD000000000140FE
:1046F00000040140F0B5026A22F480720262026A8C
:104700004368C46922F4007224F073050C68124EE9
:104710002C438D6842EA05220E4DA84201D0B042DA
:1047200006D1CF6822F4006242EA072222F48062B6
:10473000A84201D0B04207D14D6923F4405343EA67
:1047400005138D6943EA05134360C4614968C16379
:104750000262F0BD000001400004014030B5026A71
:1047600022F480520262046A4268C3690D6823F42D
:10477000E64343EA05238D6824F4005444EA0534F3
:10478000084DA84202D0084DA84204D14D6922F438
:10479000804242EA85124260C36149680164046252
:1047A00030BD000000000140000401400B4810B57E
:1047B000B0F9060000EE100A0A48F8EEC00A9FEDB4
:1047C000080A03F033FA0748074990ED050ABCEEE2
:1047D000C00A10EE100A80B2086010BDA6010020C9
:1047E000000048424014002038040040014800F016
:1047F00063B80000181A002070B5846B2068406907
:1048000094F83910C0F3C0100025212904D118B143
:10481000E584204600F046F82068406994F83A1094
:10482000C0F38010222904D118B1E585204600F09C
:104830002BF8E06B40F01000E0632046FEF75CFED2
:1048400070BD10B50146806B09680968C90513D4AD
:104850000021C1850168CA6822F48072CA600168BB
:104860004A6922F001024A6101684A6922F0400265
:104870004A61202180F83A10FEF7ECFF10BD10B518
:10488000806BFEF7E8FF10BD0168CA6822F49072E1
:10489000CA6001684A6922F001024A61202180F859
:1048A0003A1070470168CA6822F0C002CA6020212D
:1048B00080F839107047000038B50446006819497F
:1048C000884217D1184800680168C943C90611D445
:1048D0000168406800901448FEF7E2FD1222134977
:1048E0001148FEF76BFF012002F0F6F81048818DA9
:1048F000491C81850F492068884212D10E48006802
:104900000168C943C9060CD40168406800900A4890
:10491000FEF7C6FDBDE83840012208490648FEF70B
:104920004DBF38BD00100140981A002080010020C2
:10493000CC12002000780040181A00208D110020B1
:104940002DE9F041044600680169E26821F4405114
:10495000114301612169A068E2690843616911435B
:1049600022680843D16849F20C6399430143D1603E
:1049700020684169A26921F4407111434161E269F3
:104980006425B2F5004F9748974922684FF03208E6
:104990003FD08A4201D082427CD1FDF7D5FF00EBA7
:1049A000C00101EB001061688900B0FBF1F6FDF772
:1049B000CBFF00EBC00101EB001061688900B0FB88
:1049C000F1F0B0FBF5F06FF01801484306EB800101
:1049D00008EB0110B0FBF5F000F0F006FDF7B4FFB6
:1049E00000EBC00101EB001061688900B0FBF1F041
:1049F000B0FBF5F006EB0016FDF7A6FF00EBC001DB
:104A000001EB001061688900B0FBF1F7FDF79CFF36
:104A1000D2E08A4201D082423DD1FDF795FF00EB02
:104A2000C00101EB001061684900B0FBF1F0B0FB80
:104A3000F5F00601FDF788FF00EBC00101EB001067
:104A400061684900B0FBF1F7FDF77EFF00EBC001A4
:104A500001EB001061684900B0FBF1F0B0FBF5F02C
:104A60006FF01801484307EB800108EBC100B0FB71
:104A7000F5F000F0F80006EB4006FDF765FF00EBEF
:104A8000C00101EB001061684900B0FBF1F7FDF7D0
:104A90005BFF3CE055E0FDF747FF00EBC00101EB99
:104AA000001061684900B0FBF1F0B0FBF5F00601C1
:104AB000FDF73AFF00EBC00101EB0010616849000F
:104AC000B0FBF1F7FDF730FF00EBC00101EB001088
:104AD00061684900B0FBF1F0B0FBF5F06FF0180130
:104AE000484307EB800108EBC100B0FBF5F000F094
:104AF000F80006EB4006FDF717FF00EBC00101EBE5
:104B0000001061684900B0FBF1F7FDF70DFF00EB05
:104B1000C00101EB001061684900B0FBF1F0B0FB8F
:104B2000F5F06FF01801484307EB800108EBC10076
:104B3000B0FBF5F000F00700216830448860BDE864
:104B4000F081FDF7F1FE00EBC00101EB00106168A0
:104B50008900B0FBF1F6FDF7E7FE00EBC00101EBC9
:104B6000001061688900B0FBF1F0B0FBF5F06FF068
:104B70001801484306EB800108EB0110B0FBF5F08B
:104B800000F0F006FDF7D0FE00EBC00101EB0010D5
:104B900061688900B0FBF1F0B0FBF5F006EB0016A0
:104BA000FDF7C2FE00EBC00101EB00106168890057
:104BB000B0FBF1F7FDF7B8FE00EBC00101EB001010
:104BC00061688900B0FBF1F0B0FBF5F06FF01801FF
:104BD000484307EB800108EB0110B0FBF5F000F053
:104BE0000F00A9E700140140001001400148FFF741
:104BF00063BE0000981A002010B51223074A084926
:104C0000084800F017F80123074A0849084800F04F
:104C100011F8BDE8104003F061BB000080010020E6
:104C2000D81B0020981A00208D110020181B00208E
:104C3000181A00202DE9F041044600680F461D4671
:104C4000416816463846FDF7BDFB2068416941F0D2
:104C5000400141612068C16841F01001C1602A46ED
:104C600031462046FEF7AAFD2068416941F0010166
:104C70004161BDE8F081000005484179054811B166
:104C80009FED050A01E09FED050A80ED060A7047D9
:104C900028140020D811002000000C440000EB4331
:104CA000FEE700000FB4054B10B503A9044A0298B3
:104CB00000F0BEFD10BC5DF814FB0000A56B000801
:104CC0006401002003B401984100009850EAC1201B
:104CD00018BF04204A0D18BF40F0010040F2FF72D7
:104CE000B2EB515F08BF40F00200012808BF052069
:104CF00002B070470907090E002804DB00F1E0202C
:104D000080F80014704700F00F0000F1E02080F8F8
:104D1000141D70470000000070B5C1482DED020B56
:104D20002DED0E8B82B0119D25F000449FEDBEDB72
:104D30009FEDBFEB84423EDBA4F140511098A1F1FE
:104D40007F6108430FD0BC48844202DC28D1109810
:104D500030B39DED100B02B0BDEC0E8B02B0BDE880
:104D6000704000F069BC9DED100B53EC1D2B51EC15
:104D7000100BFBF793FB9DED100B41EC180B53EC64
:104D80001E2B51EC100BFBF789FB53EC182BFBF798
:104D9000DEFA41EC100B02B0BDEC0E8B02B070BD20
:104DA000012000F08DFC02B0BDEC0E8B02B0BDE81E
:104DB000704000F055BCA1489FEDA18B844256DAAB
:104DC0009DED100BB4F1795F0ADA51EC100BFFF78F
:104DD00079FF042808BF00F053FC9DED100BDAE7C3
:104DE00053EC102B51EC100BFBF758FB41EC190B5B
:104DF00095480621B0EE490AF0EE690A784400F0C1
:104E00009FFB53EC192B51EC100BFBF747FB41ECCC
:104E10001A0B8E48B0EE490AF0EE690A0421784474
:104E200000F08EFB53EC192B51EC100BFBF736FB0B
:104E300053EC182BFBF78BFA41EC100B51EC1A0BCF
:104E400053EC102BFBF79CFBCDE900019DED000B13
:104E500053EC102B9DED100B51EC100BFBF71EFBD0
:104E60009DED101B53EC112BFBF771FAD2E09DED79
:104E7000100B51EC100B01F03DFE53EC182BFBF71F
:104E80000AFB9FED730BCDE9000153EC102B9DED58
:104E9000000B51EC100BFBF701FB41EC190B6E48BA
:104EA0000621B0EE490AF0EE690A784400F048FBAA
:104EB00053EC192B51EC100BFBF7F0FA41EC1B0BE8
:104EC0006648B0EE490AF0EE690A0421784400F021
:104ED00037FB53EC192B51EC100BFBF7DFFA53ECBB
:104EE000182BFBF734FA41EC1C0B51EC190B03F0B7
:104EF0009FFA41EC180B5A489FED5BABA04222DCB5
:104F000053EC1C2B51EC1B0BFBF73AFBCDE90001DA
:104F10009DED000B51EC180B53EC102BFBF7BEFA78
:104F200053EC182BFBF713FA53EC1A2BFBF7B6FADA
:104F300053EC1D2BFBF7ACFA53EC1E2BFBF7ABFA33
:104F400041EC100B5FE08DED008B002000909DED9B
:104F5000000B51EC180B53EC102BFBF7F8F99DEDFF
:104F6000000B41EC1E0B53EC102B51EC100BFBF71C
:104F700095FA53EC192BFBF78EFA53EC1E2BFBF72B
:104F8000FFFA41EC190B53EC1C2B51EC1B0BFBF7FC
:104F9000F7FA41EC1B0B53EC1A2B51EC190BFBF7F6
:104FA0007DFA53EC1D2BFBF776FA41EC190B53EC11
:104FB0001A2B51EC180BFBF771FA53EC1B2BFBF778
:104FC0006DFA53EC192BFBF763FA9DED000B41ECE6
:104FD000180B53EC1A2B51EC100BFBF75FFA9FEDFB
:104FE000249B53EC192BFBF756FA41EC100B51ECB8
:104FF000180B53EC102BFBF74BFA53EC192BFBF768
:105000004AFA41EC100B002D3FF7C5AE51EC100BE6
:1050100081F0004141EC100BBDE6000000000000F3
:105020000000F03F00000000075C143326A6913C0E
:10503000182D4454FB21F93F0000F07F0000E03FB1
:10504000000000000000F03F083F0000163F000095
:10505000000000000000E03F5A3E0000683E0000F3
:105060003333EF3F0000000000000000000000406C
:10507000182D4454FB21E93F70B59B482DED020BE0
:105080002DED068B079D25F00044A04218DC9748C3
:10509000844202DC0AD1069840B19DED060BBDECBE
:1050A000068B02B0BDE8704000F0C6BA002DCCBF40
:1050B0009FED8F0B9FED900BBDEC068B02B070BD8A
:1050C0008F48A04215DD8F48A042D8BF4FF0FF3473
:1050D00058DD9DED060B51EC100BFFF7F3FD042896
:1050E00008BF00F0CDFA9DED060BBDEC068B02B0BB
:1050F00070BD9DED060B51EC100B01F0FBFCCDE9F2
:10510000060181489FED828BA0423CDD8248A0428F
:105110001FDD00249FED82AB9DED060B53EC1A2B97
:1051200051EC100BFBF713F99DED060B41EC190B3D
:1051300053EC1A2B51EC100BFBF7B0F953EC182B76
:10514000FBF7A6F953EC192BFBF71AFACDE9060188
:1051500049E09DED060B012453EC182B51EC100B8C
:10516000FBF7F5F89DED060B41EC190B53EC182BF2
:1051700051EC100BFBF78CF953EC192BFBF700FAF1
:10518000CDE906012FE06848A0421FDD02249FED13
:10519000689B9DED060B53EC192B51EC100BFBF7A4
:1051A0007DF953EC182BFBF7D2F89DED060B41EC83
:1051B000180B53EC192B51EC100BFBF769F953EC5E
:1051C000182BFBF7DDF9CDE906010CE09DED060B90
:1051D000032453EC102B9FED580B51EC100BFBF7F5
:1051E000CFF9CDE906019DED060B53EC102B51ECE8
:1051F000100BFBF753F941EC180B53EC182BFBF792
:105200004DF941EC190B4E480621B0EE490AF0EE7B
:10521000690A784400F094F953EC182B51EC100B08
:10522000FBF73CF941EC180B4648B0EE490AF0EEAA
:10523000690A0521784400F083F953EC192B51ECED
:10524000100BFBF72BF941EC100B51EC180B53EC46
:10525000102B002C0EDAFBF77AF89DED061B53ECB1
:10526000112BFBF71BF99DED061B53EC112BFBF7E4
:1052700012F935E0FBF76BF89DED061B53EC112B93
:10528000FBF70CF941EC100B2F48784400EBC400FD
:1052900090ED001B51EC100B53EC112BFBF7F8F8C1
:1052A0009DED061B53EC112BFBF7F2F841EC100BB4
:1052B0002648784400EBC40090ED001B51EC100B25
:1052C00053EC112BFBF7E7F841EC100B002DA2BFBC
:1052D000BDEC068B02B070BD51EC100B81F00041AB
:1052E00041EC100B01E70000000010440000F07FCB
:1052F000182D4454FB21F93F182D4454FB21F9BFCC
:105300000000DC3F0000203E0000F33F00000000F2
:10531000000000000000F03F0000E63F0000000039
:10532000000000000000004000800340000000007A
:10533000000000000000F83F000000000000F0BF87
:10534000AA3B0000603B0000EA3A0000A23A0000DD
:1053500070B56B4E2DED040B2DED028B82B0DDF898
:105360001CC0DDE905235C422CF000411C4341EAEE
:10537000D474049D22F00040B44205D86C422C4302
:1053800040EAD474B4420BD99DED061B9DED040B8D
:1053900002B0BDEC028B04B0BDE8704000F056B91D
:1053A000ACF14054A4F17F641C430BD0022404EA06
:1053B000AC7444EAD27405439FED538B9FED542B9C
:1053C00007D015E09DED040B51EC100B00F0C7FD6C
:1053D00042E0002C11BF012C9DED040B02B0BDEC8E
:1053E000028B04BF04B070BD022C38D0032C3BD01C
:1053F0000B439FED491B9FED4A0B0AD0B14218D1D8
:10540000B04209D121F0804120F080400791059001
:105410000FE0002A15DA10E0434B7B44002C08BF54
:1054200093ED000B0DD0012C10D0022C17D0032CC3
:105430001AD0B0421DD1002A03DAB0EE410AF0EED4
:10544000610A02B0BDEC028B04B070BD93ED000B9D
:1054500051EC100B81F0004141EC100BF1E7B0EE84
:10546000480AF0EE680AECE7B0EE420AF0EE620A93
:10547000E7E7401A00153C28C8BF8DED000B19DC8A
:10548000BCF1000FBEBF10F13C0F9FED290B8DED5D
:10549000000B0FDB9DED060B53EC102B9DED040B69
:1054A00051EC100BFBF76CF801F024FB00F057FDFA
:1054B000CDE90001002C08BF9DED000BC1D0012CEF
:1054C00010D0022C9FED1C0B53EC102B9DED000B0C
:1054D00051EC100B0DD0FAF7DBFF53EC182BFAF759
:1054E000D7FFB9E7019880F0004001909DED000BD7
:1054F000A7E7FAF7CDFF53EC182BFAF7CCFFABE791
:105500000000F07F00000000182D4454FB210940EA
:10551000182D4454FB2109C0182D4454FB21F9BF18
:10552000182D4454FB21F93FD2390000000000003F
:105530000000000000000000075C143326A6A13C18
:1055400070B504462DED028B4D1E00EBC500B0EE8C
:10555000408AF0EE608A90ED000B35F0060017D01F
:1055600053EC182B51EC100BFAF798FF41EC100B91
:105570006D1E04EBC50090ED001B51EC100B53ECBD
:10558000112BFAF7E4FE41EC100B35F00600E7D1E1
:10559000022D36D0042D1CD0062D1CBFBDEC028B75
:1055A00070BD53EC182B51EC100BFAF777FF94ED0C
:1055B0000A1B53EC112BFAF7CAFE53EC182BFAF71F
:1055C0006DFF94ED081B53EC112BFAF7C0FE41EC74
:1055D000100B53EC182B51EC100BFAF75FFF94ED06
:1055E000061B53EC112BFAF7B2FE53EC182BFAF70B
:1055F00055FF94ED040B53EC102BFAF7A8FE41EC89
:10560000100B53EC182B51EC100BFAF747FF94EDED
:10561000021B53EC112BFAF79AFE53EC182BFAF7F6
:105620003DFF94ED001B53EC112BFAF790FEBDECFF
:10563000028B41EC100B70BD10B553EC102B51ECEC
:10564000100BFAF784FE41EC100B10BD10B553ECB3
:10565000112B51EC100BFAF77AFE41EC100B10BD38
:105660009FED050B10B553EC102B51EC100BFAF716
:1056700087FF41EC100B10BD00000000000000008F
:105680009FED050B10B553EC102B51EC100BFAF7F6
:1056900005FF41EC100B10BD0000000000000010E1
:1056A00002E008C8121F08C1002AFAD170477047EB
:1056B000002001E001C1121F002AFBD17047000049
:1056C0000149086070470000680100202DE9FF5F74
:1056D000DDE90220010DDDF838B0024318D044F6B0
:1056E0001050A1F2FF3141430D140F98012820D032
:1056F000A5EB0B00401C5FEA000A4FF00004474E88
:10570000DFF81C91A046504616D5CAF1000728E0E4
:105710000F98012443A2012808D0002100980F9B74
:10572000C0E90021C0E90243BDE8FF9F6FEA0B0119
:10573000F4E7CBF10000DEE7074612E0F80707D0F8
:105740002246334640464946FAF7A8FE8046894637
:105750002246334610461946FAF7A0FE04460E4686
:105760007F10002FEAD1DDE90201BAF1000F4246B5
:105770004B4602DAFAF792FE01E0FAF701FF04461F
:105780000E460022284BFBF79DF803D84FF0FF3060
:10579000014607E00022254B20463146FAF7D7FDA7
:1057A000FBF778F8102409E0002C0ADB0A2200231A
:1057B000FAF778FD019B30321A55641E50EA010257
:1057C000F2D1641C019AC4F1110314440F9A012A06
:1057D00003D0012208430DD10AE0084304D0002081
:1057E0004FF0110B0F9080E7A3EB0B056D1E0DE042
:1057F0005B4504DD4FF0000205F1010504E003DA2A
:105800004FF00002A5F10105002AECD000980F9995
:10581000C0E90231C0E9004586E7000000002440ED
:105820000000F03F300000000000F0430000E03FC7
:105830002DE9FF4F95B09B468946064600250FE2AD
:10584000252877D100242746F84A0121059400E055
:10585000044316F8013F203B01FA03F01042F7D150
:1058600030782A2811D06FF02F033078A0F1300261
:10587000092A16D8059A44F0020402EB820203EBCF
:1058800042021044761C0590EFE759F8042B05926C
:10589000002A03DA504244F40054059044F0020414
:1058A000761C30782E2816D116F8010F44F0040427
:1058B0002A280DD06FF02F023078A0F13003092B89
:1058C00009D807EB870302EB4303C718761CF3E7FD
:1058D00059F8047B761C30786C280FD006DC4C28F5
:1058E00017D068280DD06A2814D104E0742810D08D
:1058F0007A280FD10DE044F400140AE044F4801437
:1059000001E044F440147278824202D104F580141C
:10591000761C761C307866280BD013DC582877D09C
:1059200009DC002875D04528F6D04628F4D0472851
:105930001AD19DE118E0632835D0642879D0652814
:1059400012D195E1702873D008DC6728F1D069285E
:105950006FD06E280DD06F2806D1B5E073282CD0FB
:10596000752875D0782874D05A46179990476D1CC1
:1059700075E1C4F30250022809D003280DD0D9F8EC
:10598000001004280DD00D6009F1040967E1D9F871
:105990000010EA17C1E90052F6E7D9F800100D80AF
:1059A000F2E70D70F0E719F8041B8DF800100020E5
:1059B0008DF80100EA46012003E059F804AB4FF0EE
:1059C000FF3061074FF0000102D40DE008F1010142
:1059D0008846B9420FDA8045F8DB1AF8081000292A
:1059E000F4D108E008F1010188468142FADB1AF897
:1059F00008100029F6D105985B46A0EB0807214660
:105A00003846179A00F094FA284400EB080507E09E
:105A10004DE029E10DE01AF8010B5A46179990471D
:105A2000B8F10108F7D25B4621463846179A13E1D0
:105A300042E00A220092C4F302524FF0000A022A06
:105A400008D059F804CB032A4FEAEC710AD00DE0D4
:105A500029E02AE009F1070121F00702F2E802C17A
:105A6000914609E00FFA8CFC4FEAEC71042A03D14D
:105A70004FFA8CFC4FEAEC71002907DA0A46002144
:105A8000DCF1000C61EB02012D2202E0220504D5BD
:105A90002B228DF80420012203E0E20701D020220E
:105AA000F7E7904659E00A2102E010220DE01021AC
:105AB0004FF0000A00910BE010224FF0000A44F072
:105AC00004040827009203E008224FF0000A009225
:105AD000C4F30252022A05D059F804CB0021032A4C
