:020000040800F2
:100000006055002081020008AB3700081F3000084F
:10001000A9370008F5090008DB43000800000000CC
:10002000000000000000000000000000C101000806
:10003000BD0E0008000000001D020008813A000803
:100040009B0200089B0200089B0200089B0200081C
:100050009B0200089B0200089B0200089B0200080C
:100060009B0200089B0200089B0200089B020008FC
:100070009B0200089B020008AD0C00089B020008D0
:100080009B020008D50C00089B020008050A000826
:10009000F90900089B0200089B0200089B02000867
:1000A0009B0200089B0200089B0200089B020008BC
:1000B0009B0200089B0200089B0200089B020008AC
:1000C0009B0200089B0200089B0200089B0200089C
:1000D0009B020008454300089B0200089B020008A1
:1000E0009B0200089B0200089B0200089B0200087C
:1000F0009B0200089B0200089B0200089B0200086C
:100100009B0200089B0200089B0200089B0200085B
:100110009B0200089B0200089B0200089B0200084B
:100120009B0200089B020008E10C00089B020008EB
:100130009B0200089B0200089B0200081D0A0008A1
:10014000110A00089B0200089B0200089B0200089D
:100150009B0200089B0200089B0200085143000814
:100160009B0200089B0200089B0200089B020008FB
:100170009B0200089B0200089B0200080000000090
:100180009B0200089B020008193E00089B02000821
:100190009B0200089B0200089B0200089B020008CB
:1001A00000000000000000009B020008DFF80CD0F7
:1001B00000F0A0FB004800470D69000860550020D2
:1001C0002C4B19680868B0E8F04F80F30988BFF33A
:1001D0006F8F4FF0000080F311887047000000001F
:1001E00008480068006880F308884FF0000080F33A
:1001F000148862B661B6BFF34F8FBFF36F8F00DF15
:1002000000BF00BF08ED00E0DFF80C00016841F41A
:1002100070010160704700BF88ED00E0EFF30980D6
:10022000BFF36F8F134B1A681EF0100F08BF20ED3D
:10023000108A20E9F04F106009B44FF0500080F3AD
:100240001188BFF34F8FBFF36F8F07F043FB4FF061
:10025000000080F3118809BC19680868B0E8F04F05
:100260001EF0100F08BFB0EC108A80F30988BFF3AE
:100270006F8F704708010020EFF305807047000082
:100280000648804706480047FEE7FEE7FEE7FEE730
:10029000FEE7FEE7FEE7FEE7FEE7FEE71D3B0008A0
:1002A000AD0100082DE9F05F0546002092469B460F
:1002B00088460646814640241BE02846414647467C
:1002C000224600F031FA53465A46C01A914110D3E3
:1002D00011461846224600F018FA2D1A67EB01085D
:1002E0004F4622460120002100F00FFA17EB0009CB
:1002F0004E41201EA4F10104DFDC484631462A4667
:100300004346BDE8F09F40EA01039B0703D009E0A4
:1003100008C9121F08C0042AFAD203E011F8013BF1
:1003200000F8013B521EF9D27047D2B201E000F84A
:10033000012B491EFBD270470022F6E710B5134689
:100340000A4604461946FFF7F0FF204610BD2DE986
:10035000FE4F804681EA0300C00F0C46009021F05A
:10036000004123F00045B8EB0200A94105D2404608
:10037000214690461C460B46024623F0004010439F
:1003800047D0270DC7F30A00C3F30A510290401A61
:10039000019040286BDAC3F3130040F4801B0098EF
:1003A000924620B10023D2EB030A63EB0B0B0198BA
:1003B0005946C0F14002504600F0A7F906460D46E6
:1003C00050465946019A00F0BFF910EB0800614110
:1003D000002487EA115284EAE7731A4340D0009A56
:1003E00062B3019A012A4FEA075215DC001B61EB48
:1003F00002014FF0004202EA0752CDE90042001C20
:1004000041F5801132462B4600F0F6F903B0BDE805
:10041000F08F40462146F9E7001B61EB0201001C0A
:1004200041F5801300185B412018A2F5001747EB37
:10043000030140EAD570B6196D4111E06D084FEA2D
:10044000360645EAC0754FEA0752001B61EB020110
:10045000001C41F5801149084FEA30000019514154
:1004600032462B4603B0BDE8F04F00F0B6B9009815
:10047000012240000023D0EB020263EBE0730098FE
:1004800021464FEAE074B8EB000061EB0401E9E7B4
:1004900083F000435BE781F0004158E72DE9FE4F10
:1004A00081EA030404F0004421F0004100944FF07D
:1004B000000B23F0004350EA01045ED052EA03042B
:1004C0005BD0C3F30A54C1F30A552C44A4F2F334AD
:1004D0000194A0FB0254C1F3130141F48011C3F352
:1004E000130343F4801301FB024400FB034E840A10
:1004F000970A44EA815447EA8357A4FB07680295A8
:100500008D0A05FB07854FEA932C04FB0C54270545
:10051000029D4FEA065847EA1637B5EB08056EEB21
:10052000070C870E920E47EA811742EA8312A7FB57
:100530000201B6EB0B0164EB00042B0D43EA0C3314
:100540005E1844EB1C50DA465146E7FB0201C5F346
:1005500013044FEA0B3343EA14534FEA0432019C6D
:1005600043EA0603A4F10C040294009CCDE900B414
:1005700000F042F903B0BDE8F08F00200146F9E732
:100580002DE9F04D81EA030404F0004B21F0004511
:1005900014464FF0000A23F0004150EA050220D033
:1005A00054EA01021DD0C5F30A570246C5F31303EE
:1005B000C1F31300C1F30A5640F4801543F48013CD
:1005C000A7EB0608101BD64608F2FD3873EB0500B2
:1005D00002D308F1010801E092185B41B8F1000F65
:1005E00003DA00200146BDE8F08D00204FF48011B1
:1005F000064684460EE0171B73EB050705D3121B56
:1006000063EB050306434CEA010C49084FEA30004E
:1006100092185B4150EA0107EDD152EA030012D073
:1006200082EA040083EA0501084305D0101BAB41B0
:1006300006D20122002306E000224FF0004302E030
:100640006FF0010253101AEB06004CEB085110EB4F
:100650000A0041EB0B01BDE8F04D00F0BEB80EB54D
:10066000C10F80EAE0700844CA07002140F233431A
:100670008DE80E000A460B4600F0BEF803B000BD40
:1006800000F0004230F000400AD0C10D01F5607169
:10069000C0F3160042EA0151C208400711437047F7
:1006A00000200146704701F0004330B421F00041C2
:1006B00050EA010206D00A0DA2F56072C1F31301DF
:1006C000002A02DC30BC00207047440F44EAC10419
:1006D000C100E01830BC00EBC25000F047B830B5A4
:1006E0000B46014600202022012409E021FA02F5F0
:1006F0009D4205D303FA02F5491B04FA02F528448A
:10070000151EA2F10102F1DC30BD202A04DB203AE3
:1007100000FA02F1002070479140C2F1200320FA54
:1007200003F3194390407047202A04DB203A21FA52
:1007300002F00021704721FA02F3D040C2F12002FA
:100740009140084319467047202A06DBCB17203A10
:1007500041FA02F043EAE07306E041FA02F3D040C6
:10076000C2F1200291400843194670470029A8BFF2
:100770007047401C490008BF20F00100704710B4CA
:10078000B0FA80FC00FA0CF050EA010404BF10BC7F
:10079000704749B1CCF1200421FA04F411FA0CF1AC
:1007A00018BF012121430843A3EB0C01CB1D4FEAE5
:1007B00000614FEA102042BF002010BC704700EBE0
:1007C000C35010440029A4BF10BC7047401C49000E
:1007D00008BF20F0010010BC704710B5141E73F163
:1007E000000408DA401C41F1000192185B411A43F1
:1007F00001D120F0010010BD2DE9F04D92469B463D
:1008000011B1B1FA81F202E0B0FA80F220329046E2
:10081000FFF77BFF04460F4640EA0A0041EA0B015E
:1008200053465A46084313D0114653EA010019D0E3
:10083000C8F140025046FFF777FF05460E46504686
:1008400059464246FFF761FF084305D0012004E006
:1008500020463946BDE8F08D0020054346EAE076A3
:100860002C4337430A986305E40AA0EB08000022F2
:10087000FD0A44EA47540A3002D500200146E9E760
:10088000010510196941DDE9084500196941BDE814
:10089000F04DA2E7C1F30A52C1F3130140F2FF3356
:1008A00041F480119A4202DA00200146704740F27A
:1008B00033439A42A2F2334202DC5242FFF734BF82
:1008C000FFF723BF30B5041E71F1000404DB4FF0C5
:1008D0000044404264EB0101141E73F1000405DB87
:1008E0001C464FF00043524263EB0403994208BF99
:1008F000904230BD064C074D06E0E06840F0010331
:1009000094E8070098471034AC42F6D3FFF752FC46
:100910001C7F00083C7F00082DE9F04D00231A469B
:100920001B1A8A4103DB00200146BDE8F08DC1F3AC
:100930000A52C1F3130141F480154FF0000BD107A7
:1009400002D100186D41521E0027044640F2FF11EB
:10095000384601EB620A3E468046024600204FF4CC
:100960008011FFF7E1FEC2197141BB1846EB01008F
:10097000B4EB030C75EB000C04D3E41A65EB000533
:1009800017460E46241908F101006D4180463428AF
:10099000E3DDF91946EB0600091BA84103D24FF02D
:1009A000FF32134601E0002213461BEB070046EB23
:1009B0000A51BDE8F04DFFF710BF30B58C1810F8A4
:1009C000012B12F00F0301D110F8013B120906D1DF
:1009D00010F8012B03E010F8015B01F8015B5B1ECE
:1009E000F9D101E001F8013B521EFBD1A142E6D34F
:1009F000002030BDFEE70000014800F006BC00000A
:100A0000C00E0020014800F000BC0000C00E002015
:100A1000014800F0FABB0000E80E0020014800F099
:100A2000F4BB0000E80E002010B504F03DFEBDE868
:100A3000104004F07BBE000070B50C46054664A172
:100A400000F006F918B1204606F06CF8B9E061A193
:100A5000284600F0FDF818B1204606F0B7F8B0E0DF
:100A60005DA1284600F0F4F818B1204606F002F91E
:100A7000A7E05AA1284600F0EBF818B1204606F08E
:100A800039F99EE056A1284600F0E2F80028DDD1B1
:100A900054A1284600F0DCF80028D7D152A12846FE
:100AA00000F0D6F80028D1D150A1284600F0D0F8A7
:100AB0000028CBD14EA1284600F0CAF80028C5D1A5
:100AC0004CA1284600F0C4F800287AD14AA1284653
:100AD00000F0BEF8002874D148A1284600F0B8F80C
:100AE00000286ED146A1284600F0B2F8002868D14F
:100AF00044A1284600F0ACF8002862D142A1284663
:100B000000F0A6F800285CD140A1284600F0A0F82B
:100B1000002856D13EA1284600F09AF8002850D16E
:100B20003CA1284600F094F800284AD13AA1284672
:100B300000F08EF8002844D138A1284600F088F84B
:100B400000283ED136A1284600F082F8C8BB35A166
:100B5000284600F07DF8A0BB33A1284600F078F8C5
:100B600078BB32A1284600F073F850BB30A128466C
:100B700000F06EF810B105F073FC22E02DA12846BC
:100B800000F066F8E8B92CA1284600F061F8C0B979
:100B90002AA1284600F05CF898B929A1284600F05F
:100BA00057F870B927A1284600F052F848B926A195
:100BB000284600F04DF820B924A1284600F048F856
:100BC00008B1002070BD2146284604F057FFF8E721
:100BD0002A3100002A3200002A3300002A340000A3
:100BE0002A3500002A3600002A3700002A38000083
:100BF0002A39000023310000233200002333000093
:100C0000233400002335000023360000403100006B
:100C10004032000040330000403400004035000006
:100C200040360000403700004038000040390000E6
:100C3000243100002432000024330000243400005A
:100C40002436000024370000243800002439000036
:100C500030B50C46054602F0F7FE0346204602F08A
:100C6000F3FE83420AD1002004E0295C225C914219
:100C700004D1401C9842F8DB012030BD002030BD7B
:100C80000022835C23B18B54521C642AF9DB00E000
:100C90008B5401207047000000B505F00DFA0249A1
:100CA0000020A1F8940000BD980C002008B506486B
:100CB00000F0DEFE0548007800F0B8F8044800684F
:100CC00001684068009008BD501300200D0C002002
:100CD00050120020014800F0CBBE0000B0130020ED
:100CE00010B5044800F0C4FEBDE8104002490348B6
:100CF00006F042BB10140020840100207001002087
:100D000001681823CAB2103AB2FBF3F2054B6FF335
:100D10000901032A9B5CC36500D9091D816508464A
:100D200070470000B87D000810B5014600208B69AF
:100D30008A6A4FF0C07453B1B3F5005F15D072B139
:100D4000012A0CD0022A0AD0032A09D104E01AB1E0
:100D5000012A06D0022A03D1C96AC90100D501209F
:100D600010BDC96AA142FAD010BD002AF7D0012AED
:100D7000F2D0022AF3D0032AF3D010BD30B50468B4
:100D8000256825F480252560046863608368402B0E
:100D9000036803D099600068C26030BD9A60006843
:100DA000C16030BD2DE9F04781460027012602F0E1
:100DB0004BFE050034D00024DFF868802DE0621C73
:100DC0002146484602F048FE17A1FFF741FF88B1CF
:100DD00022463946484602F03FFE02F09BFD10EEE7
:100DE000100AFFF74DFC08EBC602671CC2E90001C0
:100DF000761C11E0281B01280ED12A4639464846A8
:100E000002F02AFE02F086FD10EE100AFFF738FC11
:100E100008EBC602C2E90001641CAC42CFDB3046DD
:100E2000BDE8F087480700202000000070B5214988
:100E3000214B28280A780BD012B19854521C0A7002
:100E400029280BD10024D0B225461C540C700BE08D
:100E5000002AF2D1282018700120087070BD58199E
:100E6000407858556D1CEDB2134802F0EDFD401E60
:100E7000A842F4DC104802F0E7FD18440E4A00F8DE
:100E8000024C503AA2F114010B4802F01BFD0A4833
:100E90005038FFF787FF014607486438FFF7CCFD5D
:100EA0000549002050390C54401CC0B26428FAD3C4
:100EB00070BD0000140000207C06002070477047C1
:100EC00002460020431E115C202904D011B1401CB1
:100ED0006428F8DB1846704710B50024A0B205F06E
:100EE0008FF9641C072CF9DD00224FF400510A48E9
:100EF00001F033F80122D102084801F02EF8012256
:100F00009103074801F029F806F01EFDBDE81040E6
:100F10000021044801F0CCBD00180240001002403E
:100F2000001402401012002090F82020012A07D05F
:100F3000022A05D0416A41F48021416201207047B4
:100F4000006842690A43426100207047F0B590F89A
:100F500020500468A468012D05D0022D03D0416AF9
:100F600041F4802153E014F0406F01D1E5004BD5EE
:100F7000C4F30164022C03D9416A41F4000146E044
:100F80000125A5401D608D684FF4C0739DB1CE68EA
:100F900035434E6845EAC605066803EB0417F5516C
:100FA0004FF4C275076805EB04150E697E51097D83
:100FB000012905D009E00E88CD6845EA4655EBE7E2
:100FC00001684E5946F480764E511179D2F8055099
:100FD0004FF4C67641EA0525016806EB04168D51EB
:100FE0001178D2F801204FF4C47541EA0221026859
:100FF00005EB04155151006803EB0411425842F00F
:10100000010242500020F0BD416A41F400114162EA
:101010000120F0BD10B590F82020012A07D0022A47
:1010200005D0416A41F480214162012010BD3B4856
:10103000D0F8002242F00102C0F80022D0F80022CD
:1010400022F47C52C0F80022D0F800224B6A42EA17
:101050000322C0F800220A7D02F01F0301229A40F9
:10106000D0F81C329343C0F81C32CB69B3B9D0F826
:101070000C329343C0F80C328C894B6864F31F43E5
:101080004C6900EBC404C4F840320C890B6864F36B
:101090001F434C6900EBC404C4F84432CB69012BF4
:1010A00016D1D0F80C321343C0F80C320C884B68C0
:1010B00064F31F434C6900EBC404C4F840320C894C
:1010C000CB6864F31F434C6900EBC404C4F844329A
:1010D0008B69002BD0F804320ED01343C0F80432D1
:1010E0000B69002BD0F8143208D01343C0F8143227
:1010F000096A012904D008E09343EFE79343F5E739
:10110000D0F81C121143C0F81C12D0F8001221F0C4
:101110000101C0F80012002010BD00000064004072
:10112000704730B590F82040012C05D0022C03D038
:10113000416A41F480215DE00468002955D02469AA
:10114000A40754D04FF4D874056804EB01142D594A
:1011500015F00405956005682D594ED0ED085560D1
:1011600005682C59C4F34004D4604FF4DA74056860
:1011700004EB01142D5905F00F05156105682D5973
:10118000C5F30725956105682C59240C54614FF46B
:10119000DC72046802EB0112A4581C700468A458A5
:1011A000240A5C700468A458240C9C700468A2583B
:1011B000120EDA704FF4DE72046802EB0112A458CA
:1011C0001C710468A458240A5C710468A458240C97
:1011D0009C710468A258120EDA71006881B101692D
:1011E00041F020010161002030BDE468A8E7416AB8
:1011F00041F400114162012030BD6D0D1560AFE773
:10120000C16841F02001C160EDE72DE9F05F0546BE
:10121000006800244669D0F804908768D0F80CB0C4
:10122000D0F810A0D0F81880F10748D0F90714D0F2
:1012300001218160B80703D5284600F0BAFB0CE015
:10124000780702D54FF4006407E0380702D54FF461
:10125000805402E0284600F0ABFBF80516D529685B
:101260004FF480708860B80503D5284600F0A3FBD2
:101270000CE0780502D544F4005407E0380502D5A7
:1012800044F4804402E0284600F094FBF80316D5AD
:1012900029684FF480308860B80303D5284600F0F1
:1012A0008CFB0CE0780302D544F4004407E03803DB
:1012B00002D544F4803402E0284600F07DFB30077C
:1012C00007D55FEACB6004D52968102044F4007488
:1012D000C86070074FF0080707D55FEA0B7004D5A8
:1012E0002868C760284600F0A9F9B00706D5286825
:1012F000C068800702D0284600F0A2F9700607D522
:101300005FEACA6004D52968102044F4806408614B
:10131000B00607D55FEA0A7004D528680761284639
:1013200000F016FBF00606D528680069800702D099
:10133000284600F00EFBB00308D55FEAC96005D56A
:10134000296810204860284600F004FBF00307D508
:101350005FEA097004D528684760284600F02EFB34
:10136000300446D55FEA497040D5F00504D55FEA00
:10137000C87001D044F00104B00504D55FEA88705C
:1013800001D544F00204700504D55FEA487001D528
:1013900044F00404300529D518F0700F26D008F069
:1013A0007000402815D006DC102809D020280AD06B
:1013B000302816D10AE050280ED0602811D10EE056
:1013C00044F008040DE044F010040AE044F0200466
:1013D00007E044F0400404E044F0800401E044F4F9
:1013E00080742868816921F0700181612968042076
:1013F0004860002C05D0686A204368622846FFF7E1
:101400008FFEBDE8F09F70B5040003D094F8200073
:1014100010B104E0012070BD204600F081F8206882
:10142000016821F00201016000F09CFD05460526DF
:1014300004E000F097FD401B0A2811D8206840689E
:101440008007F6D42068016841F00101016000F0D6
:1014500089FD05460BE000F085FD401B0A2806D9F2
:10146000606A40F40030606284F82060D2E720684F
:101470004068C007EFD0207E0128206801683DD079
:1014800021F080010160607E01282068016838D069
:1014900021F040010160A07E01282068016833D05E
:1014A00021F020010160E07E0128206801682ED033
:1014B00041F010010160207F01282068016829D0D7
:1014C00021F008010160607F01282068016824D0B4
:1014D00021F004010160D4E902010843D4E90412B7
:1014E000114308436168491E08432168C861002010
:1014F0006062012084F82000002070BD41F080016E
:10150000C0E741F04001C5E741F02001CAE721F002
:101510001001CFE741F00801D4E741F00401D9E719
:10152000F0B587B0044614216846FEF705FF3E4B30
:101530003E48DFF8F0E01968D4F800C03B4A0325C4
:101540000226092710300024491CF4452AD11960CD
:10155000012907D1016841F000710160006800F0C5
:1015600000700590106840F0080010601068CDE928
:10157000005600F00800CDE9047069462C48CDE91A
:10158000024500F0FDFB00220521132000F05CFD68
:10159000132000F04BFD00220521142000F054FD23
:1015A00014203BE0DFF88CE0F44539D1D0F800C0DE
:1015B0004CF0806CC0F800C0D0F800C001290CF0DD
:1015C000806CCDF814C0196007D1016841F000713A
:1015D0000160006800F000700590106840F00200A3
:1015E0001060106802AB00F0020005904FF440500C
:1015F000CDE9000683E8B00069460F4800F0C0FB63
:10160000002205213F2000F01FFD3F2000F00EFDCD
:1016100000220521402000F017FD402000F006FDCB
:1016200007B0F0BD00640040D80000203038024010
:10163000000C0240006800400004024070470000B7
:10164000F0B505460068BA49BA4C93B0884231D12A
:101650006B460BAA0021B848FFF763FD0B9E40F2D2
:101660001112B649A6F2111096427DD00EDCB44894
:10167000A6F20116A1F1080200F10E03072E19D2FD
:10168000DFE806F03E47587A99B6D300F5282BD00C
:1016900006DC012869D0F3280DD0F428D7D117E053
:1016A000F62801D0F728D2D1092004F07FFDA08AC6
:1016B000401CA082E2E0A248012269466F3804F093
:1016C0002FFD0B2004F072FD6088401C6080D5E087
:1016D0009B4869464F3804F0ABFA062004F066FDDB
:1016E000E089401CE081C9E0954869462F3804F044
:1016F0009FFA052004F05AFD2089401C2081BDE09E
:101700008E489DF80020801F017862F30711017058
:10171000B4E08B489DF800100F3841709DF801101F
:1017200011709DF8021051709DF80310017011881E
:101730004180A3E09DF8003013709DF80130537094
:10174000138803809DF8023013709DF803305370A6
:10175000128842809DF804200A709DF805204A7086
:101760009DF806208A7001E064E070E09DF8072093
:10177000CA700968416081E09DF8001011709DF801
:1017800001105170118801819DF8021011709DF8AF
:1017900003105170118841819DF8041011709DF85B
:1017A0000510517011888181032004F0FFFC208C0A
:1017B000401C208462E09DF8000008709DF8010044
:1017C00048709DF8020088709DF80300C870086892
:1017D00018609DF8040008709DF8050048709DF899
:1017E000060088709DF80700C8700868586045E0DA
:1017F0009DF8000008709DF8010048709DF80200F7
:1018000088709DF80300C870086898609DF804000F
:1018100008709DF8050048709DF8060088709DF8D6
:101820000700C8700868D86028E044499DF80000A7
:101830000B390AE041499DF800200A39087862F323
:1018400003009DF8012062F30710087016E03B4882
:101850009DF80020001D02709DF8012042709DF847
:1018600002200A709DF803204A709DF804208A70B7
:101870009DF80520CA700968C0F80210314928682F
:10188000884224D109AB02AA00212F48FFF749FC66
:10189000029840F20622A0F20621904233D008DCE2
:1018A000A0F20120052812D2DFE800F0131F2D2D31
:1018B0002D00012927D0022925D0A1F580710B39EF
:1018C00005D1042004F072FC208F401C208713B047
:1018D000F0BD1B48002209A9AF3804F021FC0C2000
:1018E00004F064FC34F84A0F0AE01548002209A904
:1018F0008F3804F015FC0D2004F058FC34F8500F1C
:10190000401C2080E3E702980C49C01E0C39C0B28D
:1019100008700E4ABDF8261002EB401049BAC1808B
:101920000A2004F043FC608B401C6083CFE700007A
:1019300000640040300D0020C00E00204400002054
:10194000EF0B002000680040E80E0020800A002015
:10195000704770477047000070B5044690F820004B
:10196000012804D0606A40F40020606218E0022080
:1019700084F820002068016821F00101016000F076
:10198000F1FA05460EE000BF00F0ECFA401B0A2811
:1019900008D9606A40F400306062052084F82000B5
:1019A000012070BD20684068C007EDD1606270BD45
:1019B00070477047704770477047704770472DE910
:1019C000F0410446876D00F0CDFA064694F83500E4
:1019D0000025022806D08020606584F8345001205C
:1019E000BDE8F0812068016821F0160101602068DF
:1019F000416921F080014161206C08B9A06C20B1DF
:101A00002068016821F0080101602068016821F068
:101A1000010101600BE000F0A5FA801B052806D942
:101A20002020606504F8345F03206070D8E72068E8
:101A30000068C007EFD194F85C103F208840B86080
:101A400004F8345F012060700020C9E790F8351079
:101A5000022903D08021416501207047052180F8CB
:101A600035100068016821F0010101600020704715
:101A70002DE9F84304464FF00009CDF80090634883
:101A80004FF41651A56D0068B0FBF1F72E6894F87D
:101A90005C10082000FA01F131420FD021680A6879
:101AA00052070BD50A6822F004020A6094F85C1011
:101AB0008840A860606D40F00100606594F85C109B
:101AC0004FF0010808FA01F0304208D02168496956
:101AD000090604D5A860606D40F00200606594F8C6
:101AE0005C1004208840304208D0216809688907CA
:101AF00004D5A860606D40F00400606594F85C1047
:101B000010208840304218D021680968090714D590
:101B1000A86020680168490304D50068000308D55F
:101B2000A16C07E00168C90503D4016821F0080130
:101B30000160216C09B12046884794F85C10202090
:101B40008840304231D021680968C9062DD5A86087
:101B500094F8350005282068016806D0490347D568
:101B6000006800031DD4616C1CE021F016010160C7
:101B70002068416921F080014161206C08B9A06CA6
:101B800020B12068016821F00801016094F85C1020
:101B90003F208840A86084F8349084F83580216D17
:101BA0001FE0E16B09B120468847606D00282BD00B
:101BB000606DC00714D0052084F8350020680168E6
:101BC00021F0010101600098401C0090B84203D848
:101BD00020680068C007F6D184F8349084F8358016
:101BE000E16C002910D001B02046BDE8F043084761
:101BF0000168C905D5D4016821F01001016084F89D
:101C0000349084F83580CCE7BDE8F88304010020E7
:101C10002DE9F041044600F0A5F906465CB1002527
:101C200084F83450022084F835002068016821F0DF
:101C3000010101600DE00120BDE8F08100F092F9A2
:101C4000801B052805D920206065032084F8350015
:101C5000F2E720680068C007F0D1226811682048C8
:101C60000140D4E901031843D4E903363343184350
:101C700063691843A3691843E3691843236A184347
:101C80000843616A042903D1D4E90B1319430843BB
:101C9000106020684069666A20F0070130460E43F4
:101CA000012704280CD1A06A0643E06A40B120460F
:101CB000FFF73AF820B14020606584F83570BAE744
:101CC000206846612046FFF71BF894F85C203F210E
:101CD00091408160656584F835700020ACE70000B4
:101CE0003F8010F02DE9F0410446866D90F83400F5
:101CF000002501280DD0012084F8340094F83570B7
:101D00000020012F07D084F8340002252846BDE8C2
:101D1000F0810220FBE7022784F8357060652046D9
:101D2000FFF72CF894F85C103F208840B0602068E2
:101D3000016841F0160101602068416941F08001AD
:101D40004161206C20B12068016841F00801016008
:101D50002068016841F001010160D7E770B50446D1
:101D600000F000F90546601C02D0044800780444E5
:101D700000F0F8F8401BA042FAD370BDF800002034
:101D80002DE9F84FDFF890B100224FF001084FF035
:101D9000030A4FF00F090BF1040E00BF0B6808FA9D
:101DA00002F42340A3426ED14D68022D01D0122DC2
:101DB0000ED1D50800EB850CDCF820505607F70E45
:101DC00009FA07F6B5430E69BE402E43CCF82060F1
:101DD000066855000F790AFA05FC07F0030726EAA2
:101DE0000C06AF40374307604E68012E05D0022E27
:101DF00003D0112E01D0122E0ED18768CE6827EAAB
:101E00000C07AE403E4386604668A6430C79C4F397
:101E10000014944034434460C4688E6824EA0C047F
:101E2000AE402643C6604C68E4006FD53B4C256845
:101E300045F480452560246822F0030504F48044BD
:101E40000094374C2E19D6F8084895072F0F09FA39
:101E500007F5AC43334DA84201D100252EE0324DA9
:101E6000A84201D1012529E0304DA84201D1022527
:101E700024E02F4DA84201D103251FE02D4DA8429B
:101E800002D104251AE041E02B4DA84201D10525DD
:101E900014E02A4DA84201D106250FE0284DA842A2
:101EA00001D107250AE0274DA84201D1082505E008
:101EB000254DA84201D1092500E00A25BD40254352
:101EC000C6F80858DBF800405D464E689C43F603B0
:101ED00000D51C432C60DEF8004075464E689C43DC
:101EE000B60300D51C432C600B4D08352C684E689A
:101EF0009C43F60200D51C432C60074D0C352C6822
:101F00004E689C43B60200D51C432C60521C102A1C
:101F1000FFF444AFBDE8F88F003C01404438024074
:101F2000003001400000024000040240000802406E
:101F3000000C024000100240001402400018024051
:101F4000001C02400020024000240240426931EAA5
:101F5000020200D10904816170470AB181617047B2
:101F60000904FBE70148806870470000F800002082
:101F7000024881680278114481607047F8000020AF
:101F80000B4810B5016841F400710160016841F42B
:101F900080610160016841F480710160032000F0FC
:101FA00073F80F2000F006F800F024F8002010BDB0
:101FB000003C024070B50D4D04464FF47A7128780C
:101FC000B1FBF0F00A490968B1FBF0F000F04DFCFC
:101FD00048B9102C07D200222146501E00F034F8D8
:101FE00000206C6070BD012070BD0000F800002072
:101FF000040100200C4882B0016841F48041016076
:10200000006800F4804000900748001F016841F01C
:10201000805101600068002200F0805000900F2184
:10202000901E02B000F010B844380240002809DBCE
:1020300000F01F02012191404009800000F1E020E2
:10204000C0F8001170470000F0B40E4B1B680C463E
:10205000C3F30223C3F10705042D00D90425191D7C
:10206000072901D2002300E0DB1E012606FA05F154
:10207000491E214099409E40761E16403143F0BCD7
:1020800002F0D4B90CED00E0064900F00702086840
:102090004FF6FF03184040EA0220034A104308604D
:1020A000704700000CED00E00000FA052DE9F04754
:1020B0000E46050065D0DFF81481D8F80000F7B2AD
:1020C00000F00F00B04207D288F80070D8F8000086
:1020D00000F00F00B04254D128683D4C810712D562
:1020E000400703D5206840F4E050206028780007BE
:1020F00003D5206840F4604020602068A96820F083
:10210000F000084320602878C0072DD03049686867
:102110000839012812D0022813D0032811D00968E9
:10212000890700292DDA216821F00301014321608C
:10213000FFF718FF814641F2883A0EE009688903EB
:10214000EFE709688901ECE7FFF70CFFA0EB090155
:10215000514502D90320BDE8F0872068696800F086
:102160000C00B0EB810FEFD1D8F80010404601F021
:102170000F01B14207D90770006800F00F00B042AC
:1021800001D00120E7E72878400705D52068E968F5
:1021900020F4E050084320602878000706D5206826
:1021A000296920F4604040EAC100206000F036F860
:1021B0002168084AC1F30311515CC8400649086010
:1021C0000F20FFF7F7FE0020C5E70000003C0240AB
:1021D00008380240C07D0008040100200448054979
:1021E00000680968044AC1F38221515CC840704705
:1021F0000401002008380240D07D00080448054949
:1022000000680968044AC1F34231515CC840704714
:102210000401002008380240D07D0008154810B5A0
:10222000006810F00C02144813D01449042A0FD08F
:10223000082A0ED10F4C241F2268236802F03F02A7
:102240005B0207D52068C0F38810A0FB010106E0FF
:10225000084610BD2168C1F38811A1FB00010023CD
:10226000FEF720F82168C1F30141491C4900B0FB89
:10227000F1F010BD083802400024F400001BB70044
:102280002DE9F84F050076D02878DFF8F8B2BE4C7B
:10229000C00749D0DBF800105846C1F3810101297D
:1022A00008D00068C0F3810002280AD1201D006810
:1022B000400206D52068800336D568680028E2D041
:1022C00032E06868B0F5803F10D0B0F5A02F2068EC
:1022D00010D020F480302060206820F4802020601E
:1022E0006868A0B1FFF73EFE06460CE0206840F4A7
:1022F0008030F4E740F480202060F7E7FFF732FEFB
:10230000801B642873D820688003F7D50CE0FFF7A2
:1023100029FE064605E000BFFFF724FE801B642867
:10232000F0D820688003F7D42878DFF8608280072F
:102330004FF000093ED5DBF80010584611F00C0FA5
:1023400009D00068C0F3810002280BD18D48001F1E
:102350000068400206D42068800715D5E868012887
:1023600009D111E0E868B8B10120C8F80000FFF712
:10237000F9FD064605E002E1FFF7F4FD801B0228A7
:10238000C0D820688007F7D52068296920F0F800B8
:1023900040EAC10020600DE0C8F80090FFF7E2FDC0
:1023A000064604E0FFF7DEFD801B02281FD82068E8
:1023B0008007F7D42878000722D5724E74486969DF
:1023C0006C3671B101210160FFF7CCFD074604E0D6
:1023D000FFF7C8FDC01B022809D830688007F7D571
:1023E0000EE0C0F80090FFF7BDFD074605E083E072
:1023F000FFF7B8FDC01B02287ED830688007F7D4ED
:102400002878400768D5DFF87CA100270AF1380A50
:10241000DAF80000C0000BD4DAF8001041F0805167
:10242000CAF80010DAF80000012700F08050009090
:10243000584E3068C00510D4306840F48070306069
:10244000FFF790FD009005E0FFF78CFD0099401A22
:10245000022851D83068C005F6D54A4EA8686836BB
:1024600001280FD00528306810D020F0010030601E
:10247000306820F004003060A868B8B1FFF772FD42
:1024800000900FE0306840F00100F4E740F00400F5
:102490003060F7E7FFF766FD0099411A41F2883096
:1024A000814264D830688007F4D50EE0FFF75AFD0A
:1024B000009007E0FFF756FD0099411A41F288307D
:1024C000814254D830688007F4D42FB1DAF8001074
:1024D00021F08051CAF80010A869C0B3DBF80010E1
:1024E000C1F3810102294AD00228484607D0C8F822
:1024F0006000FFF737FD00E039E005463AE0474667
:10250000C8F86000FFF72EFD064604E0FFF72AFD3D
:10251000801B02282BD820688001F7D4D5E9070159
:102520000843A96A1C4A490802EB01416A6A41EA68
:102530008211084395F82C1040EA01611148001FF0
:10254000016001203866FFF70DFD054605E014E047
:10255000FFF708FD401B022809D820688001F7D545
:102560000BE000BFFFF7FEFC401B022802D903204E
:10257000BDE8F88F20688001F4D40020F8E701203E
:10258000F6E70000083802400038024000004742E9
:10259000800E4742007000400000FFFF70B504004D
:1025A00005D00025A56294F8510010B106E0012085
:1025B00070BD84F85050204600F030F8022084F8B6
:1025C00051002068016821F040010160D4E9010157
:1025D0000843D4E903121143084361690843218B7E
:1025E00001F400710843E1690843216A0843A16AC4
:1025F000084321680860A069042101EA1040616A6B
:102600000843216848602068C16921F40061C16104
:102610006565012084F85100002070BD10B586B0BA
:10262000044614216846FDF787FE14492068884255
:1026300021D113480021026842F480120260006830
:1026400000F4801005900E481438026842F0200211
:102650000260006800F0200005904FF46070009068
:102660000220CDE901010320039005200490694672
:102670000448FFF785FB06B010BD00000050014084
:1026800044380240001402402DE9F84F044690F807
:10269000500000270A9E1D4692468B464FF00109C6
:1026A00001280ED0012084F85000FFF75BFC804623
:1026B00094F85100616801280CD0B1F5827F07D1F0
:1026C00002E00220BDE8F88FA16809B9042801D012
:1026D0000227C2E0BBF1000F27D0BAF1000F24D0CF
:1026E0001DB394F85100042802D0052084F851004D
:1026F00000206065C4F838A0E587A587C4F830B02D
:10270000E586A5862064606420680168490603D4D4
:10271000016841F040010160E068B0F5006F606859
:1027200005D0E8B3012D46D07FE0012795E008B140
:10273000012D39D1206B21680088C860206B801C76
:102740002063E08E401EE0862EE0206881688907C5
:102750000FD5E18E69B1B9F1010F0AD1216B09885A
:10276000C160206B801C2063E08E401EE0864FF02D
:10277000000920688168C9070CD0E18F51B1C06899
:10278000A16B0880A06B801CA063E08F401EE087D7
:102790004FF00109FFF7E6FBA0EB0800B04200E0B4
:1027A00009E001D3701C50D1E08E0028CDD1E08F1C
:1027B0000028CAD13FE0206B216800780873206BA5
:1027C000401C2063E08E401EE0862EE02068816879
:1027D00089070FD5E18E69B1B9F1010F0AD1216BDB
:1027E00009780173206B401C2063E08E401EE08658
:1027F0004FF0000920688168C9070CD0E18F51B102
:10280000C068A16B0870A06B401CA063E08F401EE5
:10281000E0874FF00109FFF7A5FBA0EB0800B042ED
:1028200002D3701C01D010E07EB1E08E0028CDD123
:10283000E08F0028CAD142463146204600F0CCFF46
:1028400028B101272020606507E0032705E0A06884
:1028500018B92068C16880680090012084F8510090
:10286000002084F8500038462CE710B5401EB0F127
:10287000807F01D3012010BD4FF0E02460610F2163
:10288000601701F0D3FD0020A06107202061002027
:1028900010BD70B590F83C20012A19D0012400F831
:1028A0003C4F0222427050F83C3C5A689D6822F02E
:1028B00070060A684968324325F0800529435A604A
:1028C00050F83C2C9160447000210170084670BDA6
:1028D000022070BD10B586B0044614216846FDF78D
:1028E0002BFD23681A4C00211A480222A34213D15F
:1028F000036843F002030360006800F002000590E3
:1029000020200090CDE90121CDE90312694612484B
:10291000FFF736FA06B010BD104CA342FAD1036897
:1029200043F080030360006800F0800005904020C1
:102930000090CDE901210920CDE90310694608483E
:10294000FFF71EFA142269460648FDF7DCFCE1E7B2
:1029500000040040303802400004024000180040EB
:10296000001C0240BC11002070B5044690F83C00E9
:102970000D4601280DD0012684F83C60022084F821
:102980003D0042B1042A18D0082A2AD00C2A4DD181
:1029900039E0022070BD206801F05CF9206881698F
:1029A00041F0080181612068816921F004018161A1
:1029B000206881692A69114311E0206801F07AF9E1
:1029C0002068816941F4006181612068816921F496
:1029D00080618161206881692A6941EA02218161FF
:1029E00024E0206801F09CF92068C16941F00801E9
:1029F000C1612068C16921F00401C1612068C16919
:102A00002A69114311E0206801F0BEF92068C1690C
:102A100041F40061C1612068C16921F48061C16134
:102A20002068C1692A6941EA0221C16184F83D60D8
:102A3000002084F83C0070BD10B5040003D094F869
:102A40003D0010B107E0012010BD002084F83C00DB
:102A5000204600F00DF8022084F83D00211D20687A
:102A600001F086F8012084F83D00002010BD000030
:102A700008B50C4A01680C48914207D1016841F041
:102A800002010160006800F0020009E0074A91427B
:102A900007D1016841F040010160006800F040008A
:102AA000009008BD0004004040380240001800407B
:102AB00010B504460068012201F0BEF80B492068F9
:102AC000884202D00A49884203D1416C41F4004156
:102AD00041642068816801F00701062903D001687C
:102AE00041F001010160002010BD00000000014024
:102AF0000004014010B504460068002201F09CF873
:102B0000114841F2111221689310814202D00F48FE
:102B1000814209D1086A104206D1086A184203D1DD
:102B2000486C20F4004048642068016A114206D1D4
:102B3000016A194203D1016821F0010101600120FD
:102B400084F83D00002010BD000001400004014059
:102B500010B504460068416994F83920C1F3C011EA
:102B6000212A0BD151B1416921F080014161206BD3
:102B700008B1FEF724FF204601F0B2F92068416950
:102B800094F83A20C1F38011222A0BD151B1416946
:102B900021F040014161606B08B1FEF710FF204653
:102BA00001F090F9002010BD08B5C16B082903D1D0
:102BB000006801684068009008BD000070B50268B8
:102BC00004461068D168536910F00F0F51D003F01C
:102BD000010501F4907635435DD0C20705D0CA05E2
:102BE00003D5E26B42F00102E263420705D5DA0742
:102BF00003D0E26B42F00202E263820705D5DA07F6
:102C000003D0E26B42F00402E263020705D5DA0763
:102C100003D0E26B42F00802E263E26B002A34D098
:102C2000800604D5880602D5204601F0B7F9206851
:102C30004069E16BC0F3801001F0080101432046B8
:102C400024D001F03FF92068416949061AD541694D
:102C500021F040014161606BA0B11B490165606BCF
:102C6000FEF7F4FE002810D0606B016DBDE87040E7
:102C7000084783060FD58B060DD52046BDE870406A
:102C800001F08CB92046FFF78FFF70BDFFF78CFF76
:102C90000020E06370BD030606D50B0604D5204670
:102CA000BDE8704001F01CBB4006F3D54806F1D5E5
:102CB000D168204621F04001D160202184F83910EC
:102CC00000F0ACF970BD0000253E000870B50400AE
:102CD00004D094F83900002510B106E0012070BD41
:102CE00084F83850204600F023F8242084F8390076
:102CF0002068C16821F40051C160204601F09AF9B2
:102D00002068016921F4904101612068416921F046
:102D10002A0141612068C16841F40051C160E56346
:102D2000202084F8390084F83A00002070BD0000AB
:102D30002DE9F04F87B0054614216846FDF7FCFAEF
:102D40008448DFF80C8210382B680024DFF80492E6
:102D5000022101220326DFF800E207154FF0080CDC
:102D60004FF0206A4FF4807B434534D1D9F800807E
:102D700048F08048C9F80080D9F8003003F080435B
:102D80000593036843F010030360006800F010002F
:102D90000590F0018DE8471069467046FEF7F0FF98
:102DA0006F4E6E483060C6E901A4C6E903477461FE
:102DB000C6E9064B346230467462FEF729FF08B15B
:102DC000FEF77DF86E63002205215220B563FFF700
:102DD0003BF9522093E0DFF88C81434534D1D9F898
:102DE000008048F00048C9F80080D9F8003003F0AE
:102DF00000430593036843F0100303600068CDE9C6
:102E0000006100F01000CDE904C0CDE9022669465A
:102E10007046FEF7B5FF524E50486036483030607D
:102E2000C6E901A4C6E903477461C6E9064B3462EA
:102E300030467462FEF7ECFE08B1FEF740F86E63B0
:102E4000B56307B0BDE8F08FDFF81C81DFF80491AF
:102E5000434509F1040955D1D9F800C04CF0100CD4
:102E6000C9F800C0D9F8003003F0100305930368D7
:102E700043F002030360036803F002030593036851
:102E800043F0010303600068894600F001000590EB
:102E90008020CDE90009CDE902264FF0070A9046CF
:102EA0006946CDF810A03148FEF76AFF4FF4007074
:102EB000CDE90009CDE902866946CDF810A02C487D
:102EC000FEF75EFF264E2B48C03630604FF00060A4
:102ED000C6E90104C6E903477461B461F461346270
:102EE00030467462FEF794FE08B1FDF7E8FF6E63AA
:102EF000002205212520B563FFF7A6F82520FFF75E
:102F000095F89EE71C4CA3429BD1D9F8004044F0B1
:102F10002004C9F80040D9F8003003F020030593DD
:102F2000036843F040030360006800F04000059030
:102F30004FF484408DE8471069461048FEF720FFA3
:102F4000002205214720FFF77FF84720D7E7000040
:102F500000780040403802400010024058600240B3
:102F600050130020007C004000100140000402408B
:102F7000000002404064024000140140001802407A
:102F8000F8B5044690F83A0020283CD1C1B3BAB352
:102F900094F83800012836D0012084F83800A16266
:102FA000A2850025E563222084F83A00636B174868
:102FB000D863636B16481864636B1648D864606BFB
:102FC000134605650846666B216802463046091DB2
:102FD000FEF788FE206801684168009184F8385047
:102FE000C16841F48071C1602068416941F001010C
:102FF00041612068416941F0400141610020F8BD14
:10300000FFE70120FBE70220F9E700007F3E000810
:10301000BB3E0008353E0008704770477047FEE72A
:103020007FB50E2269463B2000F024F9BDF8000070
:103030009FED1C1A41BA1A48A0F114040180BDF892
:10304000021049BA4180BDF8041049BA8180BDF828
:10305000061049BA00EE101AB8EE400AC0EE010A96
:10306000B3EE050A30EE800ABDEEC00A10EE101A6B
:10307000C180BDF808104ABA2281BDF80A1049BAC9
:103080006181BDF80C305BBAA38128342589521BBD
:1030900002816289891A4181A189591A81817FBD82
:1030A000AA0100205CEFA64310B56A4C2DED0A8BF7
:1030B000B8EE009AF0EE008AB7EE00BAD4ED029AAC
:1030C00094ED038A29EE890A68EE280A20EE290A7F
:1030D00000EEC80A30EE0B0A10EE100AFDF7D0FA27
:1030E00094ED010AD4ED000A41EC1A0B20EE280AF7
:1030F00060EEA80A20EE290A00EE880A10EE100AF7
:10310000FDF7BEFA41EC100BB0EE4A1AF0EE6A1A67
:1031100001F0BAFC9FED50AB51EC100B53EC1A2BA5
:10312000FDF7BCF9FDF7BFFA08EE100A4C4984ED33
:10313000098A94ED080A38EE400A10EE100A884217
:1031400002DDE069401EE06110EE100A4549884248
:1031500002D9E069401CE06184ED088A2069F0B979
:10316000E069FDF77CFA9FED401B53EC112BFDF756
:1031700095F941EC1C0B18EE100AFDF781FA53EC9F
:103180001C2BFDF7E4F8FDF78EFAA062E06A40F62A
:10319000B831401CE062884201DD0120206194EDDD
:1031A000018A28EE090A60EE080A94ED020A60EE30
:1031B000289A49EEC00A30EE8B0A10EE100AFDF78D
:1031C0005FFA94ED030AD4ED000A41EC1B0B29EEE3
:1031D000800A60EEA80A00EE880A10EE100AFDF7D9
:1031E0004FFA41EC100BB0EE4B1AF0EE6B1A01F0F7
:1031F0004BFC53EC1A2B51EC100BFDF74FF9FDF77C
:1032000052FAE06694ED010AD4ED030A94ED021A35
:1032100020EE090A20EE200AD4ED000A60EEA80A8A
:1032200000EE810A10EE100AFDF72AFA41EC100BAD
:1032300001F00EF953EC1A2B51EC100BFDF72EF99F
:10324000FDF731FA0A49A066488E401C4886BDEC5D
:103250000A8B10BD640000206666666666A64C4058
:103260000000A5430000A5C30000000000807640D8
:10327000300D0020F8B5134F15460E4604460022C7
:1032800040213846FEF769FE0F4944F0800037249C
:103290004871891D8A1E08700123491E0B4800943D
:1032A000FFF7F2F908492B463246891D074800947A
:1032B000FFF7EAF9012240213846FEF74EFE0020D2
:1032C000F8BD00000014024000000020641100203E
:1032D000104810B50E4901600321416000214FF4F0
:1032E00000228160C0E903124FF44012426101766E
:1032F000012242768176C17601774277FEF783F824
:10330000002803D0BDE81040FDF7D9BD10BD000076
:1033100000640040C00E0020104810B50E49016046
:103320000321416000214FF400228160C0E90312B3
:103330004FF4401242610176012242768176C176D5
:1033400001774277FEF75FF8002803D0BDE8104010
:10335000FDF7B5BD10BD000000680040E80E00207C
:10336000154808B5016841F480010160016801F465
:1033700080010091016841F40011016000680022A1
:1033800000F40010009005210E20FEF75DFE0E20D7
:10339000FEF74CFE002205211120FEF755FE1120FC
:1033A000FEF744FE002205213A20FEF74DFEBDE85F
:1033B00008403A20FEF73ABE3038024010B5AAB0B5
:1033C0001C2221496846FCF79EFF0021684603F055
:1033D000C0FC1E4C1C491C2220601C3107A8FCF7B5
:1033E00092FF002107A803F0B4FC174960601C227B
:1033F00038310EA8FCF787FF00210EA803F0A9FCC6
:103400001149A0601C22543115A8FCF77CFF002153
:1034100015A803F09EFC0C49E0601C2270311CA82A
:10342000FCF771FF00211CA803F093FC0649206102
:103430001C228C3123A8FCF766FF002123A803F08F
:1034400088FC60612AB010BD107D0008DC000020FF
:103450002DE9F04F87B014216846FCF76DFF4C480A
:103460000024016841F010010160016801F01001C1
:103470000591016841F002010160016801F002015B
:103480000591016841F040010160016801F04001CF
:103490000591016841F001010160016801F001013D
:1034A0000591016841F008010160016801F008011F
:1034B0000591016841F480710160016801F4807137
:1034C0000591016841F080010160016801F080010F
:1034D0000591016841F0200101600068DFF8B480C7
:1034E00000F0200040F604050590002229464046E1
:1034F000FEF733FDDFF8A09042F2FE1600223146BF
:103500004846FEF72AFDDFF894B000223C215846D9
:10351000FEF723FDDFF888A044F240070022394679
:103520005046FEF71AFD00950125CDE90154694684
:1035300040460394FEF724FC0096CDE90154694609
:1035400048460394FEF71CFCCDE900546946154833
:103550000295FEF715FC3C200090CDE90154694628
:1035600058460394FEF70CFC0097CDE901546946D8
:1035700050460394FEF704FC4FF4C0508DE8310030
:1035800069465846FEF7FCFB07B0BDE8F08F000027
:10359000303802400010024000180240001C024077
:1035A0000014024000200240104810B50E4901608E
:1035B0004FF48271416000218160C1604FF400725C
:1035C0000161C0E905123022C0E907214162816230
:1035D0000A21C162FEF7E2FF002803D0BDE81040D7
:1035E000FDF76DBC10BD00000050014064110020CB
:1035F00010B588B01C216846FCF79EFE12481149A0
:10360000002401605321C0E9011410490968C0E990
:1036100003148461FFF710FA08B1FDF750FC602035
:10362000CDE9000402940022694607480494FFF79C
:103630009BF908B1FDF743FC0348FFF74BF908B0CD
:1036400010BD00000018004010120020F4000020FF
:1036500010B58AB0002407941C2168460894FCF732
:103660006BFE1548134901605321C0E90114C46081
:1036700004618461FFF7E0F908B1FDF720FC0794CD
:1036800007A90D480894FFF704F908B1FDF717FCE6
:103690006020CDE90004029404226946064804949F
:1036A000FFF762F908B1FDF70AFC0348FFF712F9CA
:1036B0000AB010BD00040040D01100200C4810B525
:1036C0000A4901604FF4E1314160002181600C2220
:1036D000C160C0E904128161C161FFF7F7FA0028F7
:1036E00003D0BDE81040FDF7EABB10BD00780040F4
:1036F000501200200C4810B50A4901604FF4E13126
:103700004160002181600C22C160C0E90412816126
:10371000C161FFF7DBFA002803D0BDE81040FDF7D8
:10372000CEBB10BD007C0040901200200D4810B5AB
:103730000B4901600C49416000214FF480628160B7
:10374000C0E903120422C0E90521C161FFF7BEFAF6
:10375000002803D0BDE81040FDF7B1BB10BD00004C
:1037600000100140D0120020A08601000C4810B5C6
:103770000A4901600B494160002181600822C16053
:10378000C0E904128161C161FFF7A0FA002803D0EB
:10379000BDE81040FDF793BB10BD000000140140D0
:1037A0001013002040420F00FEE7704710B502F0F2
:1037B00011F8BDE8104002F041BD01EE901AF8EE9C
:1037C000611AC0ED031A01EE902AF8EE611AC0EDFD
:1037D0000A1A80EC030A704738B504461248134BA6
:1037E0000068B0FBF3F04FF47A73584300906068C0
:1037F000B0F5827F0DD10B46009200228021204639
:1038000000F016F870B1606D40F020006065032094
:1038100038BD009830B1401E009020688068C043D9
:103820000006F6D5002038BD0401002000366E01E8
:103830002DE9F0411D4617460E460446DDF8188076
:1038400008E0681C06D0FEF78DFBA0EB0800A8423C
:103850000BD255B12068806836EA000030D00020D5
:10386000B842EED10020BDE8F0812068416821F027
:10387000E00141606068B0F5827F0BD1A068B0F5CF
:10388000004F02D0B0F5806F04D12068016821F0AC
:1038900040010160A06AB0F5005F09D120680168AD
:1038A00021F4005101602068016841F40051016079
:1038B000012084F85100002084F850000320D2E752
:1038C0000120CDE7F0B514460E460746FDF7F8FA9D
:1038D0000346384600F0B8F80146002002E03A5CA2
:1038E0003254401C9842FADB0025F554581C06E07F
:1038F000A0EB030C3A5CA444401C0CF8012C884259
:10390000F6DB65545B1C04D131463846FDF7B8F947
:103910002570F0BD2DE9F04106462DED088B4FF0E6
:1039200000089FED438B4446B0EE489AF0EE689A4B
:10393000305D58B1A0F130010A2903D32E2801D0FF
:103940002D2803D1641CE4B20A2CF1D3002504E035
:10395000705D2E2803D06D1CEDB2A542F8D3002770
:103960009FED35AB15E0F05D2D2818D03038FCF711
:1039700076FE41EC1B0B53EC1A2B51EC190BFCF7A8
:103980008DFD53EC1B2BFCF7E2FC41EC190B7F1C6B
:10399000FFB2AF42E7D37F1CFDB22F4618E04FF0D5
:1039A0000108F4E7705D30380A2813D2FCF757FE9F
:1039B00041EC1B0B53EC1A2B51EC180BFCF76EFD72
:1039C00053EC1B2BFCF7C3FC41EC180B6D1CEDB248
:1039D000A542E7D300259FED1AABE41B0AE000BF28
:1039E00053EC1A2B51EC180BFCF758FD41EC180B5B
:1039F0006D1CEDB2AC42F3DC53EC182B51EC190BFF
:103A0000FCF7A5FC41EC100BB8F1000F05D051EC10
:103A1000100B81F0004141EC100B51EC100BFCF746
:103A200042FEBDEC088B00EE100ABDE8F0810000FC
:103A30000000000000000000000000000000244022
:103A40009A9999999999B93F014600200A5C401CBE
:103A5000002AFBD1401E704770B50B46074C04E0AE
:103A6000E618C55C761A5B1C35709342F8DB0020C3
:103A70002244511A0870014870BD0000E006002081
:103A800010B5FEF775FA04F061F8012803D0BDE81F
:103A9000104003F0EDBF10BD30B593B03021684643
:103AA000FCF74AFC14210CA8FCF746FC1948002539
:103AB000016841F080510160006800F08050119071
:103AC0001548016841F4404101600068022400F497
:103AD0004040119001200090000401908001CDE948
:103AE000064006200890A820CDE9090404200B9088
:103AF0006846FEF7C5FB0CA90F2081E831004FF4A2
:103B0000A0500F90E002109005210CA8FEF7CEFA0D
:103B100013B030BD403802400070004010480168CA
:103B200041F4700101600F48016841F0010101603A
:103B30000C4A00210832116002680B4B1A400260E7
:103B4000031D0A4A1A60026822F4802202600548B6
:103B50000C30016002495806803908607047000047
:103B600088ED00E000380240FFFFF6FE1030002430
:103B7000F0B50268254C264D264E274F274B4FF0B7
:103B8000804CA04209D0604507D0A84205D0B04281
:103B900003D0B84201D0984204D122F0700E4A6896
:103BA00042EA0E02A0421BD0604519D0A84217D0AD
:103BB000B04215D0B84213D0984211D0184DA84247
:103BC0000ED0184DA8420BD0174DA84208D0174D63
:103BD000A84205D0164DA84202D0164DA84203D1E6
:103BE00022F44075CA682A434D6922F080022A43B4
:103BF00002608A68C2620A688262A04201D098426A
:103C000001D10969016301214161F0BD000001405A
:103C10000004004000080040000C00400004014087
:103C200000400140004401400048014000180040AD
:103C3000001C00400020004010B501F01F030121CE
:103C4000046A99408C430462016A9A4011430162FC
:103C500010BD0000F0B5026A22F001020262036AA0
:103C600042688469124E24F073050C682C4323F0DB
:103C700002058B682B430D4DA84201D0B04205D1FF
:103C800023F00807CB683B4323F00403A84201D08C
:103C9000B04205D14D6922F4407215438A692A4326
:103CA00042608461496841630362F0BD00000140E5
:103CB00000040140F0B5026A22F010020262026ABA
:103CC000436884690D6824F4E64444EA05248D6859
:103CD00022F0200242EA05120F4D104EA84201D0F8
:103CE000B04206D1CF6822F0800242EA071222F0E9
:103CF0004002A84201D0B04207D14D6923F440638D
:103D000043EA85038D6943EA85034360846149681A
:103D100081630262F0BD0000000001400004014028
:103D2000F0B5026A22F480720262026A4368C469D2
:103D300022F4007224F073050C68124E2C438D6837
:103D400042EA05220E4DA84201D0B04206D1CF680A
:103D500022F4006242EA072222F48062A84201D0E3
:103D6000B04207D14D6923F4405343EA05138D69EE
:103D700043EA05134360C4614968C1630262F0BD50
:103D8000000001400004014030B5026A22F4805274
:103D90000262046A4268C3690D6823F4E64343EA99
:103DA00005238D6824F4005444EA0534084DA842E4
:103DB00002D0084DA84204D14D6922F4804242EA63
:103DC00085124260C36149680164046230BD00002D
:103DD00000000140000401400B4810B5B0F9060096
:103DE00000EE100A0A48F8EEC00A9FED080A02F039
:103DF000DBFF0748074990ED050ABCEEC00A10EE4C
:103E0000100A80B2086010BDAA01002000004842DC
:103E10008C0E002038040040014800F06BB8000010
:103E20005012002010B5806B0021C185C184FEF7BF
:103E3000BBFE10BD70B5846B2068406994F83910E2
:103E4000C0F3C0100025212904D118B1E584204613
:103E500000F046F82068406994F83A10C0F38010EA
:103E6000222904D118B1E585204600F02BF8E06B3B
:103E700040F01000E0632046FEF796FE70BD10B5DE
:103E80000146806B09680968C90513D40021C18502
:103E90000168CA6822F48072CA6001684A6922F027
:103EA00001024A6101684A6922F040024A61202108
:103EB00080F83A10FFF7B0F810BD10B5806BFFF72F
:103EC000ACF810BD0168CA6822F49072CA6001683B
:103ED0004A6922F001024A61202180F83A107047B5
:103EE0000168CA6822F0C002CA60202180F8391037
:103EF0007047000038B5044600681C49884217D155
:103F00001B4800680168C943C90611D401684068AC
:103F100000901748FEF71CFE122216491448FFF7BE
:103F20002FF8012002F042F91349888D401C888542
:103F300012492068884217D1114800680168C943B6
:103F4000C90611D40168406800900D48FEF700FED4
:103F50000C4801780CA000F041FABDE8384001227D
:103F600008490748FFF70CB838BD000000100140B1
:103F7000D012002084010020300D00200078004085
:103F8000501200200D0C002075617274335F627551
:103F90006666203D2025640D0A00000010B590F8EB
:103FA0003A10222901D0022010BD8168B1F5805F4E
:103FB00011D00169002901681FD0496801F07F0311
:103FC000816A4A1C82620B70C18D491E0904090C6A
:103FD000C18518D02BE00269816A002A0268526804
:103FE00005D0D2B20A80816A491C8162ECE7C2F333
:103FF00008020A80816A891CF7E74A68816A4B1CBB
:1040000083620A70E0E70168CA6822F02002CA6091
:104010000168CA6822F48072CA6001684A6922F0A5
:1040200001024A61202180F83A10FEF7F5FF0020D6
:1040300010BD00002DE9F041044600680169E26806
:1040400021F44051114301612169A068E2690843EC
:104050006169114322680843D16849F20C639943AE
:104060000143D16020684169A26921F44071114384
:104070004161E2696425B2F5004F9748974922688B
:104080004FF032083FD08A4201D082427CD1FEF705
:10409000B5F800EBC00101EB001061688900B0FBCE
:1040A000F1F6FEF7ABF800EBC00101EB0010616820
:1040B0008900B0FBF1F0B0FBF5F06FF01801484358
:1040C00006EB800108EB0110B0FBF5F000F0F00604
:1040D000FEF794F800EBC00101EB00106168890065
:1040E000B0FBF1F0B0FBF5F006EB0016FEF786F83A
:1040F00000EBC00101EB001061688900B0FBF1F733
:10410000FEF77CF8D2E08A4201D082423DD1FEF730
:1041100075F800EBC00101EB001061684900B0FBCD
:10412000F1F0B0FBF5F00601FEF768F800EBC00116
:1041300001EB001061684900B0FBF1F7FEF75EF893
:1041400000EBC00101EB001061684900B0FBF1F029
:10415000B0FBF5F06FF01801484307EB800108EB66
:10416000C100B0FBF5F000F0F80006EB4006FEF7EA
:1041700045F800EBC00101EB001061684900B0FB9D
:10418000F1F7FEF73BF83CE055E0FEF727F800EBCF
:10419000C00101EB001061684900B0FBF1F0B0FB19
:1041A000F5F00601FEF71AF800EBC00101EB001074
:1041B00061684900B0FBF1F7FEF710F800EBC001B1
:1041C00001EB001061684900B0FBF1F0B0FBF5F0C5
:1041D0006FF01801484307EB800108EBC100B0FB0A
:1041E000F5F000F0F80006EB4006FDF7F7FF00EBF6
:1041F000C00101EB001061684900B0FBF1F7FDF769
:10420000EDFF00EBC00101EB001061684900B0FB5D
:10421000F1F0B0FBF5F06FF01801484307EB8001B7
:1042200008EBC100B0FBF5F000F007002168304456
:104230008860BDE8F081FDF7D1FF00EBC00101EB24
:10424000001061688900B0FBF1F6FDF7C7FF00EBD5
:10425000C00101EB001061688900B0FBF1F0B0FB18
:10426000F5F06FF01801484306EB800108EB0110F0
:10427000B0FBF5F000F0F006FDF7B0FF00EBC00179
:1042800001EB001061688900B0FBF1F0B0FBF5F0C4
:1042900006EB0016FDF7A2FF00EBC00101EB0010DA
:1042A00061688900B0FBF1F7FDF798FF00EBC001F2
:1042B00001EB001061688900B0FBF1F0B0FBF5F094
:1042C0006FF01801484307EB800108EB0110B0FBC9
:1042D000F5F000F00F00A9E70014014000100140C4
:1042E00090F83910212901D0022070478168B1F57A
:1042F000805F016A0BD04A1C026202680978516033
:10430000C18C491E0904090CC1840ED017E009882C
:104310000268C1F30801516001690029016A02D0F5
:10432000491C0162ECE7891CFBE70168CA6822F0BE
:104330008002CA600068C16841F04001C16000208D
:10434000704700000148FFF7D5BD0000D0120020E3
:104350000148FEF733BC00001013002010B51223F3
:10436000074A0849084800F017F80123074A084996
:10437000084800F011F8BDE8104003F06DB80000E7
:104380008401002010140020D01200200D0C002009
:1043900050130020501200202DE9F041044600681F
:1043A0000F461D46416816463846FDF79BFC2068BF
:1043B000416941F0400141612068C16841F010014C
:1043C000C1602A4631462046FEF7DAFD2068416981
:1043D00041F001014161BDE8F081FEE70FB4054BFA
:1043E00010B503A9044A029800F0BEFD10BC5DF8A8
:1043F00014FB0000256200086801002003B4019846
:104400004100009850EAC12018BF04204A0D18BF8F
:1044100040F0010040F2FF72B2EB515F08BF40F084
:104420000200012808BF052002B070470907090EE5
:10443000002804DB00F1E02080F80014704700F051
:104440000F0000F1E02080F8141D7047000000000C
:1044500070B5C1482DED020B2DED0E8B82B0119D74
:1044600025F000449FEDBEDB9FEDBFEB84423EDBB9
:10447000A4F140511098A1F17F6108430FD0BC48CE
:10448000844202DC28D1109830B39DED100B02B0AD
:10449000BDEC0E8B02B0BDE8704000F069BC9DED34
:1044A000100B53EC1D2B51EC100BFBF7F7FF9DEDA0
:1044B000100B41EC180B53EC1E2B51EC100BFBF7BF
:1044C000EDFF53EC182BFBF742FF41EC100B02B051
:1044D000BDEC0E8B02B070BD012000F08DFC02B06F
:1044E000BDEC0E8B02B0BDE8704000F055BCA14899
:1044F0009FEDA18B844256DA9DED100BB4F1795FEC
:104500000ADA51EC100BFFF779FF042808BF00F01E
:1045100053FC9DED100BDAE753EC102B51EC100B14
:10452000FBF7BCFF41EC190B95480621B0EE490A98
:10453000F0EE690A784400F09FFB53EC192B51EC24
:10454000100BFBF7ABFF41EC1A0B8E48B0EE490A9B
:10455000F0EE690A0421784400F08EFB53EC192B2D
:1045600051EC100BFBF79AFF53EC182BFBF7EFFE07
:1045700041EC100B51EC1A0B53EC102BFCF700F82C
:10458000CDE900019DED000B53EC102B9DED100BC0
:1045900051EC100BFBF782FF9DED101B53EC112B20
:1045A000FBF7D5FED2E09DED100B51EC100B01F0A6
:1045B0000BFE53EC182BFBF76EFF9FED730BCDE951
:1045C000000153EC102B9DED000B51EC100BFBF791
:1045D00065FF41EC190B6E480621B0EE490AF0EE7A
:1045E000690A784400F048FB53EC192B51EC100B8E
:1045F000FBF754FF41EC1B0B6648B0EE490AF0EEA6
:10460000690A0421784400F037FB53EC192B51EC74
:10461000100BFBF743FF53EC182BFBF798FE41EC14
:104620001C0B51EC190B02F085FF41EC180B5A489A
:104630009FED5BABA04222DC53EC1C2B51EC1B0B1F
:10464000FBF79EFFCDE900019DED000B51EC180B2F
:1046500053EC102BFBF722FF53EC182BFBF777FEE4
:1046600053EC1A2BFBF71AFF53EC1D2BFBF710FF33
:1046700053EC1E2BFBF70FFF41EC100B5FE08DEDB1
:10468000008B002000909DED000B51EC180B53ECBB
:10469000102BFBF75CFE9DED000B41EC1E0B53EC69
:1046A000102B51EC100BFBF7F9FE53EC192BFBF719
:1046B000F2FE53EC1E2BFBF763FF41EC190B53EC9E
:1046C0001C2B51EC1B0BFBF75BFF41EC1B0B53EC62
:1046D0001A2B51EC190BFBF7E1FE53EC1D2BFBF7EA
:1046E000DAFE41EC190B53EC1A2B51EC180BFBF7CB
:1046F000D5FE53EC1B2BFBF7D1FE53EC192BFBF72C
:10470000C7FE9DED000B41EC180B53EC1A2B51EC3E
:10471000100BFBF7C3FE9FED249B53EC192BFBF70B
:10472000BAFE41EC100B51EC180B53EC102BFBF7BD
:10473000AFFE53EC192BFBF7AEFE41EC100B002D36
:104740003FF7C5AE51EC100B81F0004141EC100B6E
:10475000BDE60000000000000000F03F0000000087
:10476000075C143326A6913C182D4454FB21F93FD5
:104770000000F07F0000E03F000000000000F03F7C
:10478000A0380000AE380000000000000000E03F4C
:10479000F2370000003800003333EF3F0000000024
:1047A0000000000000000040182D4454FB21E93FA8
:1047B00070B59B482DED020B2DED068B079D25F066
:1047C0000044A04218DC9748844202DC0AD10698D3
:1047D00040B19DED060BBDEC068B02B0BDE870400C
:1047E00000F0C6BA002DCCBF9FED8F0B9FED900B54
:1047F000BDEC068B02B070BD8F48A04215DD8F481E
:10480000A042D8BF4FF0FF3458DD9DED060B51ECB0
:10481000100BFFF7F3FD042808BF00F0CDFA9DED63
:10482000060BBDEC068B02B070BD9DED060B51EC86
:10483000100B01F0C9FCCDE9060181489FED828B88
:10484000A0423CDD8248A0421FDD00249FED82ABE8
:104850009DED060B53EC1A2B51EC100BFBF777FD7B
:104860009DED060B41EC190B53EC1A2B51EC100B80
:10487000FBF714FE53EC182BFBF70AFE53EC192B35
:10488000FBF77EFECDE9060149E09DED060B012414
:1048900053EC182B51EC100BFBF759FD9DED060B5B
:1048A00041EC190B53EC182B51EC100BFBF7F0FDFE
:1048B00053EC192BFBF764FECDE906012FE06848A5
:1048C000A0421FDD02249FED689B9DED060B53EC7B
:1048D000192B51EC100BFBF7E1FD53EC182BFBF7F8
:1048E00036FD9DED060B41EC180B53EC192B51ECEA
:1048F000100BFBF7CDFD53EC182BFBF741FECDE978
:1049000006010CE09DED060B032453EC102B9FEDEC
:10491000580B51EC100BFBF733FECDE906019DED72
:10492000060B53EC102B51EC100BFBF7B7FD41ECD1
:10493000180B53EC182BFBF7B1FD41EC190B4E484B
:104940000621B0EE490AF0EE690A784400F094F9C5
:1049500053EC182B51EC100BFBF7A0FD41EC180B9E
:104960004648B0EE490AF0EE690A0521784400F0A5
:1049700083F953EC192B51EC100BFBF78FFD41EC35
:10498000100B51EC180B53EC102B002C0EDAFBF72C
:10499000DEFC9DED061B53EC112BFBF77FFD9DED1F
:1049A000061B53EC112BFBF776FD35E0FBF7CFFC34
:1049B0009DED061B53EC112BFBF770FD41EC100B2A
:1049C0002F48784400EBC40090ED001B51EC100B15
:1049D00053EC112BFBF75CFD9DED061B53EC112BEB
:1049E000FBF756FD41EC100B2648784400EBC40061
:1049F00090ED001B51EC100B53EC112BFBF74BFD12
:104A000041EC100B002DA2BFBDEC068B02B070BDB7
:104A100051EC100B81F0004141EC100B01E700005C
:104A2000000010440000F07F182D4454FB21F93F92
:104A3000182D4454FB21F9BF0000DC3F0000203E4C
:104A40000000F33F00000000000000000000F03F05
:104A50000000E63F000000000000000000000040F1
:104A60000080034000000000000000000000F83F4C
:104A7000000000000000F0BF42350000F8340000E4
:104A8000823400003A34000070B56B4E2DED040BFB
:104A90002DED028B82B0DDF81CC0DDE905235C4200
:104AA0002CF000411C4341EAD474049D22F00040E4
:104AB000B44205D86C422C4340EAD474B4420BD9BA
:104AC0009DED061B9DED040B02B0BDEC028B04B006
:104AD000BDE8704000F056B9ACF14054A4F17F64D9
:104AE0001C430BD0022404EAAC7444EAD27405439C
:104AF0009FED538B9FED542B07D015E09DED040BDC
:104B000051EC100B00F0C7FD42E0002C11BF012C4E
:104B10009DED040B02B0BDEC028B04BF04B070BD70
:104B2000022C38D0032C3BD00B439FED491B9FED4B
:104B30004A0B0AD0B14218D1B04209D121F08041CC
:104B400020F08040079105900FE0002A15DA10E070
:104B5000434B7B44002C08BF93ED000B0DD0012C80
:104B600010D0022C17D0032C1AD0B0421DD1002A2D
:104B700003DAB0EE410AF0EE610A02B0BDEC028B3E
:104B800004B070BD93ED000B51EC100B81F00041AF
:104B900041EC100BF1E7B0EE480AF0EE680AECE7E2
:104BA000B0EE420AF0EE620AE7E7401A00153C2830
:104BB000C8BF8DED000B19DCBCF1000FBEBF10F1BA
:104BC0003C0F9FED290B8DED000B0FDB9DED060BD0
:104BD00053EC102B9DED040B51EC100BFBF7D0FCAC
:104BE00001F0F2FA00F057FDCDE90001002C08BFFA
:104BF0009DED000BC1D0012C10D0022C9FED1C0BA1
:104C000053EC102B9DED000B51EC100B0DD0FBF76E
:104C10003FFC53EC182BFBF73BFCB9E7019880F005
:104C2000004001909DED000BA7E7FBF731FC53EC32
:104C3000182BFBF730FCABE70000F07F0000000012
:104C4000182D4454FB210940182D4454FB2109C060
:104C5000182D4454FB21F9BF182D4454FB21F93F72
:104C60006A330000000000000000000000000000A7
:104C7000075C143326A6A13C70B504462DED028BCB
:104C80004D1E00EBC500B0EE408AF0EE608A90ED5C
:104C9000000B35F0060017D053EC182B51EC100B1D
:104CA000FBF7FCFB41EC100B6D1E04EBC50090ED17
:104CB000001B51EC100B53EC112BFBF748FB41ECA4
:104CC000100B35F00600E7D1022D36D0042D1CD094
:104CD000062D1CBFBDEC028B70BD53EC182B51ECA4
:104CE000100BFBF7DBFB94ED0A1B53EC112BFBF7CE
:104CF0002EFB53EC182BFBF7D1FB94ED081B53EC68
:104D0000112BFBF724FB41EC100B53EC182B51EC4F
:104D1000100BFBF7C3FB94ED061B53EC112BFBF7B9
:104D200016FB53EC182BFBF7B9FB94ED040B53EC7B
:104D3000102BFBF70CFB41EC100B53EC182B51EC38
:104D4000100BFBF7ABFB94ED021B53EC112BFBF7A5
:104D5000FEFA53EC182BFBF7A1FB94ED001B53EC70
:104D6000112BFBF7F4FABDEC028B41EC100B70BD7C
:104D700010B553EC102B51EC100BFBF7E8FA41EC9B
:104D8000100B10BD10B553EC112B51EC100BFBF7B1
:104D9000DEFA41EC100B10BD9FED050B10B553EC86
:104DA000102B51EC100BFBF7EBFB41EC100B10BD83
:104DB00000000000000000009FED050B10B553EC53
:104DC000102B51EC100BFBF769FB41EC100B10BDE5
:104DD000000000000000001002E008C8121F08C117
:104DE000002AFAD170477047002001E001C1121F6C
:104DF000002AFBD17047000001490860704700009D
:104E00006C0100202DE9FF5FDDE90220010DDDF8D6
:104E100038B0024318D044F61050A1F2FF3141439C
:104E20000D140F98012820D0A5EB0B00401C5FEA61
:104E3000000A4FF00004474EDFF81C91A046504690
:104E400016D5CAF1000728E00F98012443A20128D3
:104E500008D0002100980F9BC0E90021C0E902435F
:104E6000BDE8FF9F6FEA0B01F4E7CBF10000DEE73E
:104E7000074612E0F80707D0224633464046494627
:104E8000FBF70CFB804689462246334610461946FE
:104E9000FBF704FB04460E467F10002FEAD1DDE944
:104EA0000201BAF1000F42464B4602DAFBF7F6FA6E
:104EB00001E0FBF765FB04460E460022284BFBF79A
:104EC00001FD03D84FF0FF30014607E00022254BDB
:104ED00020463146FBF73BFAFBF7DCFC102409E0E7
:104EE000002C0ADB0A220023FBF7DCF9019B30329D
:104EF0001A55641E50EA0102F2D1641C019AC4F1F1
:104F0000110314440F9A012A03D0012208430DD142
:104F10000AE0084304D000204FF0110B0F9080E707
:104F2000A3EB0B056D1E0DE05B4504DD4FF00002A9
:104F300005F1010504E003DA4FF00002A5F10105D7
:104F4000002AECD000980F99C0E90231C0E9004571
:104F500086E70000000024400000F03F3000000021
:104F60000000F0430000E03F2DE9FF4F95B09B4665
:104F70008946064600250FE2252877D100242746DA
:104F8000F84A0121059400E0044316F8013F203B54
:104F900001FA03F01042F7D130782A2811D06FF0CF
:104FA0002F033078A0F13002092A16D8059A44F070
:104FB000020402EB820203EB42021044761C0590CD
:104FC000EFE759F8042B0592002A03DA504244F423
:104FD0000054059044F00204761C30782E2816D137
:104FE00016F8010F44F004042A280DD06FF02F02A8
:104FF0003078A0F13003092B09D807EB870302EBC7
:105000004303C718761CF3E759F8047B761C307805
:105010006C280FD006DC4C2817D068280DD06A28E1
:1050200014D104E0742810D07A280FD10DE044F494
:1050300000140AE044F4801401E044F4401472784F
:10504000824202D104F58014761C761C30786628E2
:105050000BD013DC582877D009DC002875D0452800
:10506000F6D04628F4D047281AD19DE118E06328ED
:1050700035D0642879D0652812D195E1702873D095
:1050800008DC6728F1D069286FD06E280DD06F2812
:1050900006D1B5E073282CD0752875D0782874D047
:1050A0005A46179990476D1C75E1C4F302500228C7
:1050B00009D003280DD0D9F8001004280DD00D60B8
:1050C00009F1040967E1D9F80010EA17C1E90052B3
:1050D000F6E7D9F800100D80F2E70D70F0E719F847
:1050E000041B8DF8001000208DF80100EA46012015
:1050F00003E059F804AB4FF0FF3061074FF00001B7
:1051000002D40DE008F101018846B9420FDA80456A
:10511000F8DB1AF808100029F4D108E008F10101C1
:1051200088468142FADB1AF808100029F6D1059862
:105130005B46A0EB080721463846179A00F094FA20
:10514000284400EB080507E04DE029E10DE01AF8DE
:10515000010B5A4617999047B8F10108F7D25B4600
:1051600021463846179A13E142E00A220092C4F31E
:1051700002524FF0000A022A08D059F804CB032A41
:105180004FEAEC710AD00DE029E02AE009F10701AD
:1051900021F00702F2E802C1914609E00FFA8CFC07
:1051A0004FEAEC71042A03D14FFA8CFC4FEAEC7100
:1051B000002907DA0A460021DCF1000C61EB02014C
:1051C0002D2202E0220504D52B228DF80420012295
:1051D00003E0E20701D02022F7E7904659E00A21D8
:1051E00002E010220DE010214FF0000A00910BE0C8
:1051F00010224FF0000A44F004040827009203E054
:1052000008224FF0000A0092C4F30252022A05D08D
:1052100059F804CB0021032A08D009E009F107015D
:1052200021F00702F2E802C1914605E01FFA8CFC6A
:10523000042A01D10CF0FF0C4FF00008220728D5FA
:10524000702806D0009B83F0100353EA0A0305D0B0
:105250000EE040228DF80420012208E05CEA010201
:1052600006D030228DF804208DF8050002229046E9
:10527000009B83F0080353EA0A030AD15CEA0102A7
:1052800001D1620705D530228DF804204FF00108C6
:105290007F1E582804D034A003900EA802900DE081
:1052A00036A0F9E753466046009AFAF7FBFF8446BA
:1052B0000398825C0298401E029002705CEA010032
:1052C000F0D1029806A9081A00F1200A600702D559
:1052D00024F4803400E00127574502DDA7EB0A00E3
:1052E00000E0002000EB0A01009005984144401ABC
:1052F0000590E00306D45B462146179A059800F016
:10530000B3F90544002706E001A85A46C05D179985
:1053100090476D1C7F1C4745F6DBE0030CD55B46D0
:105320002146179A059800F09FF9054404E03020C3
:105330005A46179990476D1C0099481E0090002905
:10534000F5DC08E0029802995A460078491C02915F
:10535000179990476D1CBAF10001AAF1010AF1DC1E
:1053600065E1000009280100303132333435363729
:1053700038396162636465660000000030313233A1
:105380003435363738394142434445460000000041
:1053900000F058F90544761C307800287FF4ECAD15
:1053A00019B02846BDE8F08F620700D4062709F13E
:1053B000070222F0070CFCE80223E14603F0004854
:1053C0005FEA080C02D00FF2702C0DE05FEA045C7B
:1053D00002D50FF2682C07E05FEAC47C02D00FF21E
:1053E000602C01E0AFF2700C4FF0FF3823F0004367
:1053F000CDF850C065280CD006DC452809D04628D9
:105400001DD047283DD13DE0662818D067287ED1C1
:1054100038E00021112F01DB112000E0781CCDE9DC
:10542000000106A90EA8FFF7EDFCDDE90F010E9AB9
:1054300003910021009207F1010A04914DE04FF021
:1054400000400097CDE9011006A90EA8FFF7DAFC8D
:10545000DDE90F0203920E9B11990022DDF80CA0EA
:105460000093049211B9791C00EB010AB7EB0A0012
:1054700004D4C0F1FF3007F1010A0490AAEB070041
:10548000019044E0012F00DA01270021112F01DDF6
:10549000112000E03846CDE9000106A90EA8FFF76B
:1054A000B1FCDDE90F010E9A0391002104910092F5
:1054B000BA4621070CD40399514500DA8A46BAF15D
:1054C000010F05DD009AAAF10101515C302908D0D5
:1054D000B84202DA10F1040F06DA0121CDE9011019
:1054E00015E0AAF10101E9E7002805DC049901446F
:1054F0000491AAEB000102E0411C514500DD8A46FF
:105500000499401A401C01904FF00040029020077F
:1055100004D40198504501DBCDF8048000208DF8BB
:105520004F0002980DF14F07B0F1004F25D02B200E
:105530000E9002984FF0020800280CDA40420290C8
:105540002D200E9007E00A210298FBF7C8F83031B1
:10555000029007F8011DB8F10001A8F10108F2DC82
:1055600002980028EFD1791E0E980870307800F06C
:10557000200040F0450007F8020D12A8C01B00F102
:1055800007081498007800B1012000EB0A01019887
:1055900001EBE07105984144401A401E0590E0037C
:1055A00006D45B462146179A059800F05DF805443D
:1055B0001498007818B15A46179990476D1CE0036B
:1055C00024D55B462146179A059800F04DF805440E
:1055D0001CE00498002807DBDDE90301884203DDB5
:1055E0000098405C179901E0179930205A4690477F
:1055F000049805F10105401C04900198401E01909B
:1056000004D12E205A46179990476D1CBAF100011B
:10561000AAF1010ADDDC05E017F8010B5A461799DB
:1056200090476D1CB8F10001A8F10108F4DC5B465D
:105630002146179A0598ABE62D0000002B000000CC
:10564000200000002DE9F041044600251E461746C3
:10565000880404D405E039462020B0476D1C641E40
:10566000F9D52846BDE8F0812DE9F0410446002532
:105670001E469046C80301D5302700E02027880445
:1056800004D505E041463846B0476D1C641EF9D587
:105690002846BDE8F08110B541EC100BFFF788F803
:1056A00051EC100B10BD000030B58BB0012500246B
:1056B0000895CDE905454FF48140009044F2A000E3
:1056C0000190079444F2C000029044F2E000CDE95A
:1056D000030469461348FBF79DFC0595CDE9065484
:1056E0004FF48240009046F220200190089546F247
:1056F0004020CDE90204049469460A48FBF78AFC7D
:105700000E200094CDE9044001940294089509907C
:10571000039469460448CDE90645FBF77BFC0BB0D2
:1057200030BD0000C00E0020E80E002010B5084873
:10573000FCF712F902210648FBF7F6FB0548FCF7D7
:105740000BF9BDE8104002210248FBF7EDBB000059
:10575000C00E0020E80E0020B0F9022091ED040AEE
:1057600000EE902A9FED171AF8EEE00A00EE810A8B
:1057700081ED000AB0F90020524200EE902AF8EEC6
:10578000E00A60EE810AC1ED010AB0F9040001EE01
:10579000900A01F13000F8EEE11A21EE811ADFEDF6
:1057A0000A1A21EE211A81ED021A91F83C20012AF1
:1057B00002D000BF01F0EAB8DFED040A9FED040A51
:1057C000F8E7000085EB41419A99993F00000000FD
:1057D0000000FA432DE9F041344E354F00242DED01
:1057E000028B43F698259FED338ADFED338A41F231
:1057F000707800BF06EB44102021FAF79DFD04EB02
:10580000840000EBC40007EB8000B0EE481AF0EE15
:10581000680AB1EE0C0A2A464146FDF7CEFF641C29
:10582000062CE7DB0022B0EE481AF0EE480AB0EE94
:10583000480A11462148FDF7C0FF0022B0EE481A81
:10584000F0EE480AB0EE480A11461D48FDF7B5FFD4
:105850001A48B0EE481AF0EE480A9FED1A0A4FF4C3
:10586000966240F6B8316830FDF7A7FFDFED168A83
:105870001348B0EE481AF5EE000AB0EE680A2A4660
:10588000444641463430FDF798FFB0EE481AB0EE7A
:10589000680ABDEC028B2A462146BDE8F041084863
:1058A000F5EE000A6830FDF788BF0000800A00208E
:1058B0007804002000000000CDCCCC3DD4010020B5
:1058C000DC03002000000042000020422DED028B8E
:1058D00082B0DFF88891DFF88881DFF888B1624D07
:1058E0004FF0000A02F040F9019001F0ABFE95ED97
:1058F000050A95F83D20B5F92210BDEEC00A10EE5C
:10590000100A00B200F060F957495848FFF724FF29
:105910005FF0000408EB441005EB4407B0F9060003
:1059200000EE100AB7F93000F8EEC00A00EE100AD7
:1059300004EB840000EBC40109EB8106B8EEC00A59
:10594000304601F031FA96ED050A641C062CBDEED6
:10595000C00A10EE100AB884DCDBD8ED350A95EDEC
:10596000060A434808F1C40401F01EFAB4F9020023
:1059700000EE100AB8EEC00A9FED3E8A3C4E3E484B
:10598000683E60EE080A96ED1F0A01F00DFAB4F9C0
:10599000220000EE100A3848B8EEC00A343060EE3B
:1059A000080A96ED1F0AB1EE400A01F0FDF9287FC2
:1059B00001280ED0002354461A4619464FF40070B1
:1059C000CDF800A001F078FD00231A461946009496
:1059D00039E0B5F9260000902748B5F92430D038D1
:1059E00090ED460ABDEEC00A10EE101A90ED390A8D
:1059F0000AB2BDEEC00A10EE100A01B24FF40070F8
:105A000001F05AFD95ED020AB0EEC00A10EE101A30
:105A1000594507DA95ED010AB0EEC00A10EE101AEA
:105A2000594507DBCDF800A0B5F92A20B5F92810B3
:105A3000002308E0B5F92E000090B5F92C30B5F937
:105A40002A20B5F9281040F2FF1001F035FD01F0D1
:105A500019FE022101A801F064F943E7780400204F
:105A6000800A00200000C842580C0020700100206D
:105A70003C020020CDCC4C3E1004002070B5054601
:105A80002DED028B41A1FBF7E3F8002879D140A16D
:105A90002846FBF7DDF8002873D13EA12846FBF726
:105AA000D7F800286DD13CA12846FBF7D1F8002893
:105AB00067D13AA12846FBF7CBF8394C9FED398BDB
:105AC00038B16068FAF7DCFD53EC182BFAF73FFCAD
:105AD00025E036A12846FBF7BBF838B16069FAF734
