:020000040800F2
:10000000B053002081020008C33500087D2E00088F
:10001000C1350008350A0008BB4000080000000098
:10002000000000000000000000000000C101000806
:10003000E90E0008000000001D02000899380008C1
:100040009B0200089B0200089B0200089B0200081C
:100050009B0200089B0200089B0200089B0200080C
:100060009B0200089B0200089B0200089B020008FC
:100070009B0200089B020008D90C00089B020008A4
:100080009B020008010D00089B020008450A0008B9
:10009000390A00089B0200089B0200089B02000826
:1000A0009B0200089B0200089B0200089B020008BC
:1000B0009B0200089B0200089B0200089B020008AC
:1000C0009B0200089B0200089B0200089B0200089C
:1000D0009B020008314000089B0200089B020008B8
:1000E0009B0200089B0200089B0200089B0200087C
:1000F0009B0200089B0200089B0200089B0200086C
:100100009B0200089B0200089B0200089B0200085B
:100110009B0200089B0200089B0200089B0200084B
:100120009B0200089B0200080D0D00089B020008BE
:100130009B0200089B0200089B0200085D0A000861
:10014000510A00089B0200089B0200089B0200085D
:100150009B0200089B0200089B0200089B0200080B
:100160009B0200089B0200089B0200089B020008FB
:100170009B0200089B0200089B0200080000000090
:100180009B0200089B020008313C00089B0200080B
:100190009B0200089B0200089B0200089B020008CB
:1001A00000000000000000009B020008DFF80CD0F7
:1001B00000F0C0FB0048004759630008B05300201E
:1001C0002C4B19680868B0E8F04F80F30988BFF33A
:1001D0006F8F4FF0000080F311887047000000001F
:1001E00008480068006880F308884FF0000080F33A
:1001F000148862B661B6BFF34F8FBFF36F8F00DF15
:1002000000BF00BF08ED00E0DFF80C00016841F41A
:1002100070010160704700BF88ED00E0EFF30980D6
:10022000BFF36F8F134B1A681EF0100F08BF20ED3D
:10023000108A20E9F04F106009B44FF0500080F3AD
:100240001188BFF34F8FBFF36F8F07F023F84FF084
:10025000000080F3118809BC19680868B0E8F04F05
:100260001EF0100F08BFB0EC108A80F30988BFF3AE
:100270006F8F704704010020EFF305807047000086
:100280000648804706480047FEE7FEE7FEE7FEE730
:10029000FEE7FEE7FEE7FEE7FEE7FEE7353900088A
:1002A000AD0100082DE9F05F0546002092469B460F
:1002B00088460646814640241BE02846414647467C
:1002C000224600F050FA53465A46C01A914110D3C4
:1002D00011461846224600F037FA2D1A67EB01083E
:1002E0004F4622460120002100F02EFA17EB0009AC
:1002F0004E41201EA4F10104DFDC484631462A4667
:100300004346BDE8F09F40EA01039B0703D009E0A4
:1003100008C9121F08C0042AFAD203E011F8013BF1
:1003200000F8013B521EF9D27047D2B201E000F84A
:10033000012B491EFBD270470022F6E710B5134689
:100340000A4604461946FFF7F0FF204610BD2DE986
:10035000FE4F804681EA0300C00F0C46009021F05A
:10036000004123F00045B8EB0200A94105D2404608
:10037000214690461C460B46024623F0004010439F
:1003800047D0270DC7F30A00C3F30A510290401A61
:10039000019040286BDAC3F3130040F4801B0098EF
:1003A000924620B10023D2EB030A63EB0B0B0198BA
:1003B0005946C0F14002504600F0C6F906460D46C7
:1003C00050465946019A00F0DEF910EB08006141F1
:1003D000002487EA115284EAE7731A4340D0009A56
:1003E00062B3019A012A4FEA075215DC001B61EB48
:1003F00002014FF0004202EA0752CDE90042001C20
:1004000041F5801132462B4600F015FA03B0BDE8E5
:10041000F08F40462146F9E7001B61EB0201001C0A
:1004200041F5801300185B412018A2F5001747EB37
:10043000030140EAD570B6196D4111E06D084FEA2D
:10044000360645EAC0754FEA0752001B61EB020110
:10045000001C41F5801149084FEA30000019514154
:1004600032462B4603B0BDE8F04F00F0D5B90098F6
:10047000012240000023D0EB020263EBE0730098FE
:1004800021464FEAE074B8EB000061EB0401E9E7B4
:1004900083F000435BE781F0004158E72DE9FE4F10
:1004A00081EA030404F0004421F0004100944FF07D
:1004B000000B23F0004350EA01045ED052EA03042B
:1004C0005BD0C3F30A54C1F30A552C44A4F2F334AD
:1004D0000194A0FB0254C1F3130141F48011C3F352
:1004E000130343F4801301FB024400FB034E840A10
:1004F000970A44EA815447EA8357A4FB07680295A8
:100500008D0A05FB07854FEA932C04FB0C54270545
:10051000029D4FEA065847EA1637B5EB08056EEB21
:10052000070C870E920E47EA811742EA8312A7FB57
:100530000201B6EB0B0164EB00042B0D43EA0C3314
:100540005E1844EB1C50DA465146E7FB0201C5F346
:1005500013044FEA0B3343EA14534FEA0432019C6D
:1005600043EA0603A4F10C040294009CCDE900B414
:1005700000F061F903B0BDE8F08F00200146F9E713
:100580002DE9F04D81EA030404F0004B21F0004511
:1005900014464FF0000A23F0004150EA050220D033
:1005A00054EA01021DD0C5F30A570246C5F31303EE
:1005B000C1F31300C1F30A5640F4801543F48013CD
:1005C000A7EB0608101BD64608F2FD3873EB0500B2
:1005D00002D308F1010801E092185B41B8F1000F65
:1005E00003DA00200146BDE8F08D00204FF48011B1
:1005F000064684460EE0171B73EB050705D3121B56
:1006000063EB050306434CEA010C49084FEA30004E
:1006100092185B4150EA0107EDD152EA030012D073
:1006200082EA040083EA0501084305D0101BAB41B0
:1006300006D20122002306E000224FF0004302E030
:100640006FF0010253101AEB06004CEB085110EB4F
:100650000A0041EB0B01BDE8F04D00F0DDB80EB52E
:10066000C10F80EAE0700844CA07002140F233431A
:100670008DE80E000A460B4600F0DDF803B000BD21
:1006800070B5C1F30A5201F000450024C1F3130113
:1006900040F2FF3341F480119A4201DA002070BD2C
:1006A00040F233439A42A2F2334203DC524200F05A
:1006B0005AF800E090402C43F1D0404270BD00F069
:1006C000004230F000400AD0C10D01F56071C0F366
:1006D000160042EA0151C20840071143704700204A
:1006E0000146704701F0004330B421F0004150EA68
:1006F000010206D00A0DA2F56072C1F31301002AAF
:1007000002DC30BC00207047440F44EAC104C10041
:10071000E01830BC00EBC25000F047B830B50B46D3
:10072000014600202022012409E021FA02F59D4221
:1007300005D303FA02F5491B04FA02F52844151EF5
:10074000A2F10102F1DC30BD202A04DB203A00FADC
:1007500002F1002070479140C2F1200320FA03F318
:10076000194390407047202A04DB203A21FA02F016
:100770000021704721FA02F3D040C2F120029140DB
:10078000084319467047202A06DBCB17203A41FA66
:1007900002F043EAE07306E041FA02F3D040C2F10E
:1007A000200291400843194670470029A8BF7047AE
:1007B000401C490008BF20F00100704710B4B0FA97
:1007C00080FC00FA0CF050EA010404BF10BC704732
:1007D00049B1CCF1200421FA04F411FA0CF118BF4C
:1007E000012121430843A3EB0C01CB1D4FEA00611B
:1007F0004FEA102042BF002010BC704700EBC350EE
:1008000010440029A4BF10BC7047401C490008BF19
:1008100020F0010010BC704710B5141E73F10004E5
:1008200008DA401C41F1000192185B411A4301D1E2
:1008300020F0010010BD2DE9F04D92469B4611B10C
:10084000B1FA81F202E0B0FA80F220329046FFF76E
:100850007BFF04460F4640EA0A0041EA0B0153467B
:100860005A46084313D0114653EA010019D0C8F183
:1008700040025046FFF777FF05460E465046594660
:100880004246FFF761FF084305D0012004E02046FF
:100890003946BDE8F08D0020054346EAE0762C435A
:1008A00037430A986305E40AA0EB08000022FD0A1A
:1008B00044EA47540A3002D500200146E9E7010521
:1008C00010196941DDE9084500196941BDE8F04D9D
:1008D000A2E7C1F30A52C1F3130140F2FF3341F41E
:1008E00080119A4202DA00200146704740F23343F9
:1008F0009A42A2F2334202DC5242FFF734BFFFF7C2
:1009000023BF000030B5041E71F1000404DB4FF07A
:100910000044404264EB0101141E73F1000405DB46
:100920001C464FF00043524263EB0403994208BF58
:10093000904230BD064C074D06E0E06840F00103F0
:1009400094E8070098471034AC42F6D3FFF732FC26
:10095000AC780008CC7800082DE9F04D00231A4649
:100960001B1A8A4103DB00200146BDE8F08DC1F36C
:100970000A52C1F3130141F480154FF0000BD10767
:1009800002D100186D41521E0027044640F2FF11AB
:10099000384601EB620A3E468046024600204FF48C
:1009A0008011FFF7E0FEC2197141BB1846EB010050
:1009B000B4EB030C75EB000C04D3E41A65EB0005F3
:1009C00017460E46241908F101006D41804634286F
:1009D000E3DDF91946EB0600091BA84103D24FF0ED
:1009E000FF32134601E0002213461BEB070046EBE3
:1009F0000A51BDE8F04DFFF70FBF30B58C1810F865
:100A0000012B12F00F0301D110F8013B120906D19E
:100A100010F8012B03E010F8015B01F8015B5B1E8D
:100A2000F9D101E001F8013B521EFBD1A142E6D30E
:100A3000002030BDFEE70000014800F0FEBB0000D2
:100A4000600D0020014800F0F8BB0000600D0020A0
:100A5000014800F0F2BB0000880D0020014800F0C2
:100A6000ECBB0000880D002010B504F08DFCBDE843
:100A7000104004F0CDBC000070B50C46054664A1E2
:100A800000F006F918B1204605F052FDB9E061A169
:100A9000284600F0FDF818B1204605F09DFDB0E0B5
:100AA0005DA1284600F0F4F818B1204605F0E8FDF5
:100AB000A7E05AA1284600F0EBF818B1204605F04F
:100AC0000FFE9EE056A1284600F0E2F80028DDD196
:100AD00054A1284600F0DCF80028D7D152A12846BE
:100AE00000F0D6F80028D1D150A1284600F0D0F867
:100AF0000028CBD14EA1284600F0CAF80028C5D165
:100B00004CA1284600F0C4F800287AD14AA1284612
:100B100000F0BEF8002874D148A1284600F0B8F8CB
:100B200000286ED146A1284600F0B2F8002868D10E
:100B300044A1284600F0ACF8002862D142A1284622
:100B400000F0A6F800285CD140A1284600F0A0F8EB
:100B5000002856D13EA1284600F09AF8002850D12E
:100B60003CA1284600F094F800284AD13AA1284632
:100B700000F08EF8002844D138A1284600F088F80B
:100B800000283ED136A1284600F082F8C8BB35A126
:100B9000284600F07DF8A0BB33A1284600F078F885
:100BA00078BB32A1284600F073F850BB30A128462C
:100BB00000F06EF810B105F07DF922E02DA1284675
:100BC00000F066F8E8B92CA1284600F061F8C0B939
:100BD0002AA1284600F05CF898B929A1284600F01F
:100BE00057F870B927A1284600F052F848B926A155
:100BF000284600F04DF820B924A1284600F048F816
:100C000008B1002070BD2146284604F027FDF8E712
:100C10002A3100002A3200002A3300002A34000062
:100C20002A3500002A3600002A3700002A38000042
:100C30002A39000023310000233200002333000052
:100C4000233400002335000023360000403100002B
:100C500040320000403300004034000040350000C6
:100C600040360000403700004038000040390000A6
:100C7000243100002432000024330000243400001A
:100C800024360000243700002438000024390000F6
:100C900030B50C46054602F0E3FD0346204602F05F
:100CA000DFFD83420AD1002004E0295C225C9142EE
:100CB00004D1401C9842F8DB012030BD002030BD3B
:100CC0000022835C23B18B54521C642AF9DB00E0C0
:100CD0008B5401207047000008B5064800F0C0FEA4
:100CE0000548007800F0B8F80448006801684068DA
:100CF000009008BD9C1100203D0B0020DC1000205E
:100D0000014800F0ADBE0000FC11002010B5044801
:100D100000F0A6FEBDE810400249034806F026B8E0
:100D20005C120020800100206C0100200168182363
:100D3000CAB2103AB2FBF3F2054B6FF30901032A72
:100D40009B5CC36500D9091D81650846704700009A
:100D50004477000810B5014600208B698A6A4FF07D
:100D6000C07453B1B3F5005F15D072B1012A0CD035
:100D7000022A0AD0032A09D104E01AB1012A06D0B6
:100D8000022A03D1C96AC90100D5012010BDC96A70
:100D9000A142FAD010BD002AF7D0012AF2D0022ACF
:100DA000F3D0032AF3D010BD30B50468256825F4CC
:100DB00080252560046863608368402B036803D046
:100DC00099600068C26030BD9A600068C16030BD43
:100DD0002DE9F04781460027012602F041FD05007C
:100DE00034D00024DFF868802DE0621C214648469C
:100DF00002F03EFD17A1FFF74BFF88B122463946AE
:100E0000484602F035FD02F091FC10EE100AFFF7A3
:100E100056FC08EBC602671CC2E90001761C11E013
:100E2000281B01280ED12A463946484602F020FDEB
:100E300002F07CFC10EE100AFFF741FC08EBC60242
:100E4000C2E90001641CAC42CFDB3046BDE8F0874C
:100E5000780600202000000070B52149214B282889
:100E60000A780BD012B19854521C0A7029280BD161
:100E70000024D0B225461C540C700BE0002AF2D19D
:100E8000282018700120087070BD581940785855F6
:100E90006D1CEDB2134802F0E3FC401EA842F4DCE6
:100EA000104802F0DDFC18440E4A00F8024C503A9B
:100EB000A2F114010B4802F011FC0A485038FFF768
:100EC00087FF014607486438FFF7D6FD0549002033
:100ED00050390C54401CC0B26428FAD370BD0000D5
:100EE00014000020AC050020704770470246002027
:100EF000431E115C202904D011B1401C6428F8DB8A
:100F00001846704710B50024A0B204F0FBFD641C25
:100F1000072CF9DD00224FF400510B4801F00EF8C8
:100F20000122D102094801F009F801229103084881
:100F300001F004F80021074801F0A4FDBDE81040CD
:100F40000021044801F0C0BD00180240001002401A
:100F5000001402409C10002090F82020012A07D0A5
:100F6000022A05D0416A41F4802141620120704784
:100F7000006842690A43426100207047F0B590F86A
:100F800020500468A468012D05D0022D03D0416AC9
:100F900041F4802153E014F0406F01D1E5004BD5BE
:100FA000C4F30164022C03D9416A41F4000146E014
:100FB0000125A5401D608D684FF4C0739DB1CE68BA
:100FC00035434E6845EAC605066803EB0417F5513C
:100FD0004FF4C275076805EB04150E697E51097D53
:100FE000012905D009E00E88CD6845EA4655EBE7B2
:100FF00001684E5946F480764E511179D2F8055069
:101000004FF4C67641EA0525016806EB04168D51BA
:101010001178D2F801204FF4C47541EA0221026828
:1010200005EB04155151006803EB0411425842F0DE
:10103000010242500020F0BD416A41F400114162BA
:101040000120F0BD10B590F82020012A07D0022A17
:1010500005D0416A41F480214162012010BD3B4826
:10106000D0F8002242F00102C0F80022D0F800229D
:1010700022F47C52C0F80022D0F800224B6A42EAE7
:101080000322C0F800220A7D02F01F0301229A40C9
:10109000D0F81C329343C0F81C32CB69B3B9D0F8F6
:1010A0000C329343C0F80C328C894B6864F31F43B5
:1010B0004C6900EBC404C4F840320C890B6864F33B
:1010C0001F434C6900EBC404C4F84432CB69012BC4
:1010D00016D1D0F80C321343C0F80C320C884B6890
:1010E00064F31F434C6900EBC404C4F840320C891C
:1010F000CB6864F31F434C6900EBC404C4F844326A
:101100008B69002BD0F804320ED01343C0F80432A0
:101110000B69002BD0F8143208D01343C0F81432F6
:10112000096A012904D008E09343EFE79343F5E708
:10113000D0F81C121143C0F81C12D0F8001221F094
:101140000101C0F80012002010BD00000064004042
:10115000704730B590F82040012C05D0022C03D008
:10116000416A41F480215DE00468002955D024697A
:10117000A40754D04FF4D874056804EB01142D591A
:1011800015F00405956005682D594ED0ED085560A1
:1011900005682C59C4F34004D4604FF4DA74056830
:1011A00004EB01142D5905F00F05156105682D5943
:1011B000C5F30725956105682C59240C54614FF43B
:1011C000DC72046802EB0112A4581C700468A45875
:1011D000240A5C700468A458240C9C700468A2580B
:1011E000120EDA704FF4DE72046802EB0112A4589A
:1011F0001C710468A458240A5C710468A458240C67
:101200009C710468A258120EDA71006881B10169FC
:1012100041F020010161002030BDE468A8E7416A87
:1012200041F400114162012030BD6D0D1560AFE742
:10123000C16841F02001C160EDE72DE9F05F05468E
:10124000006800244669D0F804908768D0F80CB094
:10125000D0F810A0D0F81880F10748D0F90714D0C2
:1012600001218160B80703D5284600F0ACFB0CE0F3
:10127000780702D54FF4006407E0380702D54FF431
:10128000805402E0284600F09DFBF80516D5296839
:101290004FF480708860B80503D5284600F095FBB0
:1012A0000CE0780502D544F4005407E0380502D577
:1012B00044F4804402E0284600F086FBF80316D58B
:1012C00029684FF480308860B80303D5284600F0C1
:1012D0007EFB0CE0780302D544F4004407E03803B9
:1012E00002D544F4803402E0284600F06FFB30075A
:1012F00007D55FEACB6004D52968102044F4007458
:10130000C86070074FF0080707D55FEA0B7004D577
:101310002868C760284600F0A9F9B00706D52868F4
:10132000C068800702D0284600F0A2F9700607D5F1
:101330005FEACA6004D52968102044F4806408611B
:10134000B00607D55FEA0A7004D528680761284609
:1013500000F008FBF00606D528680069800702D077
:10136000284600F000FBB00308D55FEAC96005D548
:10137000296810204860284600F0F6FAF00307D5E7
:101380005FEA097004D528684760284600F020FB12
:10139000300446D55FEA497040D5F00504D55FEAD0
:1013A000C87001D044F00104B00504D55FEA88702C
:1013B00001D544F00204700504D55FEA487001D5F8
:1013C00044F00404300529D518F0700F26D008F039
:1013D0007000402815D006DC102809D020280AD03B
:1013E000302816D10AE050280ED0602811D10EE026
:1013F00044F008040DE044F010040AE044F0200436
:1014000007E044F0400404E044F0800401E044F4C8
:1014100080742868816921F0700181612968042045
:101420004860002C05D0686A204368622846FFF7B0
:101430008FFEBDE8F09F70B5040003D094F8200043
:1014400010B104E0012070BD204600F081F8206852
:10145000016821F00201016000F076FD05460526D5
:1014600004E000F071FD401B0A2811D82068406894
:101470008007F6D42068016841F00101016000F0A6
:1014800063FD05460BE000F05FFD401B0A2806D90E
:10149000606A40F40030606284F82060D2E720681F
:1014A0004068C007EFD0207E0128206801683DD049
:1014B00021F080010160607E01282068016838D039
:1014C00021F040010160A07E01282068016833D02E
:1014D00021F020010160E07E0128206801682ED003
:1014E00041F010010160207F01282068016829D0A7
:1014F00021F008010160607F01282068016824D084
:1015000021F004010160D4E902010843D4E9041286
:10151000114308436168491E08432168C8610020DF
:101520006062012084F82000002070BD41F080013D
:10153000C0E741F04001C5E741F02001CAE721F0D2
:101540001001CFE741F00801D4E741F00401D9E7E9
:10155000F0B587B0044614216846FEF7EDFE3E4B19
:101560003E48DFF8F0E01968D4F800C03B4A032594
:101570000226092710300024491CF4452AD119609D
:10158000012907D1016841F000710160006800F095
:1015900000700590106840F0080010601068CDE9F8
:1015A000005600F00800CDE9047069462C48CDE9EA
:1015B000024500F0DDFB00220621132000F036FD7D
:1015C000132000F025FD00220621142000F02EFD3E
:1015D00014203BE0DFF88CE0F44539D1D0F800C0AE
:1015E0004CF0806CC0F800C0D0F800C001290CF0AD
:1015F000806CCDF814C0196007D1016841F000710A
:101600000160006800F000700590106840F0020072
:101610001060106802AB00F0020005904FF44050DB
:10162000CDE9000683E8B00069460F4800F0A0FB52
:10163000002206213F2000F0F9FC3F2000F0E8FCEA
:1016400000220621402000F0F1FC402000F0E0FCE8
:1016500007B0F0BD00640040D800002030380240E0
:10166000000C024000680040000402407047000087
:10167000F0B506460068B349B34DB44C93B0884208
:101680003ED16B4602AA0021B148FFF762FD029FDE
:1016900040F21112A7F2111005F10C0197426ED021
:1016A0000EDCAC4AA7F20117A1F1080002F10E030B
:1016B000072F25D2DFE807F049526484A3C0DD007C
:1016C000F2280CD006DC012879D0F02819D0F128B6
:1016D000D6D104E0F42820D0F528D1D129E0B81ED5
:1016E000C0B29C4A2870BDF80210AF3A02EB40101D
:1016F00049BAC180092004F0ABF9A08A401CA0823D
:10170000E0E0944869466F3804F066F90B2004F075
:101710009FF96088401C6080D4E08E4869464F384D
:1017200004F05AF9062004F093F9E089401CE081A6
:10173000C8E0884869462F3804F04EF9052004F0C7
:1017400087F92089401C2081BCE07F489DF800205B
:10175000801D017862F307110170B3E07D499DF8A7
:1017600000200F394A709DF8012002709DF8022078
:1017700042709DF803200A7000884880A2E07DE056
:101780009DF8003003709DF801304370038813808A
:101790009DF8023003709DF803304370008850803C
:1017A0009DF8040008709DF8050048709DF806003B
:1017B00088709DF80700C8700868506082E06AE091
:1017C0009DF8001001709DF8011041700188118191
:1017D0009DF8021001709DF803104170018851813D
:1017E0009DF8041001709DF80510417000889081EB
:1017F000032004F02DF9208C401C208462E09DF829
:10180000000008709DF8010048709DF80200887083
:101810009DF80300C870086818609DF804000870FF
:101820009DF8050048709DF8060088709DF8070037
:10183000C8700868586045E09DF8000008709DF881
:10184000010048709DF8020088709DF80300C87080
:10185000086898609DF8040008709DF805004870BD
:101860009DF8060088709DF80700C8700868D86069
:1018700028E035499DF80000891C0AE032499DF8AE
:101880000020C91C087862F303009DF8012062F370
:101890000710087016E02C489DF8002010300270E8
:1018A0009DF8012042709DF802200A709DF80320E7
:1018B0004A709DF804208A709DF80520CA70096856
:1018C000C0F8021024493068884226D110AB09AA1A
:1018D00000212248FFF73DFC099840F20522A0F2C2
:1018E0000521904208D01ADC081D05D0012803D03C
:1018F000022801D0032810D10998194A401EC0B20D
:101900006870BDF8421002EB401049BAC1800A204D
:1019100004F09EF8608B401C608313B0F0BD012979
:1019200009D0B1F5867FF8D1042004F091F8208F1A
:10193000401C2087F1E70A4810A9A03004F04CF8B9
:10194000EBE700000064004038000020480C002055
:10195000600D00201F0B002000680040880D002053
:10196000B0090020704770477047000070B504460A
:1019700090F82000012804D0606A40F400206062E2
:1019800018E0022084F820002068016821F001019D
:10199000016000F0D9FA05460EE000BF00F0D4FA6D
:1019A000401B0A2808D9606A40F4003060620520B4
:1019B00084F82000012070BD20684068C007EDD188
:1019C000606270BD704770477047704770477047DE
:1019D00070472DE9F0410446876D00F0B5FA0646E0
:1019E00094F835000025022806D08020606584F830
:1019F00034500120BDE8F0812068016821F0160113
:101A000001602068416921F080014161206C08B9C2
:101A1000A06C20B12068016821F0080101602068F5
:101A2000016821F0010101600BE000F08DFA801BDC
:101A3000052806D92020606504F8345F0320607013
:101A4000D8E720680068C007EFD194F85C103F2009
:101A50008840B86004F8345F012060700020C9E756
:101A60002DE9F84304464FF00009CDF80090634893
:101A70004FF41651A56D0068B0FBF1F72E6894F88D
:101A80005C10082000FA01F131420FD021680A6889
:101A900052070BD50A6822F004020A6094F85C1021
:101AA0008840A860606D40F00100606594F85C10AB
:101AB0004FF0010808FA01F0304208D02168496966
:101AC000090604D5A860606D40F00200606594F8D6
:101AD0005C1004208840304208D0216809688907DA
:101AE00004D5A860606D40F00400606594F85C1057
:101AF00010208840304218D021680968090714D5A1
:101B0000A86020680168490304D50068000308D56F
:101B1000A16C07E00168C90503D4016821F0080140
:101B20000160216C09B12046884794F85C102020A0
:101B30008840304231D021680968C9062DD5A86097
:101B400094F8350005282068016806D0490347D578
:101B5000006800031DD4616C1CE021F016010160D7
:101B60002068416921F080014161206C08B9A06CB6
:101B700020B12068016821F00801016094F85C1030
:101B80003F208840A86084F8349084F83580216D27
:101B90001FE0E16B09B120468847606D00282BD01B
:101BA000606DC00714D0052084F8350020680168F6
:101BB00021F0010101600098401C0090B84203D858
:101BC00020680068C007F6D184F8349084F8358026
:101BD000E16C002910D001B02046BDE8F043084771
:101BE0000168C905D5D4016821F01001016084F8AD
:101BF000349084F83580CCE7BDE8F88300010020FC
:101C00002DE9F041044600F09FF906465CB100253D
:101C100084F83450022084F835002068016821F0EF
:101C2000010101600DE00120BDE8F08100F08CF9B8
:101C3000801B052805D920206065032084F8350025
:101C4000F2E720680068C007F0D1226811682048D8
:101C50000140D4E901031843D4E903363343184360
:101C600063691843A3691843E3691843236A184357
:101C70000843616A042903D1D4E90B1319430843CB
:101C8000106020684069666A20F0070130460E4304
:101C9000012704280CD1A06A0643E06A40B120461F
:101CA000FFF758F820B14020606584F83570BAE736
:101CB000206846612046FFF739F894F85C203F2100
:101CC00091408160656584F835700020ACE70000C4
:101CD0003F8010F02DE9F0410446866D90F8340005
:101CE000002501280DD0012084F8340094F83570C7
:101CF0000020012F07D084F8340002252846BDE8D3
:101D0000F0810220FBE7022784F8357060652046E9
:101D1000FFF74AF894F85C103F208840B0602068D4
:101D2000016841F0160101602068416941F08001BD
:101D30004161206C20B12068016841F00801016018
:101D40002068016841F001010160D7E770B50446E1
:101D500000F0FAF80546601C02D0044800780444FC
:101D600000F0F2F8401BA042FAD370BDF40000204E
:101D70002DE9F84FDFF890B100224FF001084FF045
:101D8000030A4FF00F090BF1040E00BF0B6808FAAD
:101D900002F42340A3426ED14D68022D01D0122DD2
:101DA0000ED1D50800EB850CDCF820505607F70E55
:101DB00009FA07F6B5430E69BE402E43CCF8206001
:101DC000066855000F790AFA05FC07F0030726EAB2
:101DD0000C06AF40374307604E68012E05D0022E37
:101DE00003D0112E01D0122E0ED18768CE6827EABB
:101DF0000C07AE403E4386604668A6430C79C4F3A8
:101E00000014944034434460C4688E6824EA0C048F
:101E1000AE402643C6604C68E4006FD53B4C256855
:101E200045F480452560246822F0030504F48044CD
:101E30000094374C2E19D6F8084895072F0F09FA49
:101E400007F5AC43334DA84201D100252EE0324DB9
:101E5000A84201D1012529E0304DA84201D1022537
:101E600024E02F4DA84201D103251FE02D4DA842AB
:101E700002D104251AE041E02B4DA84201D10525ED
:101E800014E02A4DA84201D106250FE0284DA842B2
:101E900001D107250AE0274DA84201D1082505E018
:101EA000254DA84201D1092500E00A25BD40254362
:101EB000C6F80858DBF800405D464E689C43F603C0
:101EC00000D51C432C60DEF8004075464E689C43EC
:101ED000B60300D51C432C600B4D08352C684E68AA
:101EE0009C43F60200D51C432C60074D0C352C6832
:101EF0004E689C43B60200D51C432C60521C102A2D
:101F0000FFF444AFBDE8F88F003C01404438024084
:101F1000003001400000024000040240000802407E
:101F2000000C024000100240001402400018024061
:101F3000001C024000200240002402400AB18161DE
:101F400070470904FBE70000014880687047000003
:101F5000F4000020024881680278114481607047D3
:101F6000F40000200B4810B5016841F400710160D5
:101F7000016841F480610160016841F48071016091
:101F8000032000F073F80F2000F006F800F024F8AA
:101F9000002010BD003C024070B50D4D04464FF4CA
:101FA0007A712878B1FBF0F00A490968B1FBF0F0CA
:101FB00000F04DFC48B9102C07D200222146501EDB
:101FC00000F034F800206C6070BD012070BD00008E
:101FD000F4000020000100200C4882B0016841F4A8
:101FE00080410160006800F4804000900748001FB5
:101FF000016841F0805101600068002200F08050CB
:1020000000900F21901E02B000F010B8443802403A
:10201000002809DB00F01F020121914040098000E7
:1020200000F1E020C0F8001170470000F0B40E4B42
:102030001B680C46C3F30223C3F10705042D00D926
:102040000425191D072901D2002300E0DB1E01260B
:1020500006FA05F1491E214099409E40761E164021
:102060003143F0BC02F052B80CED00E0064900F03C
:10207000070208684FF6FF03184040EA0220034AAF
:1020800010430860704700000CED00E00000FA0506
:102090002DE9F0470E46050065D0DFF81481D8F829
:1020A0000000F7B200F00F00B04207D288F80070CD
:1020B000D8F8000000F00F00B04254D128683D4C21
:1020C000810712D5400703D5206840F4E050206016
:1020D0002878000703D5206840F46040206020681D
:1020E000A96820F0F000084320602878C0072DD0B0
:1020F000304968680839012812D0022813D0032813
:1021000011D00968890700292DDA216821F003011F
:1021100001432160FFF718FF814641F2883A0EE043
:1021200009688903EFE709688901ECE7FFF70CFF0D
:10213000A0EB0901514502D90320BDE8F0872068D2
:10214000696800F00C00B0EB810FEFD1D8F80010F7
:10215000404601F00F01B14207D90770006800F056
:102160000F00B04201D00120E7E72878400705D5ED
:102170002068E96820F4E0500843206028780007D0
:1021800006D52068296920F4604040EAC10020603B
:1021900000F036F82168084AC1F30311515CC840C9
:1021A000064908600F20FFF7F7FE0020C5E7000092
:1021B000003C0240083802404C7700080001002033
:1021C0000448054900680968044AC1F38221515C4A
:1021D000C840704700010020083802405C770008C2
:1021E0000448054900680968044AC1F34231515C5A
:1021F000C840704700010020083802405C770008A2
:10220000154810B5006810F00C02144813D014499A
:10221000042A0FD0082A0ED10F4C241F22682368ED
:1022200002F03F025B0207D52068C0F38810A0FBD4
:10223000010106E0084610BD2168C1F38811A1FB29
:1022400000010023FEF72EF82168C1F30141491C6B
:102250004900B0FBF1F010BD083802400024F40042
:10226000001BB7002DE9F84F050076D02878DFF87D
:10227000F8B2BE4CC00749D0DBF800105846C1F395
:102280008101012908D00068C0F3810002280AD129
:10229000201D0068400206D52068800336D5686896
:1022A0000028E2D032E06868B0F5803F10D0B0F589
:1022B000A02F206810D020F480302060206820F407
:1022C000802020606868A0B1FFF73EFE06460CE063
:1022D000206840F48030F4E740F480202060F7E785
:1022E000FFF732FE801B642873D820688003F7D57F
:1022F0000CE0FFF729FE064605E000BFFFF724FECD
:10230000801B6428F0D820688003F7D42878DFF891
:10231000608280074FF000093ED5DBF80010584678
:1023200011F00C0F09D00068C0F3810002280BD116
:102330008D48001F0068400206D42068800715D52C
:10234000E868012809D111E0E868B8B10120C8F8AF
:102350000000FFF7F9FD064605E002E1FFF7F4FD96
:10236000801B0228C0D820688007F7D5206829691B
:1023700020F0F80040EAC10020600DE0C8F80090AD
:10238000FFF7E2FD064604E0FFF7DEFD801B0228B2
:102390001FD820688007F7D42878000722D5724E0E
:1023A000744869696C3671B101210160FFF7CCFD99
:1023B000074604E0FFF7C8FDC01B022809D83068B3
:1023C0008007F7D50EE0C0F80090FFF7BDFD074687
:1023D00005E083E0FFF7B8FDC01B02287ED8306817
:1023E0008007F7D42878400768D5DFF87CA100275C
:1023F0000AF1380ADAF80000C0000BD4DAF800104D
:1024000041F08051CAF80010DAF80000012700F00E
:1024100080500090584E3068C00510D4306840F4A9
:1024200080703060FFF790FD009005E0FFF78CFDB5
:102430000099401A022851D83068C005F6D54A4E96
:10244000A868683601280FD00528306810D020F021
:1024500001003060306820F004003060A868B8B136
:10246000FFF772FD00900FE0306840F00100F4E7E4
:1024700040F004003060F7E7FFF766FD0099411A6D
:1024800041F28830814264D830688007F4D50EE08C
:10249000FFF75AFD009007E0FFF756FD0099411A3B
:1024A00041F28830814254D830688007F4D42FB18B
:1024B000DAF8001021F08051CAF80010A869C0B302
:1024C000DBF80010C1F3810102294AD002284846F6
:1024D00007D0C8F86000FFF737FD00E039E0054697
:1024E0003AE04746C8F86000FFF72EFD064604E0D4
:1024F000FFF72AFD801B02282BD820688001F7D423
:10250000D5E907010843A96A1C4A490802EB0141C1
:102510006A6A41EA8211084395F82C1040EA016189
:102520001148001F016001203866FFF70DFD0546C8
:1025300005E014E0FFF708FD401B022809D82068D9
:102540008001F7D50BE000BFFFF7FEFC401B02281F
:1025500002D90320BDE8F88F20688001F4D4002060
:10256000F8E70120F6E70000083802400038024092
:1025700000004742800E4742007000400000FFFF0D
:1025800070B5040005D00025A56294F8510010B183
:1025900006E0012070BD84F85050204600F030F86D
:1025A000022084F851002068016821F04001016098
:1025B000D4E901010843D4E90312114308436169D6
:1025C0000843218B01F400710843E1690843216A43
:1025D0000843A16A084321680860A069042101EA50
:1025E0001040616A0843216848602068C16921F48D
:1025F0000061C1616565012084F85100002070BD53
:1026000010B586B0044614216846FDF795FE1449BE
:102610002068884221D113480021026842F48012C8
:102620000260006800F4801005900E4814380268BB
:1026300042F020020260006800F0200005904FF494
:10264000607000900220CDE9010103200390052075
:10265000049069460448FFF78BFB06B010BD0000EC
:102660000050014044380240001402402DE9F84F68
:10267000044690F8500000270A9E1D4692468B465D
:102680004FF0010901280ED0012084F85000FFF717
:102690005BFC804694F85100616801280CD0B1F5CC
:1026A000827F07D102E00220BDE8F88FA16809B956
:1026B000042801D00227C2E0BBF1000F27D0BAF1F5
:1026C000000F24D01DB394F85100042802D0052037
:1026D00084F8510000206065C4F838A0E587A5871C
:1026E000C4F830B0E586A58620646064206801687F
:1026F000490603D4016841F040010160E068B0F58B
:10270000006F606805D0E8B3012D46D07FE0012757
:1027100095E008B1012D39D1206B21680088C8608F
:10272000206B801C2063E08E401EE0862EE0206837
:10273000816889070FD5E18E69B1B9F1010F0AD11E
:10274000216B0988C160206B801C2063E08E401ED5
:10275000E0864FF0000920688168C9070CD0E18F3E
:1027600051B1C068A16B0880A06B801CA063E08F92
:10277000401EE0874FF00109FFF7E6FBA0EB0800E1
:10278000B04200E009E001D3701C50D1E08E002877
:10279000CDD1E08F0028CAD13FE0206B21680078BE
:1027A0000873206B401C2063E08E401EE0862EE004
:1027B0002068816889070FD5E18E69B1B9F1010FF1
:1027C0000AD1216B09780173206B401C2063E08ED5
:1027D000401EE0864FF0000920688168C9070CD0D0
:1027E000E18F51B1C068A16B0870A06B401CA06361
:1027F000E08F401EE0874FF00109FFF7A5FBA0EB3B
:102800000800B04202D3701C01D010E07EB1E08E0F
:102810000028CDD1E08F0028CAD14246314620465B
:1028200000F0E6FE28B101272020606507E00327BD
:1028300005E0A06818B92068C16880680090012090
:1028400084F85100002084F8500038462CE710B579
:10285000401EB0F1807F01D3012010BD4FF0E02475
:1028600060610F21601701F051FC0020A06107207A
:102870002061002010BD70B590F83C20012A19D0CD
:10288000012400F83C4F0222427050F83C3C5A6848
:102890009D6822F070060A684968324325F0800579
:1028A00029435A6050F83C2C91604470002101701B
:1028B000084670BD022070BD10B586B004461421D4
:1028C0006846FDF739FD2368174C0021174802229E
:1028D000A34210D1036843F002030360006800F0D4
:1028E0000200059020200090CDE90121CDE90312DE
:1028F00069460F4813E00F4CA34212D1036843F01E
:1029000080030360006800F0800005904020009084
:10291000CDE901210920CDE9031069460648FFF7FA
:1029200027FA06B010BD0000000400403038024015
:102930000004024000180040001C024070B504462C
:1029400090F83C000D4601280DD0012684F83C602B
:10295000022084F83D0042B1042A18D0082A2AD067
:102960000C2A4DD139E0022070BD206801F07EF8BC
:102970002068816941F0080181612068816921F046
:1029800004018161206881692A69114311E020688E
:1029900001F09CF82068816941F400618161206840
:1029A000816921F480618161206881692A6941EA35
:1029B0000221816124E0206801F0BEF82068C1692D
:1029C00041F00801C1612068C16921F00401C161C1
:1029D0002068C1692A69114311E0206801F0E0F81C
:1029E0002068C16941F40061C1612068C16921F4B6
:1029F0008061C1612068C1692A6941EA0221C1611F
:102A000084F83D60002084F83C0070BD10B50400DF
:102A100003D094F83D0010B107E0012010BD002064
:102A200084F83C00204600F00DF8022084F83D00B8
:102A3000211D206800F0A8FF012084F83D0000203F
:102A400010BD000008B50C4A01680C48914207D13E
:102A5000016841F002010160006800F0020009E035
:102A6000074A914207D1016841F0400101600068C6
:102A700000F04000009008BD0004004040380240D3
:102A80000018004010B504460068012200F0E0FF85
:102A90000B492068884202D00A49884203D1416C20
:102AA00041F4004141642068816801F00701062972
:102AB00003D0016841F001010160002010BD000059
:102AC000000001400004014010B5044600680022E7
:102AD00000F0BEFF114841F21112216893108142AB
:102AE00002D00F48814209D1086A104206D1086A13
:102AF000184203D1486C20F4004048642068016A01
:102B0000114206D1016A194203D1016821F0010185
:102B10000160012084F83D00002010BD000001404C
:102B20000004014010B504460068416994F839205A
:102B3000C1F3C011212A0BD151B1416921F08001AB
:102B40004161206B08B1FEF744FF204601F0CCF84C
:102B50002068416994F83A20C1F38011222A0BD1F0
:102B600051B1416921F040014161606B08B1FEF74C
:102B700030FF204601F0AAF8002010BD08B5C16B57
:102B8000082903D1006801684068009008BD70B54D
:102B9000040004D094F83900002510B106E00120AB
:102BA00070BD84F83850204600F022F8242084F8C4
:102BB00039002068C16821F40051C160204601F04D
:102BC000E1F82068016921F49041016120684169C0
:102BD00021F02A0141612068C16841F40051C160BF
:102BE000E563202084F8390084F83A00002070BDA5
:102BF0002DE9F04F87B0054614216846FDF79CFB90
:102C00006E48DFF8B48110382B680024DFF8ACC1BF
:102C1000022101220326DFF8A8E107154FF0080979
:102C20004FF0206A4FF4807B434534D1DCF800300C
:102C300043F08043CCF80030DCF8003003F08043F0
:102C40000593036843F010030360006800F0100070
:102C50000590F0018DE8470269467046FFF788F855
:102C6000594E58483060C6E901A4C6E9034774616B
:102C7000C6E9064B346230467462FEF7C1FF08B104
:102C8000FEF733F96E63002205215220B563FFF78A
:102C9000CDF952208CE0DFF83481434534D1DCF8A3
:102CA000003043F00043CCF80030DCF8003003F093
:102CB00000430593036843F0100303600068CDE907
:102CC000006100F01000CDE90490CDE902266946CC
:102CD0007046FFF74DF83C4E3A4860364830306059
:102CE000C6E901A4C6E903477461C6E9064B34622C
:102CF00030467462FEF784FF08B1FEF7F6F86E63A3
:102D0000B56307B0BDE8F08FDFF8C4C06345F8D104
:102D10002A4B1B1DD3F800C04CF0100CC3F800C0A8
:102D20001B6803F010030593036843F0020303607C
:102D3000036803F002030593036843F00103036093
:102D40000068884600F001000590802092468DE8DA
:102D500001054FF00709CDE9036969461D48FFF7F2
:102D600007F84FF400708DE80105CDE90369694665
:102D70001948FEF7FDFF144E1848C03630604FF07A
:102D80000060C6E90104C6E903477461B461F461F7
:102D9000346230467462FEF733FF08B1FEF7A5F8DF
:102DA0006E63002205212520B563FFF73FF925203A
:102DB000FFF72EF9A5E700000078004040380240F8
:102DC00000100240586002409C110020007C00402E
:102DD0000010014000040240000002404064024034
:102DE000F8B5044690F83A0020283CD1C1B3BAB3F4
:102DF00094F83800012836D0012084F83800A16208
:102E0000A2850025E563222084F83A00636B174809
:102E1000D863636B16481864636B1648D864606B9C
:102E2000134605650846666B216802463046091D53
:102E3000FEF750FF206801684168009184F838501F
:102E4000C16841F48071C1602068416941F00101AD
:102E500041612068416941F0400141610020F8BDB5
:102E6000FFE70120FBE70220F9E70000873C0008AC
:102E7000C33C00083D3C000870477047FEE7000077
:102E80007FB50E2269463B2000F024F9BDF8000012
:102E90009FED1C1A41BA1A48A0F114040180BDF834
:102EA000021049BA4180BDF8041049BA8180BDF8CA
:102EB000061049BA00EE101AB8EE400AC0EE010A38
:102EC000B3EE050A30EE800ABDEEC00A10EE101A0D
:102ED000C180BDF808104ABA2281BDF80A1049BA6B
:102EE0006181BDF80C305BBAA38128342589521B5F
:102EF00002816289891A4181A189591A81817FBD24
:102F0000A60100205CEFA64310B56A4C2DED0A8B9C
:102F1000B8EE009AF0EE008AB7EE00BAD4ED029A4D
:102F200094ED038A29EE890A68EE280A20EE290A20
:102F300000EEC80A30EE0B0A10EE100AFDF7BFFBD8
:102F400094ED010AD4ED000A41EC1A0B20EE280A98
:102F500060EEA80A20EE290A00EE880A10EE100A98
:102F6000FDF7ADFB41EC100BB0EE4A1AF0EE6A1A19
:102F700001F0FAFB9FED50AB51EC100B53EC1A2B08
:102F8000FDF78CFAFDF7AEFB08EE100A4C4984ED14
:102F9000098A94ED080A38EE400A10EE100A8842B9
:102FA00002DDE069401EE06110EE100A45498842EA
:102FB00002D9E069401CE06184ED088A2069F0B91B
:102FC000E069FDF74CFB9FED401B53EC112BFDF727
:102FD00065FA41EC1C0B18EE100AFDF770FB53EC80
:102FE0001C2BFDF7B4F9FDF77DFBA062E06A40F60B
:102FF000B831401CE062884201DD0120206194ED7F
:10300000018A28EE090A60EE080A94ED020A60EED1
:10301000289A49EEC00A30EE8B0A10EE100AFDF72E
:103020004EFB94ED030AD4ED000A41EC1B0B29EE94
:10303000800A60EEA80A00EE880A10EE100AFDF77A
:103040003EFB41EC100BB0EE4B1AF0EE6B1A01F0A8
:103050008BFB53EC1A2B51EC100BFDF71FFAFDF70D
:1030600041FBE06694ED010AD4ED030A94ED021AE7
:1030700020EE090A20EE200AD4ED000A60EEA80A2C
:1030800000EE810A10EE100AFDF719FB41EC100B5F
:1030900001F04EF853EC1A2B51EC100BFDF7FEF932
:1030A000FDF720FB0A49A066488E401C4886BDEC0F
:1030B0000A8B10BD640000206666666666A64C40FA
:1030C0000000A5430000A5C300000000008076407A
:1030D000480C0020F8B5134F15460E460446002252
:1030E00040213846FEF72AFF0F4944F0800037247C
:1030F0004871891D8A1E08700123491E0B480094DF
:10310000FFF7B4FA08492B463246891D0748009458
:10311000FFF7ACFA012240213846FEF70FFF0020EE
:10312000F8BD000000140240000000200410002040
:10313000104810B50E4901600321416000214FF491
:1031400000228160C0E903124FF44012426101760F
:10315000012242768176C17601774177FEF76BF9DD
:10316000002803D0BDE81040FDF7BFBE10BD000031
:1031700000640040600D0020104810B50E49016049
:103180000321416000214FF400228160C0E9031255
:103190004FF4401242610176012242768176C17677
:1031A00001774177FEF747F9002803D0BDE81040CA
:1031B000FDF79BBE10BD000000680040880D002098
:1031C000154808B5016841F480010160016801F407
:1031D00080010091016841F4001101600068002243
:1031E00000F40010009005210E20FEF71FFF0E20B6
:1031F000FEF70EFF002205211120FEF717FF112018
:10320000FEF706FF002205213A20FEF70FFFBDE87A
:1032100008403A20FEF7FCBE3038024010B5AAB094
:103220001C2221496846FDF76EF80021684603F02C
:103230008AFA1E4C1C491C2220601C3107A8FDF78D
:1032400062F8002107A803F07EFA174960601C228B
:1032500038310EA8FDF757F800210EA803F073FAD5
:103260001149A0601C22543115A8FDF74CF800212B
:1032700015A803F068FA0C49E0601C2270311CA804
:10328000FDF741F800211CA803F05DFA0649206112
:103290001C228C3123A8FDF736F8002123A803F067
:1032A00052FA60612AB010BD9C760008DC00002054
:1032B0002DE9F04F87B014216846FDF73DF84C48E2
:1032C0000024016841F010010160016801F0100163
:1032D0000591016841F002010160016801F00201FD
:1032E0000591016841F040010160016801F0400171
:1032F0000591016841F008010160016801F00801D1
:103300000591016841F480710160016801F48071E8
:103310000591016841F001010160016801F00101BE
:103320000591016841F080010160016801F08001B0
:103330000591016841F0200101600068DFF8B48068
:1033400000F0200040F60405059000222946404682
:10335000FEF7F4FDDFF8A09042F2FE16002231469F
:103360004846FEF7EBFDDFF894B000223C215846BA
:10337000FEF7E4FDDFF888A044F24007002239465A
:103380005046FEF7DBFD00950125CDE90154694665
:1033900040460394FEF7ECFC0096CDE901546946E3
:1033A00048460394FEF7E4FCCDE90054694615480D
:1033B0000295FEF7DDFC3C200090CDE90154694602
:1033C00058460394FEF7D4FC0097CDE901546946B2
:1033D00050460394FEF7CCFC4FF4C0508DE831000A
:1033E00069465846FEF7C4FC07B0BDE8F08F000000
:1033F000303802400010024000180240001C024019
:103400000014024000200240104810B50E4901602F
:103410004FF48271416000218160C1604FF40072FD
:103420000161C0E905123022C0E9072141628162D1
:103430000A21C162FFF7A4F8002803D0BDE81040BC
:10344000FDF753BD10BD00000050014004100020E6
:1034500010B588B01C216846FCF76EFF10480F4974
:103460000024C0E900148460C46004618461FFF733
:10347000CDFA08B1FDF739FD6020CDE900040294D2
:103480000022694606480494FFF758FA08B1FDF790
:103490002CFD0348FFF710FA08B010BD00180040DB
:1034A0009C10002010B58AB0002407941C216846A7
:1034B0000894FCF741FF1548134901605321C0E906
:1034C0000114C46004618461FFF7A0FA08B1FDF73C
:1034D0000CFD079407A90D480894FFF7CCF908B133
:1034E000FDF703FD6020CDE9000402940422694643
:1034F00006480494FFF722FA08B1FDF7F6FC0348EA
:10350000FFF7DAF90AB010BD000400405C1000209B
:103510000C4810B50A4901604FF4E13141600021C7
:1035200081600C22C160C0E904128161C161FFF7B2
:103530002EFB002803D0BDE81040FDF7D6BC10BD1F
:1035400000780040DC1000200C4810B50A490160EA
:103550004FF4E1314160002181600C22C160C0E97B
:1035600004128161C161FFF712FB002803D0BDE89E
:103570001040FDF7BABC10BD007C00401C110020BB
:103580000D4810B50B4901600C49416000214FF412
:1035900080628160C0E903120422C0E90521C16193
:1035A000FFF7F5FA002803D0BDE81040FDF79DBCF9
:1035B00010BD0000001001405C110020A086010039
:1035C000FEE7704710B501F07FFFBDE8104002F044
:1035D00059BB01EE901AF8EE611AC0ED031A01EE24
:1035E000902AF8EE611AC0ED0A1A80EC030A7047BF
:1035F00038B504461248134B0068B0FBF3F04FF4A3
:103600007A73584300906068B0F5827F0DD10B4605
:10361000009200228021204600F016F870B1606D03
:1036200040F020006065032038BD009830B1401E96
:10363000009020688068C0430006F6D5002038BDA1
:103640000001002000366E012DE9F0411D461746AD
:103650000E460446DDF8188008E0681C06D0FEF728
:1036600073FCA0EB0800A8420BD255B1206880681B
:1036700036EA000030D00020B842EED10020BDE88C
:10368000F0812068416821F0E00141606068B0F598
:10369000827F0BD1A068B0F5004F02D0B0F5806FEB
:1036A00004D12068016821F040010160A06AB0F5F2
:1036B000005F09D12068016821F400510160206891
:1036C000016841F400510160012084F8510000209C
:1036D00084F850000320D2E70120CDE7F0B514466E
:1036E0000E460746FDF702FC0346384600F0B8F8E0
:1036F0000146002002E03A5C3254401C9842FADB5A
:103700000025F554581C06E0A0EB030C3A5CA444D9
:10371000401C0CF8012C8842F6DB65545B1C04D17C
:1037200031463846FDF7CCFA2570F0BD2DE9F04161
:1037300006462DED088B4FF000089FED438B444665
:10374000B0EE489AF0EE689A305D58B1A0F13001C1
:103750000A2903D32E2801D02D2803D1641CE4B2FA
:103760000A2CF1D3002504E0705D2E2803D06D1CD7
:10377000EDB2A542F8D300279FED35AB15E0F05D23
:103780002D2818D03038FCF76AFF41EC1B0B53ECA6
:103790001A2B51EC190BFCF781FE53EC1B2BFCF799
:1037A000D6FD41EC190B7F1CFFB2AF42E7D37F1C63
:1037B000FDB22F4618E04FF00108F4E7705D303895
:1037C0000A2813D2FCF74BFF41EC1B0B53EC1A2BCE
:1037D00051EC180BFCF762FE53EC1B2BFCF7B7FD0A
:1037E00041EC180B6D1CEDB2A542E7D300259FED0F
:1037F0001AABE41B0AE000BF53EC1A2B51EC180B78
:10380000FCF74CFE41EC180B6D1CEDB2AC42F3DC46
:1038100053EC182B51EC190BFCF799FD41EC100BF4
:10382000B8F1000F05D051EC100B81F0004141ECD4
:10383000100B51EC100BFCF755FFBDEC088B00EEA4
:10384000100ABDE8F0810000000000000000000048
:1038500000000000000024409A9999999999B93F75
:10386000014600200A5C401C002AFBD1401E704724
:1038700070B50B46074C04E0E618C55C761A5B1C75
:1038800035709342F8DB00202244511A0870014839
:1038900070BD00001006002010B5FEF75BFB03F0C2
:1038A0001BFE012803D0BDE8104003F0A7BD10BDEA
:1038B00030B593B030216846FCF73EFD14210CA8CA
:1038C000FCF73AFD19480025016841F0805101607C
:1038D000006800F0805011901548016841F44041A3
:1038E00001600068022400F4404011900120009023
:1038F000000401908001CDE9064006200890A82030
:10390000CDE9090404200B906846FEF7ABFC0CA936
:103910000F2081E831004FF4A0500F90E00210908A
:1039200005210CA8FEF7B4FB13B030BD40380240AF
:10393000007000401048016841F4700101600F48B8
:10394000016841F0010101600C4A00210832116058
:1039500002680B4B1A400260031D0A4A1A60026893
:1039600022F48022026005480C30016002495806AA
:10397000803908607047000088ED00E000380240A0
:10398000FFFFF6FE10300024F0B50268254C264DEE
:10399000264E274F274B4FF0804CA04209D0604560
:1039A00007D0A84205D0B04203D0B84201D0984217
:1039B00004D122F0700E4A6842EA0E02A0421BD0E7
:1039C000604519D0A84217D0B04215D0B84213D0E4
:1039D000984211D0184DA8420ED0184DA8420BD0D5
:1039E000174DA84208D0174DA84205D0164DA84241
:1039F00002D0164DA84203D122F44075CA682A436A
:103A00004D6922F080022A4302608A68C2620A6815
:103A10008262A04201D0984201D10969016301216B
:103A20004161F0BD0000014000040040000800407A
:103A3000000C0040000401400040014000440140EF
:103A40000048014000180040001C004000200040D9
:103A500010B501F01F030121046A99408C430462F0
:103A6000016A9A401143016210BD0000F0B5026A7C
:103A700022F001020262036A42688469124E24F055
:103A800073050C682C4323F002058B682B430D4D06
:103A9000A84201D0B04205D123F00807CB683B43D0
:103AA00023F00403A84201D0B04205D14D6922F4AD
:103AB000407215438A692A434260846149684163C0
:103AC0000362F0BD0000014000040140F0B5026A4D
:103AD00022F010020262026A436884690D6824F4CD
:103AE000E64444EA05248D6822F0200242EA0512E9
:103AF0000F4D104EA84201D0B04206D1CF6822F03F
:103B0000800242EA071222F04002A84201D0B042ED
:103B100007D14D6923F4406343EA85038D6943EA85
:103B2000850343608461496881630262F0BD0000DF
:103B30000000014000040140F0B5026A22F48072E6
:103B40000262026A4368C46922F4007224F07305B9
:103B50000C68124E2C438D6842EA05220E4DA84295
:103B600001D0B04206D1CF6822F4006242EA0722B7
:103B700022F48062A84201D0B04207D14D6923F4FB
:103B8000405343EA05138D6943EA05134360C4615A
:103B90004968C1630262F0BD0000014000040140B9
:103BA00030B5026A22F480520262046A4268C36934
:103BB0000D6823F4E64343EA05238D6824F400549A
:103BC00044EA0534084DA84202D0084DA84204D169
:103BD0004D6922F4804242EA85124260C36149681D
:103BE0000164046230BD0000000001400004014097
:103BF0000B4810B5B0F9060000EE100A0A48F8EEBE
:103C0000C00A9FED080A02F0C9FD0748074990ED78
:103C1000050ABCEEC00A10EE100A80B2086010BDA2
:103C2000A6010020000048422C0D0020380400406E
:103C3000014800F063B80000DC10002070B5846B10
:103C40002068406994F83910C0F3C010002521297C
:103C500004D118B1E584204600F046F82068406998
:103C600094F83A10C0F38010222904D118B1E585E8
:103C7000204600F02BF8E06B40F01000E063204697
:103C8000FEF77CFF70BD10B50146806B09680968BE
:103C9000C90513D40021C1850168CA6822F4807265
:103CA000CA6001684A6922F001024A6101684A69F2
:103CB00022F040024A61202180F83A10FFF7DCF838
:103CC00010BD10B5806BFFF7D8F810BD0168CA6849
:103CD00022F49072CA6001684A6922F001024A61C6
:103CE000202180F83A1070470168CA6822F0C002AB
:103CF000CA60202180F839107047000038B50446AA
:103D000000681949884217D1184800680168C943FA
:103D1000C90611D40168406800901448FEF702FFFC
:103D2000122213491148FFF75BF8012001F090FEC1
:103D30001048818D491C81850F492068884212D125
:103D40000E4800680168C943C9060CD40168406880
:103D500000900A48FEF7E6FEBDE838400122084917
:103D60000648FFF73DB838BD001001405C11002047
:103D700080010020480C002000780040DC1000206A
:103D80003D0B00202DE9F041044600680169E2681E
:103D900021F44051114301612169A068E26908439F
:103DA0006169114322680843D16849F20C63994361
:103DB0000143D16020684169A26921F44071114337
:103DC0004161E2696425B2F5004F9748974922683E
:103DD0004FF032083FD08A4201D082427CD1FEF7B8
:103DE000FFF900EBC00101EB001061688900B0FB36
:103DF000F1F6FEF7F5F900EBC00101EB0010616888
:103E00008900B0FBF1F0B0FBF5F06FF0180148430A
:103E100006EB800108EB0110B0FBF5F000F0F006B6
:103E2000FEF7DEF900EBC00101EB001061688900CC
:103E3000B0FBF1F0B0FBF5F006EB0016FEF7D0F9A1
:103E400000EBC00101EB001061688900B0FBF1F7E5
:103E5000FEF7C6F9D2E08A4201D082423DD1FEF798
:103E6000BFF900EBC00101EB001061684900B0FB35
:103E7000F1F0B0FBF5F00601FEF7B2F900EBC0017E
:103E800001EB001061684900B0FBF1F7FEF7A8F9FB
:103E900000EBC00101EB001061684900B0FBF1F0DC
:103EA000B0FBF5F06FF01801484307EB800108EB19
:103EB000C100B0FBF5F000F0F80006EB4006FEF79D
:103EC0008FF900EBC00101EB001061684900B0FB05
:103ED000F1F7FEF785F93CE055E0FEF771F900EBEC
:103EE000C00101EB001061684900B0FBF1F0B0FBCC
:103EF000F5F00601FEF764F900EBC00101EB0010DC
:103F000061684900B0FBF1F7FEF75AF900EBC00118
:103F100001EB001061684900B0FBF1F0B0FBF5F077
:103F20006FF01801484307EB800108EBC100B0FBBC
:103F3000F5F000F0F80006EB4006FEF741F900EB63
:103F4000C00101EB001061684900B0FBF1F7FEF71A
:103F500037F900EBC00101EB001061684900B0FBCC
:103F6000F1F0B0FBF5F06FF01801484307EB80016A
:103F700008EBC100B0FBF5F000F007002168304409
:103F80008860BDE8F081FEF71BF900EBC00101EB92
:103F9000001061688900B0FBF1F6FEF711F900EB43
:103FA000C00101EB001061688900B0FBF1F0B0FBCB
:103FB000F5F06FF01801484306EB800108EB0110A3
:103FC000B0FBF5F000F0F006FEF7FAF800EBC001E8
:103FD00001EB001061688900B0FBF1F0B0FBF5F077
:103FE00006EB0016FEF7ECF800EBC00101EB001049
:103FF00061688900B0FBF1F7FEF7E2F800EBC00161
:1040000001EB001061688900B0FBF1F0B0FBF5F046
:104010006FF01801484307EB800108EB0110B0FB7B
:10402000F5F000F00F00A9E7001401400010014076
:104030000148FFF763BE00005C11002010B5122399
:10404000074A0849084800F017F80123074A0849B9
:10405000084800F011F8BDE8104002F0F7BE00007B
:10406000800100205C1200205C1100203D0B00202C
:104070009C110020DC1000202DE9F041044600686E
:104080000F461D46416816463846FDF723FE206858
:10409000416941F0400141612068C16841F010016F
:1040A000C1602A4631462046FEF79AFE20684169E3
:1040B00041F001014161BDE8F081FEE70FB4054B1D
:1040C00010B503A9044A029800F0BEFD10BC5DF8CB
:1040D00014FB00002D5B00086401002003B401986C
:1040E0004100009850EAC12018BF04204A0D18BFB3
:1040F00040F0010040F2FF72B2EB515F08BF40F0A8
:104100000200012808BF052002B070470907090E08
:10411000002804DB00F1E02080F80014704700F074
:104120000F0000F1E02080F8141D7047000000002F
:1041300070B5C1482DED020B2DED0E8B82B0119D97
:1041400025F000449FEDBEDB9FEDBFEB84423EDBDC
:10415000A4F140511098A1F17F6108430FD0BC48F1
:10416000844202DC28D1109830B39DED100B02B0D0
:10417000BDEC0E8B02B0BDE8704000F069BC9DED57
:10418000100B53EC1D2B51EC100BFCF787F99DED38
:10419000100B41EC180B53EC1E2B51EC100BFCF7E1
:1041A0007DF953EC182BFCF7D2F841EC100B02B060
:1041B000BDEC0E8B02B070BD012000F08DFC02B092
:1041C000BDEC0E8B02B0BDE8704000F055BCA148BC
:1041D0009FEDA18B844256DA9DED100BB4F1795F0F
:1041E0000ADA51EC100BFFF779FF042808BF00F042
:1041F00053FC9DED100BDAE753EC102B51EC100B38
:10420000FCF74CF941EC190B95480621B0EE490A30
:10421000F0EE690A784400F09FFB53EC192B51EC47
:10422000100BFCF73BF941EC1A0B8E48B0EE490A33
:10423000F0EE690A0421784400F08EFB53EC192B50
:1042400051EC100BFCF72AF953EC182BFCF77FF814
:1042500041EC100B51EC1A0B53EC102BFCF790F9BE
:10426000CDE900019DED000B53EC102B9DED100BE3
:1042700051EC100BFCF712F99DED101B53EC112BB8
:10428000FCF765F8D2E09DED100B51EC100B01F03E
:10429000EDFB53EC182BFCF7FEF89FED730BCDE90B
:1042A000000153EC102B9DED000B51EC100BFCF7B3
:1042B000F5F841EC190B6E480621B0EE490AF0EE14
:1042C000690A784400F048FB53EC192B51EC100BB1
:1042D000FCF7E4F841EC1B0B6648B0EE490AF0EE3F
:1042E000690A0421784400F037FB53EC192B51EC98
:1042F000100BFCF7D3F853EC182BFCF728F841EC23
:104300001C0B51EC190B02F0F5FD41EC180B5A484F
:104310009FED5BABA04222DC53EC1C2B51EC1B0B42
:10432000FCF72EF9CDE900019DED000B51EC180BC7
:1043300053EC102BFCF7B2F853EC182BFCF707F8F2
:1043400053EC1A2BFCF7AAF853EC1D2BFCF7A0F842
:1043500053EC1E2BFCF79FF841EC100B5FE08DED4A
:10436000008B002000909DED000B51EC180B53ECDE
:10437000102BFBF7ECFF9DED000B41EC1E0B53ECFB
:10438000102B51EC100BFCF789F853EC192BFCF7B0
:1043900082F853EC1E2BFCF7F3F841EC190B53ECAD
:1043A0001C2B51EC1B0BFCF7EBF841EC1B0B53ECFB
:1043B0001A2B51EC190BFCF771F853EC1D2BFCF781
:1043C0006AF841EC190B53EC1A2B51EC180BFCF763
:1043D00065F853EC1B2BFCF761F853EC192BFCF739
:1043E00057F89DED000B41EC180B53EC1A2B51ECD8
:1043F000100BFCF753F89FED249B53EC192BFCF7A3
:104400004AF841EC100B51EC180B53EC102BFCF755
:104410003FF853EC192BFCF73EF841EC100B002D44
:104420003FF7C5AE51EC100B81F0004141EC100B91
:10443000BDE60000000000000000F03F00000000AA
:10444000075C143326A6913C182D4454FB21F93FF8
:104450000000F07F0000E03F000000000000F03F9F
:10446000503500005E350000000000000000E03F15
:10447000A2340000B03400003333EF3F00000000EE
:104480000000000000000040182D4454FB21E93FCB
:1044900070B59B482DED020B2DED068B079D25F089
:1044A0000044A04218DC9748844202DC0AD10698F6
:1044B00040B19DED060BBDEC068B02B0BDE870402F
:1044C00000F0C6BA002DCCBF9FED8F0B9FED900B77
:1044D000BDEC068B02B070BD8F48A04215DD8F4841
:1044E000A042D8BF4FF0FF3458DD9DED060B51ECD4
:1044F000100BFFF7F3FD042808BF00F0CDFA9DED87
:10450000060BBDEC068B02B070BD9DED060B51ECA9
:10451000100B01F0ABFACDE9060181489FED828BCB
:10452000A0423CDD8248A0421FDD00249FED82AB0B
:104530009DED060B53EC1A2B51EC100BFBF707FF0C
:104540009DED060B41EC190B53EC1A2B51EC100BA3
:10455000FBF7A4FF53EC182BFBF79AFF53EC192B36
:10456000FCF70EF8CDE9060149E09DED060B0124AC
:1045700053EC182B51EC100BFBF7E9FE9DED060BED
:1045800041EC190B53EC182B51EC100BFBF780FF8F
:1045900053EC192BFBF7F4FFCDE906012FE0684837
:1045A000A0421FDD02249FED689B9DED060B53EC9E
:1045B000192B51EC100BFBF771FF53EC182BFBF789
:1045C000C6FE9DED060B41EC180B53EC192B51EC7C
:1045D000100BFBF75DFF53EC182BFBF7D1FFCDE978
:1045E00006010CE09DED060B032453EC102B9FED10
:1045F000580B51EC100BFBF7C3FFCDE906019DED05
:10460000060B53EC102B51EC100BFBF747FF41EC62
:10461000180B53EC182BFBF741FF41EC190B4E48DC
:104620000621B0EE490AF0EE690A784400F094F9E8
:1046300053EC182B51EC100BFBF730FF41EC180B2F
:104640004648B0EE490AF0EE690A0521784400F0C8
:1046500083F953EC192B51EC100BFBF71FFF41ECC6
:10466000100B51EC180B53EC102B002C0EDAFBF74F
:104670006EFE9DED061B53EC112BFBF70FFF9DED1E
:10468000061B53EC112BFBF706FF35E0FBF75FFE33
:104690009DED061B53EC112BFBF700FF41EC100BBB
:1046A0002F48784400EBC40090ED001B51EC100B38
:1046B00053EC112BFBF7ECFE9DED061B53EC112B7D
:1046C000FBF7E6FE41EC100B2648784400EBC400F3
:1046D00090ED001B51EC100B53EC112BFBF7DBFEA4
:1046E00041EC100B002DA2BFBDEC068B02B070BDDB
:1046F00051EC100B81F0004141EC100B01E7000080
:10470000000010440000F07F182D4454FB21F93FB5
:10471000182D4454FB21F9BF0000DC3F0000203E6F
:104720000000F33F00000000000000000000F03F28
:104730000000E63F00000000000000000000004014
:104740000080034000000000000000000000F83F6F
:10475000000000000000F0BFF2310000A8310000AE
:1047600032310000EA30000070B56B4E2DED040BC5
:104770002DED028B82B0DDF81CC0DDE905235C4223
:104780002CF000411C4341EAD474049D22F0004007
:10479000B44205D86C422C4340EAD474B4420BD9DD
:1047A0009DED061B9DED040B02B0BDEC028B04B029
:1047B000BDE8704000F056B9ACF14054A4F17F64FC
:1047C0001C430BD0022404EAAC7444EAD2740543BF
:1047D0009FED538B9FED542B07D015E09DED040BFF
:1047E00051EC100B00F0C7FD42E0002C11BF012C72
:1047F0009DED040B02B0BDEC028B04BF04B070BD94
:10480000022C38D0032C3BD00B439FED491B9FED6E
:104810004A0B0AD0B14218D1B04209D121F08041EF
:1048200020F08040079105900FE0002A15DA10E093
:10483000434B7B44002C08BF93ED000B0DD0012CA3
:1048400010D0022C17D0032C1AD0B0421DD1002A50
:1048500003DAB0EE410AF0EE610A02B0BDEC028B61
:1048600004B070BD93ED000B51EC100B81F00041D2
:1048700041EC100BF1E7B0EE480AF0EE680AECE705
:10488000B0EE420AF0EE620AE7E7401A00153C2853
:10489000C8BF8DED000B19DCBCF1000FBEBF10F1DD
:1048A0003C0F9FED290B8DED000B0FDB9DED060BF3
:1048B00053EC102B9DED040B51EC100BFBF760FE3D
:1048C00001F0D4F800F057FDCDE90001002C08BF3D
:1048D0009DED000BC1D0012C10D0022C9FED1C0BC4
:1048E00053EC102B9DED000B51EC100B0DD0FBF792
:1048F000CFFD53EC182BFBF7CBFDB9E7019880F007
:10490000004001909DED000BA7E7FBF7C1FD53ECC4
:10491000182BFBF7C0FDABE70000F07F00000000A4
:10492000182D4454FB210940182D4454FB2109C083
:10493000182D4454FB21F9BF182D4454FB21F93F95
:104940001A3000000000000000000000000000001D
:10495000075C143326A6A13C70B504462DED028BEE
:104960004D1E00EBC500B0EE408AF0EE608A90ED7F
:10497000000B35F0060017D053EC182B51EC100B40
:10498000FBF78CFD41EC100B6D1E04EBC50090EDA8
:10499000001B51EC100B53EC112BFBF7D8FC41EC36
:1049A000100B35F00600E7D1022D36D0042D1CD0B7
:1049B000062D1CBFBDEC028B70BD53EC182B51ECC7
:1049C000100BFBF76BFD94ED0A1B53EC112BFBF75F
:1049D000BEFC53EC182BFBF761FD94ED081B53EC68
:1049E000112BFBF7B4FC41EC100B53EC182B51ECE2
:1049F000100BFBF753FD94ED061B53EC112BFBF74B
:104A0000A6FC53EC182BFBF749FD94ED040B53EC7B
:104A1000102BFBF79CFC41EC100B53EC182B51ECCA
:104A2000100BFBF73BFD94ED021B53EC112BFBF736
:104A30008EFC53EC182BFBF731FD94ED001B53EC6F
:104A4000112BFBF784FCBDEC028B41EC100B70BD0D
:104A500010B553EC102B51EC100BFBF778FC41EC2C
:104A6000100B10BD10B553EC112B51EC100BFBF7D4
:104A70006EFC41EC100B10BD9FED050B10B553EC17
:104A8000102B51EC100BFBF77BFD41EC100B10BD14
:104A900000000000000000009FED050B10B553EC76
:104AA000102B51EC100BFBF7F9FC41EC100B10BD77
:104AB000000000000000001002E008C8121F08C13A
:104AC000002AFAD170477047002001E001C1121F8F
:104AD000002AFBD1704700000149086070470000C0
:104AE000680100202DE9FF5FDDE90220010DDDF8FE
:104AF00038B0024318D044F61050A1F2FF314143C0
:104B00000D140F98012820D0A5EB0B00401C5FEA84
:104B1000000A4FF00004474EDFF81C91A0465046B3
:104B200016D5CAF1000728E00F98012443A20128F6
:104B300008D0002100980F9BC0E90021C0E9024382
:104B4000BDE8FF9F6FEA0B01F4E7CBF10000DEE761
:104B5000074612E0F80707D022463346404649464A
:104B6000FBF79CFC80468946224633461046194690
:104B7000FBF794FC04460E467F10002FEAD1DDE9D6
:104B80000201BAF1000F42464B4602DAFBF786FCFF
:104B900001E0FBF7F5FC04460E460022284BFBF72C
:104BA000B1FE03D84FF0FF30014607E00022254B4D
:104BB00020463146FBF7CBFBFBF78BFE102409E0C8
:104BC000002C0ADB0A220023FBF76CFB019B30322E
:104BD0001A55641E50EA0102F2D1641C019AC4F114
:104BE000110314440F9A012A03D0012208430DD166
:104BF0000AE0084304D000204FF0110B0F9080E72B
:104C0000A3EB0B056D1E0DE05B4504DD4FF00002CC
:104C100005F1010504E003DA4FF00002A5F10105FA
:104C2000002AECD000980F99C0E90231C0E9004594
:104C300086E70000000024400000F03F3000000044
:104C40000000F0430000E03F2DE9FF4F95B09B4688
:104C50008946064600250FE2252877D100242746FD
:104C6000F84A0121059400E0044316F8013F203B77
:104C700001FA03F01042F7D130782A2811D06FF0F2
:104C80002F033078A0F13002092A16D8059A44F093
:104C9000020402EB820203EB42021044761C0590F0
:104CA000EFE759F8042B0592002A03DA504244F446
:104CB0000054059044F00204761C30782E2816D15A
:104CC00016F8010F44F004042A280DD06FF02F02CB
:104CD0003078A0F13003092B09D807EB870302EBEA
:104CE0004303C718761CF3E759F8047B761C307829
:104CF0006C280FD006DC4C2817D068280DD06A2805
:104D000014D104E0742810D07A280FD10DE044F4B7
:104D100000140AE044F4801401E044F44014727872
:104D2000824202D104F58014761C761C3078662805
:104D30000BD013DC582877D009DC002875D0452823
:104D4000F6D04628F4D047281AD19DE118E0632810
:104D500035D0642879D0652812D195E1702873D0B8
:104D600008DC6728F1D069286FD06E280DD06F2835
:104D700006D1B5E073282CD0752875D0782874D06A
:104D80005A46179990476D1C75E1C4F302500228EA
:104D900009D003280DD0D9F8001004280DD00D60DB
:104DA00009F1040967E1D9F80010EA17C1E90052D6
:104DB000F6E7D9F800100D80F2E70D70F0E719F86A
:104DC000041B8DF8001000208DF80100EA46012038
:104DD00003E059F804AB4FF0FF3061074FF00001DA
:104DE00002D40DE008F101018846B9420FDA80458E
:104DF000F8DB1AF808100029F4D108E008F10101E5
:104E000088468142FADB1AF808100029F6D1059885
:104E10005B46A0EB080721463846179A00F094FA43
:104E2000284400EB080507E04DE029E10DE01AF801
:104E3000010B5A4617999047B8F10108F7D25B4623
:104E400021463846179A13E142E00A220092C4F341
:104E500002524FF0000A022A08D059F804CB032A64
:104E60004FEAEC710AD00DE029E02AE009F10701D0
:104E700021F00702F2E802C1914609E00FFA8CFC2A
:104E80004FEAEC71042A03D14FFA8CFC4FEAEC7123
:104E9000002907DA0A460021DCF1000C61EB02016F
:104EA0002D2202E0220504D52B228DF804200122B8
:104EB00003E0E20701D02022F7E7904659E00A21FB
:104EC00002E010220DE010214FF0000A00910BE0EB
:104ED00010224FF0000A44F004040827009203E077
:104EE00008224FF0000A0092C4F30252022A05D0B1
:104EF00059F804CB0021032A08D009E009F1070181
:104F000021F00702F2E802C1914605E01FFA8CFC8D
:104F1000042A01D10CF0FF0C4FF00008220728D51D
:104F2000702806D0009B83F0100353EA0A0305D0D3
:104F30000EE040228DF80420012208E05CEA010224
:104F400006D030228DF804208DF80500022290460C
:104F5000009B83F0080353EA0A030AD15CEA0102CA
:104F600001D1620705D530228DF804204FF00108E9
:104F70007F1E582804D034A003900EA802900DE0A4
:104F800036A0F9E753466046009AFBF78BF9844652
:104F90000398825C0298401E029002705CEA010055
:104FA000F0D1029806A9081A00F1200A600702D57C
:104FB00024F4803400E00127574502DDA7EB0A0006
:104FC00000E0002000EB0A01009005984144401ADF
:104FD0000590E00306D45B462146179A059800F039
:104FE000B3F90544002706E001A85A46C05D1799A9
:104FF00090476D1C7F1C4745F6DBE0030CD55B46F4
:105000002146179A059800F09FF9054404E03020E6
:105010005A46179990476D1C0099481E0090002928
:10502000F5DC08E0029802995A460078491C029182
:10503000179990476D1CBAF10001AAF1010AF1DC41
:1050400065E100000928010030313233343536374C
:1050500038396162636465660000000030313233C4
:105060003435363738394142434445460000000064
:1050700000F058F90544761C307800287FF4ECAD38
:1050800019B02846BDE8F08F620700D4062709F161
:10509000070222F0070CFCE80223E14603F0004877
:1050A0005FEA080C02D00FF2702C0DE05FEA045C9E
:1050B00002D50FF2682C07E05FEAC47C02D00FF241
:1050C000602C01E0AFF2700C4FF0FF3823F000438A
:1050D000CDF850C065280CD006DC452809D04628FC
:1050E0001DD047283DD13DE0662818D067287ED1E5
:1050F00038E00021112F01DB112000E0781CCDE900
:10510000000106A90EA8FFF7EDFCDDE90F010E9ADC
:1051100003910021009207F1010A04914DE04FF044
:1051200000400097CDE9011006A90EA8FFF7DAFCB0
:10513000DDE90F0203920E9B11990022DDF80CA00D
:105140000093049211B9791C00EB010AB7EB0A0035
:1051500004D4C0F1FF3007F1010A0490AAEB070064
:10516000019044E0012F00DA01270021112F01DD19
:10517000112000E03846CDE9000106A90EA8FFF78E
:10518000B1FCDDE90F010E9A039100210491009218
:10519000BA4621070CD40399514500DA8A46BAF180
:1051A000010F05DD009AAAF10101515C302908D0F8
:1051B000B84202DA10F1040F06DA0121CDE901103C
:1051C00015E0AAF10101E9E7002805DC0499014492
:1051D0000491AAEB000102E0411C514500DD8A4622
:1051E0000499401A401C01904FF0004002902007A3
:1051F00004D40198504501DBCDF8048000208DF8DF
:105200004F0002980DF14F07B0F1004F25D02B2031
:105210000E9002984FF0020800280CDA40420290EB
:105220002D200E9007E00A210298FBF777FA303123
:10523000029007F8011DB8F10001A8F10108F2DCA5
:1052400002980028EFD1791E0E980870307800F08F
:10525000200040F0450007F8020D12A8C01B00F125
:1052600007081498007800B1012000EB0A010198AA
:1052700001EBE07105984144401A401E0590E0039F
:1052800006D45B462146179A059800F05DF8054460
:105290001498007818B15A46179990476D1CE0038E
:1052A00024D55B462146179A059800F04DF8054431
:1052B0001CE00498002807DBDDE90301884203DDD8
:1052C0000098405C179901E0179930205A469047A2
:1052D000049805F10105401C04900198401E0190BE
:1052E00004D12E205A46179990476D1CBAF100013F
:1052F000AAF1010ADDDC05E017F8010B5A461799FF
:1053000090476D1CB8F10001A8F10108F4DC5B4680
:105310002146179A0598ABE62D0000002B000000EF
:10532000200000002DE9F041044600251E461746E6
:10533000880404D405E039462020B0476D1C641E63
:10534000F9D52846BDE8F0812DE9F0410446002555
:105350001E469046C80301D5302700E02027880468
:1053600004D505E041463846B0476D1C641EF9D5AA
:105370002846BDE8F08110B541EC100BFFF788F826
:1053800051EC100B10BD000070B58AB0002401254F
:1053900003940E26CDE908560594019402940094D6
:1053A000694619480494CDE90645FBF74BFECDE963
:1053B000065444F22000009044F24000019044F270
:1053C0006000029003AA08954FF4814082E85100E2
:1053D00069460E48FBF736FE0F20CDE90440CDE9C3
:1053E000065444F2A000009044F2C000019046F23E
:1053F00020200290089546F2402003906946034819
:10540000FBF720FE0AB070BD600D0020880D002063
:1054100010B50848FCF7AAFA02210648FBF79CFDE4
:105420000548FCF7A3FABDE8104002210248FBF74B
:1054300093BD0000600D0020880D00201E4810B5AF
:1054400090ED050A90F83720B0F91C10BDEEC00AA7
:1054500010EE100A00B200F0A7F918491648B1F989
:105460000220D0ED040A00EE102AB8EEC01A9FED1B
:10547000140A41EE000AC0ED000AB1F9002000EE66
:10548000902AF8EEE00A60EE800AC0ED010AB1F958
:10549000041000EE901AF8EEE00A20EE800ADFED2C
:1054A000090A20EE201A80ED021A90EC020A2A3036
:1054B000BDE8104000F084BF880B00206C01002084
:1054C00085EB41419A99993F2DE9F0411E4D1F4EC0
:1054D00000242DED028B43F698279FED1D8A41F2A3
:1054E000707800BF05EB44102021FAF725FFB0EEDD
:1054F000480A04EB840000EBC40006EB8000B0EE29
:10550000401AF0EE400A3A464146FEF762F8641C43
:10551000062CE7DB0022B0EE481AF0EE480AB0EEA7
:10552000480A11460B48FEF754F8B0EE481AF0EE60
:10553000480AB0EE480ABDEC028B0022BDE8F041FB
:1055400011460548FEF745B8B0090020A403002025
:10555000000000006C020020080300202DED028BEB
:1055600082B0DFF8E8803A4EDFF8E89001F0C2FF41
:10557000019001F047FDFFF761FF002408EB4410A4
:1055800009EB4407B0F9060000EE100AB7F92A004B
:10559000F8EEC00A00EE100A04EB840000EBC40031
:1055A00006EB8005B8EEC00A284601F0F7F895ED45
:1055B000050A641C062CBDEEC00A10EE100AF88322
:1055C000DCDB99F836004D4600BB9FED238A0024B2
:1055D000474643F6982A41F2707B00BF07EB441020
:1055E0002021FAF7A9FEB0EE480A04EB840000EB94
:1055F000C40006EB8000B0EE401AF0EE400A5246BE
:105600005946FDF7E6FF641C062CE7DBB5F92400DC
:105610000090B5F92230B5F92020B5F91E104FF4ED
:10562000007001F01FFC002000900346B5F928200F
:10563000B5F9261040F2FF1001F014FC01F002FD54
:10564000052101A801F067F890E70000B0090020EB
:10565000A4030020880B00200000000070B5054660
:105660002DED028B41A1FBF713FB002879D140A15E
:105670002846FBF70DFB002873D13EA12846FBF717
:1056800007FB00286DD13CA12846FBF701FB002851
:1056900067D13AA12846FBF7FBFA394C9FED398BCD
:1056A00038B16068FBF70BF853EC182BFAF74FFE94
:1056B00025E036A12846FBF7EBFA38B16069FAF726
:1056C000FEFF53EC182BFAF742FE28E030A12846E3
:1056D000FBF7DEFA38B12069FAF7F1FF53EC182B2B
:1056E000FAF735FE2BE02BA12846FBF7D1FA50B193
:1056F0006068FAF7E4FF53EC182BFAF7C9FEFAF7E3
:10570000F1FF60602DE024A12846FBF7C1FA50B1FB
:105710006069FAF7D4FF53EC182BFAF7B9FEFAF7E1
:10572000E1FF60611DE01DA12846FBF7B1FA50B111
:105730002069FAF7C4FF53EC182BFAF7A9FEFAF721
:10574000D1FF20610DE016A12846FBF7A1FA002841
:1057500008D09FED140A84ED010A84ED040A84ED5B
:10576000050A0020BDEC028B70BD00006100000046
:10577000620000006300000064000000750000008B
:10578000140000209A9999999999A93F69000000FD
:105790006F0000006A0000006B0000006C00000059
:1057A0007000000000000000164800212AB1012A04
:1057B00014D0022A0CD1418309E0428B521C92B2D0
:1057C0004283037E2BB9A02A03D3418301210176B2
:1057D0007047B2F5A07FFBD3418370470A49437EEF
:1057E0004FF0824291ED2B0AB0EEC00A10EE101A73
:1057F0001BB19142F1DC002102E09142EDDC01217C
:1058000041767047880B0020D0010020174C40F2F1
:10581000DC5517A0FEF752FCB4F900101AA0FEF7F1
:105820004DFCB4F902101CA0FEF748FC217A1EA022
:10583000FEF744FC617A20A0FEF740FC22A0FEF7B0
:105840003DFC217C26A0FEF739FCB4F90A1029A002
:10585000FEF734FC618A2CA0FEF730FC05212846B7
:1058600000F020F9012000F04FFFD2E76C0100208A
:105870002323524320524556454E4C454E54203A20
:105880002023230D0A00000072632E636830203D40
:105890002025640D0A00000072632E636831203DEC
:1058A0002025640D0A00000072632E737731203DBD
:1058B0002025640D0A00000072632E737732203DAC
:1058C0002025640D0A00000023234B4D205245562D
:1058D000454E4C454E54203A2023230D0A0000002B
:1058E00072632E6D6F7573652E6C203D2025640DDF
:1058F0000A00000072632E6D6F7573652E78203D6F
:105900002025640D0A0000006B65795F636F646594
:10591000203D2025640D0A00DFF8ACB008B54FF437
:10592000006A012251465846FCF708FB0122910308
:105930002648FCF703FB00F0FAFEDFF89880244DC0
:105940004FF06409002608F188040090FCF7FCFA87
:105950002968401A6860FCF7F7FA286000F0B8FD83
:10596000D8F8000038B1012251465846FCF7E6FA53
:1059700000F06AFD07E0A8F8846000224FF480413F
:105980001248FCF7DBFA00204FEA090100EB400265
:1059900004EB42034FF47A775B88401C7B43B3FBF4
:1059A000F1F324F812301428F0DB002000EB400162
:1059B00004EB4101401C0E608E801428F6DB64214C
:1059C000684600F0A8FEC1E7001002400014024043
:1059D00058000020C00B002003884380827FDFED49
:1059E0001B0A4AB10A8852BAD31A0280B3F5805F03
:1059F00012DDC3685B1E14E0012282770022C260C0
:105A0000098849BA00EE101A8183B8EE400A80EE88
:105A1000201A80ED061A704713F5805FC36801DA1B
:105A20005B1CC36002EB4332838BD21A00EE102A58
:105A30000261B8EEC00A80EE201A80ED051A4A888D
:105A400052BAC280498849BA01817047610BB64198
:105A500010B5054901EBC004207A002803D0FCF7FB
:105A600073FAE168486010BDC00B002082B0CDE938
:105A7000000121F0004001909DED000B02B051ECBF
:105A8000100B7047B4EEE00AF1EE10FA02D2B0EE5D
:105A9000600A7047B4EEC10AF1EE10FAF9DDB0EE1B
:105AA000410A70472DE9F0410E46074600250024C3
:105AB0000CE0022C09D02819C11700EB517121F01C
:105AC0000701401A80B200F027F8641CB442F0DBF2
:105AD000F80800F019FE00240CE0022C09D0281967
